{
  "_format": "hh-sol-artifact-1",
  "contractName": "TruthArena",
  "sourceName": "contracts/TruthArena.sol",
  "abi": [
    {
      "inputs": [],
      "stateMutability": "nonpayable",
      "type": "constructor"
    },
    {
      "anonymous": false,
      "inputs": [
        {
          "indexed": true,
          "internalType": "uint256",
          "name": "marketId",
          "type": "uint256"
        },
        {
          "indexed": true,
          "internalType": "address",
          "name": "user",
          "type": "address"
        },
        {
          "indexed": false,
          "internalType": "bool",
          "name": "prediction",
          "type": "bool"
        },
        {
          "indexed": false,
          "internalType": "uint256",
          "name": "amount",
          "type": "uint256"
        },
        {
          "indexed": false,
          "internalType": "uint256",
          "name": "shares",
          "type": "uint256"
        }
      ],
      "name": "BetPlaced",
      "type": "event"
    },
    {
      "anonymous": false,
      "inputs": [
        {
          "indexed": true,
          "internalType": "uint256",
          "name": "marketId",
          "type": "uint256"
        }
      ],
      "name": "MarketCancelled",
      "type": "event"
    },
    {
      "anonymous": false,
      "inputs": [
        {
          "indexed": true,
          "internalType": "uint256",
          "name": "marketId",
          "type": "uint256"
        },
        {
          "indexed": false,
          "internalType": "string",
          "name": "question",
          "type": "string"
        },
        {
          "indexed": false,
          "internalType": "uint256",
          "name": "endTime",
          "type": "uint256"
        },
        {
          "indexed": true,
          "internalType": "address",
          "name": "creator",
          "type": "address"
        }
      ],
      "name": "MarketCreated",
      "type": "event"
    },
    {
      "anonymous": false,
      "inputs": [
        {
          "indexed": true,
          "internalType": "uint256",
          "name": "marketId",
          "type": "uint256"
        },
        {
          "indexed": false,
          "internalType": "enum TruthArena.Outcome",
          "name": "outcome",
          "type": "uint8"
        },
        {
          "indexed": false,
          "internalType": "bytes32",
          "name": "txHash",
          "type": "bytes32"
        }
      ],
      "name": "MarketResolved",
      "type": "event"
    },
    {
      "anonymous": false,
      "inputs": [
        {
          "indexed": true,
          "internalType": "uint256",
          "name": "marketId",
          "type": "uint256"
        },
        {
          "indexed": true,
          "internalType": "address",
          "name": "user",
          "type": "address"
        },
        {
          "indexed": false,
          "internalType": "uint256",
          "name": "amount",
          "type": "uint256"
        }
      ],
      "name": "RewardClaimed",
      "type": "event"
    },
    {
      "inputs": [],
      "name": "BASIS_POINTS",
      "outputs": [
        {
          "internalType": "uint256",
          "name": "",
          "type": "uint256"
        }
      ],
      "stateMutability": "view",
      "type": "function"
    },
    {
      "inputs": [],
      "name": "MIN_BET",
      "outputs": [
        {
          "internalType": "uint256",
          "name": "",
          "type": "uint256"
        }
      ],
      "stateMutability": "view",
      "type": "function"
    },
    {
      "inputs": [],
      "name": "PLATFORM_FEE",
      "outputs": [
        {
          "internalType": "uint256",
          "name": "",
          "type": "uint256"
        }
      ],
      "stateMutability": "view",
      "type": "function"
    },
    {
      "inputs": [
        {
          "internalType": "uint256",
          "name": "_marketId",
          "type": "uint256"
        },
        {
          "internalType": "uint256",
          "name": "_amount",
          "type": "uint256"
        },
        {
          "internalType": "bool",
          "name": "_isYes",
          "type": "bool"
        }
      ],
      "name": "calculatePotentialPayout",
      "outputs": [
        {
          "internalType": "uint256",
          "name": "",
          "type": "uint256"
        }
      ],
      "stateMutability": "view",
      "type": "function"
    },
    {
      "inputs": [
        {
          "internalType": "uint256",
          "name": "_marketId",
          "type": "uint256"
        }
      ],
      "name": "cancelMarket",
      "outputs": [],
      "stateMutability": "nonpayable",
      "type": "function"
    },
    {
      "inputs": [
        {
          "internalType": "uint256",
          "name": "_marketId",
          "type": "uint256"
        }
      ],
      "name": "claimRefund",
      "outputs": [],
      "stateMutability": "nonpayable",
      "type": "function"
    },
    {
      "inputs": [
        {
          "internalType": "uint256",
          "name": "_marketId",
          "type": "uint256"
        }
      ],
      "name": "claimReward",
      "outputs": [],
      "stateMutability": "nonpayable",
      "type": "function"
    },
    {
      "inputs": [],
      "name": "collectedFees",
      "outputs": [
        {
          "internalType": "uint256",
          "name": "",
          "type": "uint256"
        }
      ],
      "stateMutability": "view",
      "type": "function"
    },
    {
      "inputs": [
        {
          "internalType": "string",
          "name": "_question",
          "type": "string"
        },
        {
          "internalType": "string",
          "name": "_description",
          "type": "string"
        },
        {
          "internalType": "uint256",
          "name": "_duration",
          "type": "uint256"
        }
      ],
      "name": "createMarket",
      "outputs": [
        {
          "internalType": "uint256",
          "name": "",
          "type": "uint256"
        }
      ],
      "stateMutability": "nonpayable",
      "type": "function"
    },
    {
      "inputs": [
        {
          "internalType": "uint256",
          "name": "_marketId",
          "type": "uint256"
        }
      ],
      "name": "getMarket",
      "outputs": [
        {
          "internalType": "string",
          "name": "question",
          "type": "string"
        },
        {
          "internalType": "string",
          "name": "description",
          "type": "string"
        },
        {
          "internalType": "uint256",
          "name": "endTime",
          "type": "uint256"
        },
        {
          "internalType": "uint256",
          "name": "yesPool",
          "type": "uint256"
        },
        {
          "internalType": "uint256",
          "name": "noPool",
          "type": "uint256"
        },
        {
          "internalType": "uint256",
          "name": "totalYesShares",
          "type": "uint256"
        },
        {
          "internalType": "uint256",
          "name": "totalNoShares",
          "type": "uint256"
        },
        {
          "internalType": "enum TruthArena.MarketStatus",
          "name": "status",
          "type": "uint8"
        },
        {
          "internalType": "enum TruthArena.Outcome",
          "name": "outcome",
          "type": "uint8"
        },
        {
          "internalType": "bytes32",
          "name": "verifiedTxHash",
          "type": "bytes32"
        }
      ],
      "stateMutability": "view",
      "type": "function"
    },
    {
      "inputs": [
        {
          "internalType": "uint256",
          "name": "_marketId",
          "type": "uint256"
        },
        {
          "internalType": "address",
          "name": "_user",
          "type": "address"
        }
      ],
      "name": "getPosition",
      "outputs": [
        {
          "internalType": "uint256",
          "name": "yesShares",
          "type": "uint256"
        },
        {
          "internalType": "uint256",
          "name": "noShares",
          "type": "uint256"
        },
        {
          "internalType": "uint256",
          "name": "yesCost",
          "type": "uint256"
        },
        {
          "internalType": "uint256",
          "name": "noCost",
          "type": "uint256"
        }
      ],
      "stateMutability": "view",
      "type": "function"
    },
    {
      "inputs": [
        {
          "internalType": "uint256",
          "name": "_marketId",
          "type": "uint256"
        }
      ],
      "name": "getPrices",
      "outputs": [
        {
          "internalType": "uint256",
          "name": "yesPrice",
          "type": "uint256"
        },
        {
          "internalType": "uint256",
          "name": "noPrice",
          "type": "uint256"
        }
      ],
      "stateMutability": "view",
      "type": "function"
    },
    {
      "inputs": [
        {
          "internalType": "uint256",
          "name": "",
          "type": "uint256"
        },
        {
          "internalType": "address",
          "name": "",
          "type": "address"
        }
      ],
      "name": "hasClaimed",
      "outputs": [
        {
          "internalType": "bool",
          "name": "",
          "type": "bool"
        }
      ],
      "stateMutability": "view",
      "type": "function"
    },
    {
      "inputs": [],
      "name": "marketCount",
      "outputs": [
        {
          "internalType": "uint256",
          "name": "",
          "type": "uint256"
        }
      ],
      "stateMutability": "view",
      "type": "function"
    },
    {
      "inputs": [
        {
          "internalType": "uint256",
          "name": "",
          "type": "uint256"
        }
      ],
      "name": "markets",
      "outputs": [
        {
          "internalType": "string",
          "name": "question",
          "type": "string"
        },
        {
          "internalType": "string",
          "name": "description",
          "type": "string"
        },
        {
          "internalType": "uint256",
          "name": "endTime",
          "type": "uint256"
        },
        {
          "internalType": "uint256",
          "name": "yesPool",
          "type": "uint256"
        },
        {
          "internalType": "uint256",
          "name": "noPool",
          "type": "uint256"
        },
        {
          "internalType": "uint256",
          "name": "totalYesShares",
          "type": "uint256"
        },
        {
          "internalType": "uint256",
          "name": "totalNoShares",
          "type": "uint256"
        },
        {
          "internalType": "enum TruthArena.MarketStatus",
          "name": "status",
          "type": "uint8"
        },
        {
          "internalType": "enum TruthArena.Outcome",
          "name": "outcome",
          "type": "uint8"
        },
        {
          "internalType": "bytes32",
          "name": "verifiedTxHash",
          "type": "bytes32"
        },
        {
          "internalType": "uint256",
          "name": "createdAt",
          "type": "uint256"
        },
        {
          "internalType": "address",
          "name": "creator",
          "type": "address"
        }
      ],
      "stateMutability": "view",
      "type": "function"
    },
    {
      "inputs": [],
      "name": "oracle",
      "outputs": [
        {
          "internalType": "address",
          "name": "",
          "type": "address"
        }
      ],
      "stateMutability": "view",
      "type": "function"
    },
    {
      "inputs": [],
      "name": "owner",
      "outputs": [
        {
          "internalType": "address",
          "name": "",
          "type": "address"
        }
      ],
      "stateMutability": "view",
      "type": "function"
    },
    {
      "inputs": [
        {
          "internalType": "uint256",
          "name": "_marketId",
          "type": "uint256"
        },
        {
          "internalType": "bool",
          "name": "_prediction",
          "type": "bool"
        }
      ],
      "name": "placeBet",
      "outputs": [],
      "stateMutability": "payable",
      "type": "function"
    },
    {
      "inputs": [
        {
          "internalType": "uint256",
          "name": "",
          "type": "uint256"
        },
        {
          "internalType": "address",
          "name": "",
          "type": "address"
        }
      ],
      "name": "positions",
      "outputs": [
        {
          "internalType": "uint256",
          "name": "yesShares",
          "type": "uint256"
        },
        {
          "internalType": "uint256",
          "name": "noShares",
          "type": "uint256"
        },
        {
          "internalType": "uint256",
          "name": "yesCost",
          "type": "uint256"
        },
        {
          "internalType": "uint256",
          "name": "noCost",
          "type": "uint256"
        }
      ],
      "stateMutability": "view",
      "type": "function"
    },
    {
      "inputs": [
        {
          "internalType": "uint256",
          "name": "_marketId",
          "type": "uint256"
        },
        {
          "internalType": "enum TruthArena.Outcome",
          "name": "_outcome",
          "type": "uint8"
        },
        {
          "internalType": "bytes32",
          "name": "_txHash",
          "type": "bytes32"
        }
      ],
      "name": "resolveMarket",
      "outputs": [],
      "stateMutability": "nonpayable",
      "type": "function"
    },
    {
      "inputs": [
        {
          "internalType": "address",
          "name": "_oracle",
          "type": "address"
        }
      ],
      "name": "setOracle",
      "outputs": [],
      "stateMutability": "nonpayable",
      "type": "function"
    },
    {
      "inputs": [
        {
          "internalType": "address",
          "name": "_newOwner",
          "type": "address"
        }
      ],
      "name": "transferOwnership",
      "outputs": [],
      "stateMutability": "nonpayable",
      "type": "function"
    },
    {
      "inputs": [],
      "name": "withdrawFees",
      "outputs": [],
      "stateMutability": "nonpayable",
      "type": "function"
    },
    {
      "stateMutability": "payable",
      "type": "receive"
    }
  ],
  "bytecode": "0x608080604052346100325760018060a01b0319338160045416176004553390600554161760055561176b90816100388239f35b600080fdfe608080604052600436101561001d575b50361561001b57600080fd5b005b60003560e01c90816334fbc9a1146111f45750806339160719146111be578063476343ee146110fd5780635b7baf6414610f8c5780636540742f14610f6a5780637adbf97314610f0e5780637c16cd9e14610e925780637dc0d1d014610e69578063873f6f9e14610e1c5780638da5cb5b14610df35780639003adfe14610dd55780639149295614610dab5780639ed9c74d14610b53578063ae169a5014610927578063b1283e7714610835578063d29f541d14610658578063d5220b62146106e2578063e1f1c4a7146106c5578063e684d71814610658578063eb44fdd314610588578063ec9790821461056a578063f2fde38b1461051a5763f98b778314610127573861000f565b346105155760603660031901126105155760043567ffffffffffffffff8111610515576101589036906004016113b8565b60243567ffffffffffffffff8111610515576101789036906004016113b8565b604435156104d057815115610497576003549060001982146104815760018201600355816000526000602052604060002090835167ffffffffffffffff81116103b5576101c5835461123a565b601f811161043d575b50806020601f82116001146103d6576000916103cb575b508160011b916000199060031b1c19161782555b60018201815167ffffffffffffffff81116103b557610218825461123a565b601f811161036d575b509484916020968794601f82116001146102e3577f57d0d124b72f81ed1da0dc728fc33db342705974792928796f6577b8db5c3d53949582916000926102d8575b50508160011b916000199060031b1c19161790555b600a610285604435426113ff565b6002860181905560078601805461ffff19169055426009870155940180546001600160a01b0319163317905560408051818152916102c59183019061133c565b93868201528033940390a3604051908152f35b015190503880610262565b601f1982169083600052896000209160005b8181106103535750968392916001947f57d0d124b72f81ed1da0dc728fc33db342705974792928796f6577b8db5c3d5398991061033a575b505050811b019055610277565b015160001960f88460031b161c1916905538808061032d565b828901518455978b01978a97506001909301928b016102f5565b826000526020600020601f830160051c810191602084106103ab575b601f0160051c01905b81811061039f5750610221565b60008155600101610392565b9091508190610389565b634e487b7160e01b600052604160045260246000fd5b9050850151386101e5565b91508360005260206000206000925b601f1983168410610425576001935082601f1981161061040c575b5050811b0182556101f9565b87015160001960f88460031b161c191690553880610400565b878101518255602093840193600190920191016103e5565b836000526020600020601f830160051c81016020841061047a575b601f830160051c8201811061046e5750506101ce565b60008155600101610458565b5080610458565b634e487b7160e01b600052601160045260246000fd5b60405162461bcd60e51b8152602060048201526011602482015270145d595cdd1a5bdb881c995c5d5a5c9959607a1b6044820152606490fd5b60405162461bcd60e51b815260206004820152601960248201527f4475726174696f6e206d75737420626520706f736974697665000000000000006044820152606490fd5b600080fd5b346105155760203660031901126105155761053361120e565b600454906001600160a01b039061054d338385161461158b565b169061055a8215156116f7565b6001600160a01b03191617600455005b34610515576000366003190112610515576020600354604051908152f35b3461051557602036600319011261051557600435600052600060205261060960406000206002810154600382015460048301546005840154600685015460078601549160ff8084169360081c16936008880154956106176105f460016105ed8c611296565b9b01611296565b6040519b8c9b8c6101408091528d019061133c565b908b820360208d015261133c565b9760408a01526060890152608088015260a087015260c086015261063a8161137c565b60e08501526106488161137c565b6101008401526101208301520390f35b3461051557604036600319011261051557610671611224565b60043560009081526001602081815260408084206001600160a01b03959095168452938152918390208054918101546002820154600390920154855193845293830152928101929092526060820152608090f35b346105155760003660031901126105155760206040516127108152f35b34610515576060366003190112610515576004356024356003811015610515576005546044359190336001600160a01b0391821614908115610827575b50156107f457826000526000602052604060002090600782019283549361075260ff861661074c8161137c565b1561140c565b61075b8361137c565b82156107bd576008604094839260017f3369929723e45f72d9ba8ea5e21eace474887d4e706445ad162994ef978709a8986107958861137c565b61ffff191687851b61ff00161717905501558251916107b38161137c565b82526020820152a2005b60405162461bcd60e51b815260206004820152600f60248201526e496e76616c6964206f7574636f6d6560881b6044820152606490fd5b60405162461bcd60e51b815260206004820152600b60248201526a4f6e6c79206f7261636c6560a81b6044820152606490fd5b90506004541633148461071f565b346105155760203660031901126105155760043560005260006020526108cc604060002061086281611296565b9061086f60018201611296565b600282015491600381015460048201546005830154600684015460078501549160ff8084169360081c16936008870154956108da600989015498600a60018060a01b0391015416996040519d8e9d8e61018090818152019061133c565b8d810360208f01529061133c565b9960408c015260608b015260808a015260a089015260c08801526108fd8161137c565b60e087015261090b8161137c565b6101008601526101208501526101408401526101608301520390f35b346105155760208060031936011261051557600435908160005260008152604060002091600783015492600160ff85166109608161137c565b03610b18578160005260028352604060002033600052835261098a60ff60406000205416156114dd565b8160005260018352604060002033600052835260406000209360009460ff6109bb60038501546004860154906113ff565b9260081c166109c98161137c565b60018103610ad657506109fa939495506005916109f191546109ec81151561151b565b61144c565b9101549061145f565b915b8215610a9f57816000526002815260406000203360005281526040600020600160ff19825416179055600080808086335af1610a3661155b565b5015610a69577f24b5efa61dd1cfc659205a97fb8ed868f3cb8c81922bab2b96423e5de1de2cb7906040519384523393a3005b6064906040519062461bcd60e51b82526004820152600f60248201526e151c985b9cd9995c8819985a5b1959608a1b6044820152fd5b6064906040519062461bcd60e51b82526004820152601060248201526f4e6f7468696e6720746f20636c61696d60801b6044820152fd5b80610ae560029297969761137c565b14610af3575b5050506109fc565b610b0f93955060069160016109f19201546109ec81151561151b565b91838080610aeb565b60405162461bcd60e51b815260048101849052601360248201527213585c9ad95d081b9bdd081c995cdbdb1d9959606a1b6044820152606490fd5b604036600319011261051557600435602435908115159182810361051557816000526020600081526040600020610b9460ff60078301541661074c8161137c565b6002810154421015610d775766038d7ea4c680003410610d3e5760c8340234810460c8143415171561048157612710900490610bdc610bd3833461147f565b926006546113ff565b6006558315610d3057610c008260038301545b8615610d255760048401549061148c565b9315610cae57600591610c18600383019182546113ff565b905501610c268382546113ff565b9055826000526001815260406000203360005281526040600020610c4b8382546113ff565b9055826000526001815260406000203360005281526002604060002001610c733482546113ff565b90555b604051938452349084015260408301527f52772507cb516fc74ec2a0c1cf45c731d4e9eb90979b956f47caf17c4208688060603393a3005b600691610cc0600483019182546113ff565b905501610cce8382546113ff565b9055826000526001815260406000203360005281526001604060002001610cf68382546113ff565b9055826000526001815260406000203360005281526003604060002001610d1e3482546113ff565b9055610c76565b60038401549061148c565b610c00826004830154610bef565b60405162461bcd60e51b815260048101839052601160248201527010995b1bddc81b5a5b9a5b5d5b4818995d607a1b6044820152606490fd5b60405162461bcd60e51b815260048101839052600c60248201526b13585c9ad95d08195b99195960a21b6044820152606490fd5b34610515576020366003190112610515576040610dc96004356115c4565b82519182526020820152f35b34610515576000366003190112610515576020600654604051908152f35b34610515576000366003190112610515576004546040516001600160a01b039091168152602090f35b3461051557604036600319011261051557610e35611224565b600435600052600260205260406000209060018060a01b0316600052602052602060ff604060002054166040519015158152f35b34610515576000366003190112610515576005546040516001600160a01b039091168152602090f35b3461051557602036600319011261051557600435610ebb60018060a01b0360045416331461158b565b806000526000602052600760406000200160028154610ee060ff821661074c8161137c565b60ff19161790557f2ca440fb7fca85d7f55d395a4abd94817330b83a62f3502efbb4770144e4ca97600080a2005b3461051557602036600319011261051557610f2761120e565b6004546001600160a01b039190610f41908316331461158b565b16610f4d8115156116f7565b6bffffffffffffffffffffffff60a01b6005541617600555600080f35b3461051557600036600319011261051557602060405166038d7ea4c680008152f35b3461051557602080600319360112610515576004358060005260008252600260ff60076040600020015416610fc08161137c565b036110c15780600052600282526040600020336000528252610fea60ff60406000205416156114dd565b80600052600182526040600020336000528252611015604060002060036002820154910154906113ff565b908115611088576000808093819382526002865260408220338352865260408220600160ff19825416179055335af161104c61155b565b501561105457005b6064906040519062461bcd60e51b82526004820152600d60248201526c1499599d5b990819985a5b1959609a1b6044820152fd5b60405162461bcd60e51b8152600481018490526011602482015270139bdd1a1a5b99c81d1bc81c99599d5b99607a1b6044820152606490fd5b60405162461bcd60e51b815260048101839052601460248201527313585c9ad95d081b9bdd0818d85b98d95b1b195960621b6044820152606490fd5b34610515576000366003190112610515576004546001600160a01b031661112533821461158b565b6006549081156111835760008080938193826006555af161114461155b565b501561114c57005b60405162461bcd60e51b815260206004820152600f60248201526e15da5d1a191c985dc819985a5b1959608a1b6044820152606490fd5b60405162461bcd60e51b81526020600482015260136024820152724e6f206665657320746f20776974686472617760681b6044820152606490fd5b34610515576060366003190112610515576044358015158103610515576111ec60209160243560043561165f565b604051908152f35b34610515576000366003190112610515578060c860209252f35b600435906001600160a01b038216820361051557565b602435906001600160a01b038216820361051557565b90600182811c9216801561126a575b602083101461125457565b634e487b7160e01b600052602260045260246000fd5b91607f1691611249565b90601f8019910116810190811067ffffffffffffffff8211176103b557604052565b90604051918260008254926112aa8461123a565b90818452600194858116908160001461131957506001146112d6575b50506112d492500383611274565b565b9093915060005260209081600020936000915b8183106113015750506112d4935082010138806112c6565b855488840185015294850194879450918301916112e9565b9150506112d494506020925060ff191682840152151560051b82010138806112c6565b919082519283825260005b848110611368575050826000602080949584010152601f8019910116010190565b602081830181015184830182015201611347565b6003111561138657565b634e487b7160e01b600052602160045260246000fd5b67ffffffffffffffff81116103b557601f01601f191660200190565b81601f82011215610515578035906113cf8261139c565b926113dd6040519485611274565b8284526020838301011161051557816000926020809301838601378301015290565b9190820180921161048157565b1561141357565b60405162461bcd60e51b81526020600482015260116024820152704d61726b6574206e6f742061637469766560781b6044820152606490fd5b8181029291811591840414171561048157565b8115611469570490565b634e487b7160e01b600052601260045260246000fd5b9190820391821161048157565b91908215806114d5575b6114cf576114a4908261144c565b670de0b6b3a76400008301809311610481576114cc926114c39161145f565b60011c906113ff565b90565b50905090565b508015611496565b156114e457565b60405162461bcd60e51b815260206004820152600f60248201526e105b1c9958591e4818db185a5b5959608a1b6044820152606490fd5b1561152257565b60405162461bcd60e51b81526020600482015260116024820152704e6f2077696e6e696e672073686172657360781b6044820152606490fd5b3d15611586573d9061156c8261139c565b9161157a6040519384611274565b82523d6000602084013e565b606090565b1561159257565b60405162461bcd60e51b815260206004820152600a60248201526927b7363c9037bbb732b960b11b6044820152606490fd5b90600091825281602052604082209160046003840154930154926115e884826113ff565b91821561165257612710918281029080820484149015171561163e578361160e9161145f565b9482810292818404149015171561162a5750906114cc9161145f565b634e487b7160e01b81526011600452602490fd5b634e487b7160e01b82526011600452602482fd5b5050509050611388908190565b600052600060205260406000209060c881029080820460c814811517156104815761271061168e92049061147f565b60038201546004830154906116ac836116a784846113ff565b6113ff565b94156116df576005936116ca6116da946114cc97946116d49461148c565b94859101546113ff565b9261144c565b61145f565b6006936116ca6116da946116d4936114cc989561148c565b156116fe57565b60405162461bcd60e51b815260206004820152600f60248201526e496e76616c6964206164647265737360881b6044820152606490fdfea26469706673582212201a5e2159df235241e4db8afacabe5156c55cd3aa5070ba3acdbf8cb827ff7d8064736f6c63430008140033",
  "linkReferences": {},
  "deployedLinkReferences": {}
}