{"contracts/TruthArenaV2.sol":{"TruthArenaV2":{"abi":[{"inputs":[],"stateMutability":"nonpayable","type":"constructor"},{"anonymous":false,"inputs":[{"indexed":true,"internalType":"uint256","name":"marketId","type":"uint256"},{"indexed":true,"internalType":"address","name":"user","type":"address"},{"indexed":false,"internalType":"bool","name":"prediction","type":"bool"},{"indexed":false,"internalType":"uint256","name":"amount","type":"uint256"},{"indexed":false,"internalType":"uint256","name":"shares","type":"uint256"}],"name":"BetPlaced","type":"event"},{"anonymous":false,"inputs":[{"indexed":true,"internalType":"uint256","name":"marketId","type":"uint256"},{"indexed":false,"internalType":"string","name":"question","type":"string"},{"indexed":false,"internalType":"uint256","name":"endTime","type":"uint256"},{"indexed":false,"internalType":"bool","name":"yieldEnabled","type":"bool"}],"name":"MarketCreated","type":"event"},{"anonymous":false,"inputs":[{"indexed":true,"internalType":"uint256","name":"marketId","type":"uint256"},{"indexed":false,"internalType":"enum TruthArenaV2.Outcome","name":"outcome","type":"uint8"},{"indexed":false,"internalType":"bytes32","name":"txHash","type":"bytes32"}],"name":"MarketResolved","type":"event"},{"anonymous":false,"inputs":[{"indexed":true,"internalType":"uint256","name":"marketId","type":"uint256"},{"indexed":true,"internalType":"address","name":"user","type":"address"},{"indexed":false,"internalType":"uint256","name":"amount","type":"uint256"}],"name":"RewardClaimed","type":"event"},{"anonymous":false,"inputs":[{"indexed":true,"internalType":"uint256","name":"marketId","type":"uint256"},{"indexed":false,"internalType":"bool","name":"enabled","type":"bool"}],"name":"YieldStrategyUpdated","type":"event"},{"inputs":[],"name":"BASIS_POINTS","outputs":[{"internalType":"uint256","name":"","type":"uint256"}],"stateMutability":"view","type":"function"},{"inputs":[],"name":"MIN_BET","outputs":[{"internalType":"uint256","name":"","type":"uint256"}],"stateMutability":"view","type":"function"},{"inputs":[],"name":"PLATFORM_FEE","outputs":[{"internalType":"uint256","name":"","type":"uint256"}],"stateMutability":"view","type":"function"},{"inputs":[{"internalType":"uint256","name":"_marketId","type":"uint256"},{"internalType":"uint256","name":"_amount","type":"uint256"},{"internalType":"bool","name":"_isYes","type":"bool"}],"name":"calculatePotentialPayout","outputs":[{"internalType":"uint256","name":"","type":"uint256"}],"stateMutability":"view","type":"function"},{"inputs":[{"internalType":"uint256","name":"_marketId","type":"uint256"}],"name":"cancelMarket","outputs":[],"stateMutability":"nonpayable","type":"function"},{"inputs":[{"internalType":"uint256","name":"_marketId","type":"uint256"}],"name":"claimRefund","outputs":[],"stateMutability":"nonpayable","type":"function"},{"inputs":[{"internalType":"uint256","name":"_marketId","type":"uint256"}],"name":"claimReward","outputs":[],"stateMutability":"nonpayable","type":"function"},{"inputs":[],"name":"collectedFees","outputs":[{"internalType":"uint256","name":"","type":"uint256"}],"stateMutability":"view","type":"function"},{"inputs":[{"internalType":"string","name":"_question","type":"string"},{"internalType":"string","name":"_description","type":"string"},{"internalType":"uint256","name":"_duration","type":"uint256"}],"name":"createMarket","outputs":[{"internalType":"uint256","name":"","type":"uint256"}],"stateMutability":"nonpayable","type":"function"},{"inputs":[{"internalType":"uint256","name":"_marketId","type":"uint256"}],"name":"getMarket","outputs":[{"internalType":"string","name":"question","type":"string"},{"internalType":"string","name":"description","type":"string"},{"internalType":"uint256","name":"endTime","type":"uint256"},{"internalType":"uint256","name":"yesPool","type":"uint256"},{"internalType":"uint256","name":"noPool","type":"uint256"},{"internalType":"uint256","name":"totalYesShares","type":"uint256"},{"internalType":"uint256","name":"totalNoShares","type":"uint256"},{"internalType":"enum TruthArenaV2.MarketStatus","name":"status","type":"uint8"},{"internalType":"enum TruthArenaV2.Outcome","name":"outcome","type":"uint8"},{"internalType":"bool","name":"yieldEnabled","type":"bool"}],"stateMutability":"view","type":"function"},{"inputs":[{"internalType":"uint256","name":"_marketId","type":"uint256"},{"internalType":"address","name":"_user","type":"address"}],"name":"getPosition","outputs":[{"internalType":"uint256","name":"yesShares","type":"uint256"},{"internalType":"uint256","name":"noShares","type":"uint256"},{"internalType":"uint256","name":"yesCost","type":"uint256"},{"internalType":"uint256","name":"noCost","type":"uint256"}],"stateMutability":"view","type":"function"},{"inputs":[{"internalType":"uint256","name":"_marketId","type":"uint256"}],"name":"getPrices","outputs":[{"internalType":"uint256","name":"yesPrice","type":"uint256"},{"internalType":"uint256","name":"noPrice","type":"uint256"}],"stateMutability":"view","type":"function"},{"inputs":[{"internalType":"uint256","name":"_tierIndex","type":"uint256"}],"name":"getYieldTier","outputs":[{"internalType":"uint256","name":"duration","type":"uint256"},{"internalType":"uint256","name":"threshold","type":"uint256"}],"stateMutability":"view","type":"function"},{"inputs":[{"internalType":"uint256","name":"","type":"uint256"},{"internalType":"address","name":"","type":"address"}],"name":"hasClaimed","outputs":[{"internalType":"bool","name":"","type":"bool"}],"stateMutability":"view","type":"function"},{"inputs":[],"name":"marketCount","outputs":[{"internalType":"uint256","name":"","type":"uint256"}],"stateMutability":"view","type":"function"},{"inputs":[{"internalType":"uint256","name":"","type":"uint256"}],"name":"markets","outputs":[{"internalType":"string","name":"question","type":"string"},{"internalType":"string","name":"description","type":"string"},{"internalType":"uint256","name":"endTime","type":"uint256"},{"internalType":"uint256","name":"yesPool","type":"uint256"},{"internalType":"uint256","name":"noPool","type":"uint256"},{"internalType":"uint256","name":"totalYesShares","type":"uint256"},{"internalType":"uint256","name":"totalNoShares","type":"uint256"},{"internalType":"enum TruthArenaV2.MarketStatus","name":"status","type":"uint8"},{"internalType":"enum TruthArenaV2.Outcome","name":"outcome","type":"uint8"},{"internalType":"bytes32","name":"verifiedTxHash","type":"bytes32"},{"internalType":"uint256","name":"createdAt","type":"uint256"},{"internalType":"address","name":"creator","type":"address"},{"internalType":"bool","name":"yieldEnabled","type":"bool"}],"stateMutability":"view","type":"function"},{"inputs":[],"name":"oracle","outputs":[{"internalType":"address","name":"","type":"address"}],"stateMutability":"view","type":"function"},{"inputs":[],"name":"owner","outputs":[{"internalType":"address","name":"","type":"address"}],"stateMutability":"view","type":"function"},{"inputs":[{"internalType":"uint256","name":"_marketId","type":"uint256"},{"internalType":"bool","name":"_prediction","type":"bool"}],"name":"placeBet","outputs":[],"stateMutability":"payable","type":"function"},{"inputs":[{"internalType":"uint256","name":"","type":"uint256"},{"internalType":"address","name":"","type":"address"}],"name":"positions","outputs":[{"internalType":"uint256","name":"yesShares","type":"uint256"},{"internalType":"uint256","name":"noShares","type":"uint256"},{"internalType":"uint256","name":"yesCost","type":"uint256"},{"internalType":"uint256","name":"noCost","type":"uint256"}],"stateMutability":"view","type":"function"},{"inputs":[{"internalType":"uint256","name":"_marketId","type":"uint256"},{"internalType":"enum TruthArenaV2.Outcome","name":"_outcome","type":"uint8"},{"internalType":"bytes32","name":"_txHash","type":"bytes32"}],"name":"resolveMarket","outputs":[],"stateMutability":"nonpayable","type":"function"},{"inputs":[{"internalType":"address","name":"_oracle","type":"address"}],"name":"setOracle","outputs":[],"stateMutability":"nonpayable","type":"function"},{"inputs":[{"internalType":"address","name":"_newOwner","type":"address"}],"name":"transferOwnership","outputs":[],"stateMutability":"nonpayable","type":"function"},{"inputs":[{"internalType":"uint256","name":"_tierIndex","type":"uint256"},{"internalType":"uint256","name":"_duration","type":"uint256"},{"internalType":"uint256","name":"_threshold","type":"uint256"}],"name":"updateYieldTier","outputs":[],"stateMutability":"nonpayable","type":"function"},{"inputs":[],"name":"withdrawFees","outputs":[],"stateMutability":"nonpayable","type":"function"},{"inputs":[{"internalType":"uint256","name":"","type":"uint256"}],"name":"yieldTiers","outputs":[{"internalType":"uint256","name":"duration","type":"uint256"},{"internalType":"uint256","name":"threshold","type":"uint256"}],"stateMutability":"view","type":"function"},{"stateMutability":"payable","type":"receive"}],"evm":{"bytecode":{"linkReferences":{},"object":"6080604052346100a55760018060a01b03193381600454161760045533906005541617600555602061002f6100aa565b62093a8090818152674563918244f40000928391015260075560085560206100556100aa565b62278d0090818152670de0b6b3a76400009283910152600955600a55602061007b6100aa565b600019908181526706f05b59d3b200009283910152600b55600c556040516119be90816100e08239f35b600080fd5b60408051919082016001600160401b038111838210176100c957604052565b634e487b7160e01b600052604160045260246000fdfe60406080815260049081361015610020575b5050361561001e57600080fd5b005b600091823560e01c806301eb66a81461126357806334fbc9a114611247578063391607191461120f578063476343ee1461115d5780635b7baf64146110035780636540742f14610fe15780637adbf97314610f8a5780637c16cd9e14610f385780637dc0d1d014610f0f578063873f6f9e14610ec95780638da5cb5b14610ea25780639003adfe14610e835780639149295614610e5957806395b563a414610e0357806396a4fb8e14610dca5780639ed9c74d14610b7c578063ae169a5014610972578063b1283e7714610872578063d29f541d1461068f578063d5220b6214610720578063e1f1c4a714610703578063e684d7181461068f578063eb44fdd3146105bc578063ec9790821461059d578063f2fde38b146105485763f98b77831461014b5750610011565b346105445760603660031901126105445767ffffffffffffffff9181358381116105405761017c90369084016114ca565b60243584811161053c5761019390369085016114ca565b946044359081156104f9578251156104c2576003918254956101b487611511565b84558683526020978389528684209486518281116104af576101d68754611336565b908b601f9283811161046d575b5050808c83821160011461040b578891610400575b508160011b9160001990851b1c19161787555b600190818801948d519485116103ed57506102268554611336565b8181116103ad575b508a9b9c879b9a9b508d809286116001146102fb5750938061029694816102de9b99958b9995600a997fcf1703a582c2d33aca5304d8715a8032f0db94e24a996a016453b343ea02d26b9f9d956102f0575b50501b92600019911b1c19161790555b42611536565b6002840181905560078401805461ffff19169055426009850155920180546001600160a81b0319163360ff60a01b19161790558651606080825290948594909185019061144e565b9189840152868301520390a251908152f35b015193503880610280565b9294939190601f198516878a52848a20948a905b82821061037c575050937fcf1703a582c2d33aca5304d8715a8032f0db94e24a996a016453b343ea02d26b9b999793600a97938793610296986102de9e9c9810610362575b50505050811b019055610290565b01519060f884600019921b161c1916905538808080610354565b888598999a9b9c9d9e9f50819394959782939798870151815501970194018f9d9c9b9a99989796959493929161030f565b8588528c882085830160051c81019183908f88106103e4575b0160051c01905b8181106103da575061022e565b88815583016103cd565b925081926103c6565b634e487b7160e01b885260419052602487fd5b9050890151386101f8565b8989528d89209150601f198316898f5b8d83831061045757505050908360019493921061043f575b5050811b01875561020b565b8b015160001983871b60f8161c191690553880610433565b840151855560019094019392830192018f61041b565b89895283828a209181850160051c83019385106104a6575b0160051c01905b81811061049b578d91506101e3565b88815560010161048c565b92508192610485565b634e487b7160e01b865260418452602486fd5b835162461bcd60e51b81526020818701526011602482015270145d595cdd1a5bdb881c995c5d5a5c9959607a1b6044820152606490fd5b835162461bcd60e51b8152602081870152601960248201527f4475726174696f6e206d75737420626520706f736974697665000000000000006044820152606490fd5b8580fd5b8480fd5b8280fd5b83823461059957602036600319011261059957610563611305565b8154906001600160a01b039061057c338385161461179d565b169061058982151561194a565b6001600160a01b03191617905580f35b5080fd5b5050346105995781600319360112610599576020906003549051908152f35b5090346105445760203660031901126105445760ff8161063c9484358152806020522080936002820154906003830154908301546005840154600685015491600786015493878086169560081c169561064a6106286001610621600a8c01549b6113a8565b9d016113a8565b8b519d8e9d8e61014090818152019061144e565b8d810360208f01529061144e565b998b015260608a0152608089015260a088015260c087015261066b8161148e565b60e08601526106798161148e565b61010085015260a01c1615156101208301520390f35b50346105445781600319360112610544579181926106ab611320565b9035825260016020528282209060018060a01b0316825260205220906106ff825491600184015493600360028201549101549151948594859094939260609260808301968352602083015260408201520152565b0390f35b505034610599578160031936011261059957602090516127108152f35b5091903461059957606036600319011261059957823590602435600381101561086e5760055460443590336001600160a01b0391821614908115610861575b5015610830578385528460205282852095600787019081549061078e60ff83166107888161148e565b15611543565b6107978561148e565b84156107fb57507f3369929723e45f72d9ba8ea5e21eace474887d4e706445ad162994ef978709a8959697839260016008936107d28861148e565b61ffff191687851b61ff00161717905501558251916107f08161148e565b82526020820152a280f35b606490602087519162461bcd60e51b8352820152600f60248201526e496e76616c6964206f7574636f6d6560881b6044820152fd5b825162461bcd60e51b8152602081880152600b60248201526a4f6e6c79206f7261636c6560a81b6044820152606490fd5b905086541633143861075f565b8380fd5b50823461096f57602036600319011261096f5782908235815280602052209161089a836113a8565b916108a7600185016113a8565b936002810154916003820154908201546005830154600684015460078501549160ff83169260081c60ff1693600887015495600988015497600a0154988a519c8d9c8d6101a090818152016108fb9161144e565b8d810360208f015261090c9161144e565b9a8c015260608b015260808a015260a089015260c088015261092d8161148e565b60e087015261093b8161148e565b6101008601526101208501526101408401526001600160a01b03811661016084015260a01c60ff1615156101808301520390f35b80fd5b5090346105445760208060031936011261086e578235918285528482528085206007810154600160ff82166109a68161148e565b03610b43578487526002845282872033885284526109ca60ff8489205416156116ef565b8487526001845282872033885284528287208760ff6109f160038601548a87015490611536565b9360081c166109ff8161148e565b60018103610afe575050610a25610a2e939260059254610a2081151561172d565b611583565b91015490611596565b935b8415610aca57838652600283528186203387528352818620600160ff198254161790558580808088335af1610a6361176d565b5015610a975750907f24b5efa61dd1cfc659205a97fb8ed868f3cb8c81922bab2b96423e5de1de2cb791519384523393a380f35b82606492519162461bcd60e51b8352820152600f60248201526e151c985b9cd9995c8819985a5b1959608a1b6044820152fd5b82606492519162461bcd60e51b8352820152601060248201526f4e6f7468696e6720746f20636c61696d60801b6044820152fd5b80610b106002929a969594939a61148e565b14610b1e575b505050610a30565b610b3a9397506006916001610a25920154610a2081151561172d565b93388080610b16565b825162461bcd60e51b8152808701859052601360248201527213585c9ad95d081b9bdd081c995cdbdb1d9959606a1b6044820152606490fd5b50908060031936011261054457813590602435908115159384830361053c57838652602090868252828720610bbb60ff6007830154166107888161148e565b6002810154421015610d995766038d7ea4c680003410610d635760c8340234810460c81434151715610d50576127109004610c02610bf982346115b6565b91600654611536565b6006558515610d4357610c258160038401545b8815610d3857858501549061169e565b9515610ccf5760059250610c3e60038301918254611536565b905501610c4c848254611536565b9055838652600181528186203387528152818620610c6b848254611536565b9055838652600181528186203387528152600282872001610c8d348254611536565b90555b610c99846115c3565b815194855234908501528301527f52772507cb516fc74ec2a0c1cf45c731d4e9eb90979b956f47caf17c4208688060603393a380f35b610cdf6006938301918254611536565b905501610ced848254611536565b9055838652600181528186203387528152600182872001610d0f848254611536565b9055838652600181528186203387528152600382872001610d31348254611536565b9055610c90565b60038501549061169e565b610c258184840154610c15565b634e487b7160e01b895260118352602489fd5b50915162461bcd60e51b815291820152601160248201527010995b1bddc81b5a5b9a5b5d5b4818995d607a1b6044820152606490fd5b50915162461bcd60e51b815291820152600c60248201526b13585c9ad95d08195b99195960a21b6044820152606490fd5b50829034610599576020366003190112610599573590600382101561096f575060011b6008816007015491015482519182526020820152f35b50823461096f57602036600319011261096f5781359160038310610e2681611909565b15610e4657505060011b6008816007015491015482519182526020820152f35b634e487b7160e01b825260329052602490fd5b50823461096f57602036600319011261096f5750610e7790356117d6565b82519182526020820152f35b5050346105995781600319360112610599576020906006549051908152f35b50346105445782600319360112610544575490516001600160a01b03909116815260209150f35b50346105445781600319360112610544578160209360ff92610ee9611320565b90358252600286528282206001600160a01b039091168252855220549151911615158152f35b50503461059957816003193601126105995760055490516001600160a01b039091168152602090f35b50903461054457602036600319011261054457600791610f6260018060a01b03825416331461179d565b3583528260205282200160028154610f8060ff82166107888161148e565b60ff191617905580f35b83823461059957602036600319011261059957610fa5611305565b610fba60018060a01b0380935416331461179d565b16610fc681151561194a565b6bffffffffffffffffffffffff60a01b600554161760055580f35b5050346105995781600319360112610599576020905166038d7ea4c680008152f35b509034610544576020908160031936011261086e578235808552848352600260ff60078488200154166110358161148e565b036111245780855260028352818520338652835261105960ff8387205416156116ef565b80855260018352818520338652835261107e8286206003600282015491015490611536565b9081156110ed578580809381938252600287528582203383528752858220600160ff19825416179055335af16110b261176d565b50156110bc578380f35b5162461bcd60e51b815291820152600d60248201526c1499599d5b990819985a5b1959609a1b604482015260649150fd5b50505162461bcd60e51b8152918201526011602482015270139bdd1a1a5b99c81d1bc81c99599d5b99607a1b604482015260649150fd5b505162461bcd60e51b815291820152601460248201527313585c9ad95d081b9bdd0818d85b98d95b1b195960621b604482015260649150fd5b50903461054457826003193601126105445781546001600160a01b031661118533821461179d565b6006549081156111e257848080938193826006555af16111a361176d565b50156111ad578280f35b906020606492519162461bcd60e51b8352820152600f60248201526e15da5d1a191c985dc819985a5b1959608a1b6044820152fd5b825162461bcd60e51b815260208186015260076024820152664e6f206665657360c81b6044820152606490fd5b50346105445760603660031901126105445760443592831515840361096f5750602092611240916024359035611871565b9051908152f35b5050346105995781600319360112610599576020905160c88152f35b5091903461059957606036600319011261059957823561128d60018060a01b03855416331461179d565b600381109061129b82611909565b8251928084019084821067ffffffffffffffff8311176112f25752602435835260208301916044358352156112df579060089160011b925183600701555191015580f35b634e487b7160e01b845260328552602484fd5b634e487b7160e01b865260418752602486fd5b600435906001600160a01b038216820361131b57565b600080fd5b602435906001600160a01b038216820361131b57565b90600182811c92168015611366575b602083101461135057565b634e487b7160e01b600052602260045260246000fd5b91607f1691611345565b90601f8019910116810190811067ffffffffffffffff82111761139257604052565b634e487b7160e01b600052604160045260246000fd5b90604051918260008254926113bc84611336565b90818452600194858116908160001461142b57506001146113e8575b50506113e692500383611370565b565b9093915060005260209081600020936000915b8183106114135750506113e6935082010138806113d8565b855488840185015294850194879450918301916113fb565b9150506113e694506020925060ff191682840152151560051b82010138806113d8565b919082519283825260005b84811061147a575050826000602080949584010152601f8019910116010190565b602081830181015184830182015201611459565b6003111561149857565b634e487b7160e01b600052602160045260246000fd5b67ffffffffffffffff811161139257601f01601f191660200190565b81601f8201121561131b578035906114e1826114ae565b926114ef6040519485611370565b8284526020838301011161131b57816000926020809301838601378301015290565b60001981146115205760010190565b634e487b7160e01b600052601160045260246000fd5b9190820180921161152057565b1561154a57565b60405162461bcd60e51b81526020600482015260116024820152704d61726b6574206e6f742061637469766560781b6044820152606490fd5b8181029291811591840414171561152057565b81156115a0570490565b634e487b7160e01b600052601260045260246000fd5b9190820391821161152057565b8060005260006020526040600020600a81019081549060ff8260a01c1661165c5761161361160e6115fd6003840154600485015490611536565b9260096002820154910154906115b6565b611662565b111561161e57505050565b60ff60a01b1916600160a01b179055604051600181527fd1f7278cdb0c7a91dfd7a4fad8a8724490ba2ecace8d2cdb726c0a15d62e358e90602090a2565b50505050565b60005b60038110611675575050600c5490565b8060011b8060070154831115611694575061168f90611511565b611665565b6008015492915050565b91908215806116e7575b6116e1576116b69082611583565b670de0b6b3a76400008301809311611520576116de926116d591611596565b60011c90611536565b90565b50905090565b5080156116a8565b156116f657565b60405162461bcd60e51b815260206004820152600f60248201526e105b1c9958591e4818db185a5b5959608a1b6044820152606490fd5b1561173457565b60405162461bcd60e51b81526020600482015260116024820152704e6f2077696e6e696e672073686172657360781b6044820152606490fd5b3d15611798573d9061177e826114ae565b9161178c6040519384611370565b82523d6000602084013e565b606090565b156117a457565b60405162461bcd60e51b815260206004820152600a60248201526927b7363c9037bbb732b960b11b6044820152606490fd5b90600091825281602052604082209160046003840154930154926117fa8482611536565b918215611864576127109182810290808204841490151715611850578361182091611596565b9482810292818404149015171561183c5750906116de91611596565b634e487b7160e01b81526011600452602490fd5b634e487b7160e01b82526011600452602482fd5b5050509050611388908190565b600052600060205260406000209060c881029080820460c81481151715611520576127106118a09204906115b6565b60038201546004830154906118be836118b98484611536565b611536565b94156118f1576005936118dc6118ec946116de97946118e69461169e565b9485910154611536565b92611583565b611596565b6006936118dc6118ec946118e6936116de989561169e565b1561191057565b60405162461bcd60e51b8152602060048201526012602482015271092dcecc2d8d2c840e8d2cae440d2dcc8caf60731b6044820152606490fd5b1561195157565b60405162461bcd60e51b815260206004820152600f60248201526e496e76616c6964206164647265737360881b6044820152606490fdfea2646970667358221220972850b9f85b99ca42ebfd743aa42a0778da24207bc4b16e051746fd4c2e831c64736f6c63430008140033","opcodes":"PUSH1 0x80 PUSH1 0x40 MSTORE CALLVALUE PUSH2 0xA5 JUMPI PUSH1 0x1 DUP1 PUSH1 0xA0 SHL SUB NOT CALLER DUP2 PUSH1 0x4 SLOAD AND OR PUSH1 0x4 SSTORE CALLER SWAP1 PUSH1 0x5 SLOAD AND OR PUSH1 0x5 SSTORE PUSH1 0x20 PUSH2 0x2F PUSH2 0xAA JUMP JUMPDEST PUSH3 0x93A80 SWAP1 DUP2 DUP2 MSTORE PUSH8 0x4563918244F40000 SWAP3 DUP4 SWAP2 ADD MSTORE PUSH1 0x7 SSTORE PUSH1 0x8 SSTORE PUSH1 0x20 PUSH2 0x55 PUSH2 0xAA JUMP JUMPDEST PUSH3 0x278D00 SWAP1 DUP2 DUP2 MSTORE PUSH8 0xDE0B6B3A7640000 SWAP3 DUP4 SWAP2 ADD MSTORE PUSH1 0x9 SSTORE PUSH1 0xA SSTORE PUSH1 0x20 PUSH2 0x7B PUSH2 0xAA JUMP JUMPDEST PUSH1 0x0 NOT SWAP1 DUP2 DUP2 MSTORE PUSH8 0x6F05B59D3B20000 SWAP3 DUP4 SWAP2 ADD MSTORE PUSH1 0xB SSTORE PUSH1 0xC SSTORE PUSH1 0x40 MLOAD PUSH2 0x19BE SWAP1 DUP2 PUSH2 0xE0 DUP3 CODECOPY RETURN JUMPDEST PUSH1 0x0 DUP1 REVERT JUMPDEST PUSH1 0x40 DUP1 MLOAD SWAP2 SWAP1 DUP3 ADD PUSH1 0x1 PUSH1 0x1 PUSH1 0x40 SHL SUB DUP2 GT DUP4 DUP3 LT OR PUSH2 0xC9 JUMPI PUSH1 0x40 MSTORE JUMP JUMPDEST PUSH4 0x4E487B71 PUSH1 0xE0 SHL PUSH1 0x0 MSTORE PUSH1 0x41 PUSH1 0x4 MSTORE PUSH1 0x24 PUSH1 0x0 REVERT INVALID PUSH1 0x40 PUSH1 0x80 DUP2 MSTORE PUSH1 0x4 SWAP1 DUP2 CALLDATASIZE LT ISZERO PUSH2 0x20 JUMPI JUMPDEST POP POP CALLDATASIZE ISZERO PUSH2 0x1E JUMPI PUSH1 0x0 DUP1 REVERT JUMPDEST STOP JUMPDEST PUSH1 0x0 SWAP2 DUP3 CALLDATALOAD PUSH1 0xE0 SHR DUP1 PUSH4 0x1EB66A8 EQ PUSH2 0x1263 JUMPI DUP1 PUSH4 0x34FBC9A1 EQ PUSH2 0x1247 JUMPI DUP1 PUSH4 0x39160719 EQ PUSH2 0x120F JUMPI DUP1 PUSH4 0x476343EE EQ PUSH2 0x115D JUMPI DUP1 PUSH4 0x5B7BAF64 EQ PUSH2 0x1003 JUMPI DUP1 PUSH4 0x6540742F EQ PUSH2 0xFE1 JUMPI DUP1 PUSH4 0x7ADBF973 EQ PUSH2 0xF8A JUMPI DUP1 PUSH4 0x7C16CD9E EQ PUSH2 0xF38 JUMPI DUP1 PUSH4 0x7DC0D1D0 EQ PUSH2 0xF0F JUMPI DUP1 PUSH4 0x873F6F9E EQ PUSH2 0xEC9 JUMPI DUP1 PUSH4 0x8DA5CB5B EQ PUSH2 0xEA2 JUMPI DUP1 PUSH4 0x9003ADFE EQ PUSH2 0xE83 JUMPI DUP1 PUSH4 0x91492956 EQ PUSH2 0xE59 JUMPI DUP1 PUSH4 0x95B563A4 EQ PUSH2 0xE03 JUMPI DUP1 PUSH4 0x96A4FB8E EQ PUSH2 0xDCA JUMPI DUP1 PUSH4 0x9ED9C74D EQ PUSH2 0xB7C JUMPI DUP1 PUSH4 0xAE169A50 EQ PUSH2 0x972 JUMPI DUP1 PUSH4 0xB1283E77 EQ PUSH2 0x872 JUMPI DUP1 PUSH4 0xD29F541D EQ PUSH2 0x68F JUMPI DUP1 PUSH4 0xD5220B62 EQ PUSH2 0x720 JUMPI DUP1 PUSH4 0xE1F1C4A7 EQ PUSH2 0x703 JUMPI DUP1 PUSH4 0xE684D718 EQ PUSH2 0x68F JUMPI DUP1 PUSH4 0xEB44FDD3 EQ PUSH2 0x5BC JUMPI DUP1 PUSH4 0xEC979082 EQ PUSH2 0x59D JUMPI DUP1 PUSH4 0xF2FDE38B EQ PUSH2 0x548 JUMPI PUSH4 0xF98B7783 EQ PUSH2 0x14B JUMPI POP PUSH2 0x11 JUMP JUMPDEST CALLVALUE PUSH2 0x544 JUMPI PUSH1 0x60 CALLDATASIZE PUSH1 0x3 NOT ADD SLT PUSH2 0x544 JUMPI PUSH8 0xFFFFFFFFFFFFFFFF SWAP2 DUP2 CALLDATALOAD DUP4 DUP2 GT PUSH2 0x540 JUMPI PUSH2 0x17C SWAP1 CALLDATASIZE SWAP1 DUP5 ADD PUSH2 0x14CA JUMP JUMPDEST PUSH1 0x24 CALLDATALOAD DUP5 DUP2 GT PUSH2 0x53C JUMPI PUSH2 0x193 SWAP1 CALLDATASIZE SWAP1 DUP6 ADD PUSH2 0x14CA JUMP JUMPDEST SWAP5 PUSH1 0x44 CALLDATALOAD SWAP1 DUP2 ISZERO PUSH2 0x4F9 JUMPI DUP3 MLOAD ISZERO PUSH2 0x4C2 JUMPI PUSH1 0x3 SWAP2 DUP3 SLOAD SWAP6 PUSH2 0x1B4 DUP8 PUSH2 0x1511 JUMP JUMPDEST DUP5 SSTORE DUP7 DUP4 MSTORE PUSH1 0x20 SWAP8 DUP4 DUP10 MSTORE DUP7 DUP5 KECCAK256 SWAP5 DUP7 MLOAD DUP3 DUP2 GT PUSH2 0x4AF JUMPI PUSH2 0x1D6 DUP8 SLOAD PUSH2 0x1336 JUMP JUMPDEST SWAP1 DUP12 PUSH1 0x1F SWAP3 DUP4 DUP2 GT PUSH2 0x46D JUMPI JUMPDEST POP POP DUP1 DUP13 DUP4 DUP3 GT PUSH1 0x1 EQ PUSH2 0x40B JUMPI DUP9 SWAP2 PUSH2 0x400 JUMPI JUMPDEST POP DUP2 PUSH1 0x1 SHL SWAP2 PUSH1 0x0 NOT SWAP1 DUP6 SHL SHR NOT AND OR DUP8 SSTORE JUMPDEST PUSH1 0x1 SWAP1 DUP2 DUP9 ADD SWAP5 DUP14 MLOAD SWAP5 DUP6 GT PUSH2 0x3ED JUMPI POP PUSH2 0x226 DUP6 SLOAD PUSH2 0x1336 JUMP JUMPDEST DUP2 DUP2 GT PUSH2 0x3AD JUMPI JUMPDEST POP DUP11 SWAP12 SWAP13 DUP8 SWAP12 SWAP11 SWAP12 POP DUP14 DUP1 SWAP3 DUP7 GT PUSH1 0x1 EQ PUSH2 0x2FB JUMPI POP SWAP4 DUP1 PUSH2 0x296 SWAP5 DUP2 PUSH2 0x2DE SWAP12 SWAP10 SWAP6 DUP12 SWAP10 SWAP6 PUSH1 0xA SWAP10 PUSH32 0xCF1703A582C2D33ACA5304D8715A8032F0DB94E24A996A016453B343EA02D26B SWAP16 SWAP14 SWAP6 PUSH2 0x2F0 JUMPI JUMPDEST POP POP SHL SWAP3 PUSH1 0x0 NOT SWAP2 SHL SHR NOT AND OR SWAP1 SSTORE JUMPDEST TIMESTAMP PUSH2 0x1536 JUMP JUMPDEST PUSH1 0x2 DUP5 ADD DUP2 SWAP1 SSTORE PUSH1 0x7 DUP5 ADD DUP1 SLOAD PUSH2 0xFFFF NOT AND SWAP1 SSTORE TIMESTAMP PUSH1 0x9 DUP6 ADD SSTORE SWAP3 ADD DUP1 SLOAD PUSH1 0x1 PUSH1 0x1 PUSH1 0xA8 SHL SUB NOT AND CALLER PUSH1 0xFF PUSH1 0xA0 SHL NOT AND OR SWAP1 SSTORE DUP7 MLOAD PUSH1 0x60 DUP1 DUP3 MSTORE SWAP1 SWAP5 DUP6 SWAP5 SWAP1 SWAP2 DUP6 ADD SWAP1 PUSH2 0x144E JUMP JUMPDEST SWAP2 DUP10 DUP5 ADD MSTORE DUP7 DUP4 ADD MSTORE SUB SWAP1 LOG2 MLOAD SWAP1 DUP2 MSTORE RETURN JUMPDEST ADD MLOAD SWAP4 POP CODESIZE DUP1 PUSH2 0x280 JUMP JUMPDEST SWAP3 SWAP5 SWAP4 SWAP2 SWAP1 PUSH1 0x1F NOT DUP6 AND DUP8 DUP11 MSTORE DUP5 DUP11 KECCAK256 SWAP5 DUP11 SWAP1 JUMPDEST DUP3 DUP3 LT PUSH2 0x37C JUMPI POP POP SWAP4 PUSH32 0xCF1703A582C2D33ACA5304D8715A8032F0DB94E24A996A016453B343EA02D26B SWAP12 SWAP10 SWAP8 SWAP4 PUSH1 0xA SWAP8 SWAP4 DUP8 SWAP4 PUSH2 0x296 SWAP9 PUSH2 0x2DE SWAP15 SWAP13 SWAP9 LT PUSH2 0x362 JUMPI JUMPDEST POP POP POP POP DUP2 SHL ADD SWAP1 SSTORE PUSH2 0x290 JUMP JUMPDEST ADD MLOAD SWAP1 PUSH1 0xF8 DUP5 PUSH1 0x0 NOT SWAP3 SHL AND SHR NOT AND SWAP1 SSTORE CODESIZE DUP1 DUP1 DUP1 PUSH2 0x354 JUMP JUMPDEST DUP9 DUP6 SWAP9 SWAP10 SWAP11 SWAP12 SWAP13 SWAP14 SWAP15 SWAP16 POP DUP2 SWAP4 SWAP5 SWAP6 SWAP8 DUP3 SWAP4 SWAP8 SWAP9 DUP8 ADD MLOAD DUP2 SSTORE ADD SWAP8 ADD SWAP5 ADD DUP16 SWAP14 SWAP13 SWAP12 SWAP11 SWAP10 SWAP9 SWAP8 SWAP7 SWAP6 SWAP5 SWAP4 SWAP3 SWAP2 PUSH2 0x30F JUMP JUMPDEST DUP6 DUP9 MSTORE DUP13 DUP9 KECCAK256 DUP6 DUP4 ADD PUSH1 0x5 SHR DUP2 ADD SWAP2 DUP4 SWAP1 DUP16 DUP9 LT PUSH2 0x3E4 JUMPI JUMPDEST ADD PUSH1 0x5 SHR ADD SWAP1 JUMPDEST DUP2 DUP2 LT PUSH2 0x3DA JUMPI POP PUSH2 0x22E JUMP JUMPDEST DUP9 DUP2 SSTORE DUP4 ADD PUSH2 0x3CD JUMP JUMPDEST SWAP3 POP DUP2 SWAP3 PUSH2 0x3C6 JUMP JUMPDEST PUSH4 0x4E487B71 PUSH1 0xE0 SHL DUP9 MSTORE PUSH1 0x41 SWAP1 MSTORE PUSH1 0x24 DUP8 REVERT JUMPDEST SWAP1 POP DUP10 ADD MLOAD CODESIZE PUSH2 0x1F8 JUMP JUMPDEST DUP10 DUP10 MSTORE DUP14 DUP10 KECCAK256 SWAP2 POP PUSH1 0x1F NOT DUP4 AND DUP10 DUP16 JUMPDEST DUP14 DUP4 DUP4 LT PUSH2 0x457 JUMPI POP POP POP SWAP1 DUP4 PUSH1 0x1 SWAP5 SWAP4 SWAP3 LT PUSH2 0x43F JUMPI JUMPDEST POP POP DUP2 SHL ADD DUP8 SSTORE PUSH2 0x20B JUMP JUMPDEST DUP12 ADD MLOAD PUSH1 0x0 NOT DUP4 DUP8 SHL PUSH1 0xF8 AND SHR NOT AND SWAP1 SSTORE CODESIZE DUP1 PUSH2 0x433 JUMP JUMPDEST DUP5 ADD MLOAD DUP6 SSTORE PUSH1 0x1 SWAP1 SWAP5 ADD SWAP4 SWAP3 DUP4 ADD SWAP3 ADD DUP16 PUSH2 0x41B JUMP JUMPDEST DUP10 DUP10 MSTORE DUP4 DUP3 DUP11 KECCAK256 SWAP2 DUP2 DUP6 ADD PUSH1 0x5 SHR DUP4 ADD SWAP4 DUP6 LT PUSH2 0x4A6 JUMPI JUMPDEST ADD PUSH1 0x5 SHR ADD SWAP1 JUMPDEST DUP2 DUP2 LT PUSH2 0x49B JUMPI DUP14 SWAP2 POP PUSH2 0x1E3 JUMP JUMPDEST DUP9 DUP2 SSTORE PUSH1 0x1 ADD PUSH2 0x48C JUMP JUMPDEST SWAP3 POP DUP2 SWAP3 PUSH2 0x485 JUMP JUMPDEST PUSH4 0x4E487B71 PUSH1 0xE0 SHL DUP7 MSTORE PUSH1 0x41 DUP5 MSTORE PUSH1 0x24 DUP7 REVERT JUMPDEST DUP4 MLOAD PUSH3 0x461BCD PUSH1 0xE5 SHL DUP2 MSTORE PUSH1 0x20 DUP2 DUP8 ADD MSTORE PUSH1 0x11 PUSH1 0x24 DUP3 ADD MSTORE PUSH17 0x145D595CDD1A5BDB881C995C5D5A5C9959 PUSH1 0x7A SHL PUSH1 0x44 DUP3 ADD MSTORE PUSH1 0x64 SWAP1 REVERT JUMPDEST DUP4 MLOAD PUSH3 0x461BCD PUSH1 0xE5 SHL DUP2 MSTORE PUSH1 0x20 DUP2 DUP8 ADD MSTORE PUSH1 0x19 PUSH1 0x24 DUP3 ADD MSTORE PUSH32 0x4475726174696F6E206D75737420626520706F73697469766500000000000000 PUSH1 0x44 DUP3 ADD MSTORE PUSH1 0x64 SWAP1 REVERT JUMPDEST DUP6 DUP1 REVERT JUMPDEST DUP5 DUP1 REVERT JUMPDEST DUP3 DUP1 REVERT JUMPDEST DUP4 DUP3 CALLVALUE PUSH2 0x599 JUMPI PUSH1 0x20 CALLDATASIZE PUSH1 0x3 NOT ADD SLT PUSH2 0x599 JUMPI PUSH2 0x563 PUSH2 0x1305 JUMP JUMPDEST DUP2 SLOAD SWAP1 PUSH1 0x1 PUSH1 0x1 PUSH1 0xA0 SHL SUB SWAP1 PUSH2 0x57C CALLER DUP4 DUP6 AND EQ PUSH2 0x179D JUMP JUMPDEST AND SWAP1 PUSH2 0x589 DUP3 ISZERO ISZERO PUSH2 0x194A JUMP JUMPDEST PUSH1 0x1 PUSH1 0x1 PUSH1 0xA0 SHL SUB NOT AND OR SWAP1 SSTORE DUP1 RETURN JUMPDEST POP DUP1 REVERT JUMPDEST POP POP CALLVALUE PUSH2 0x599 JUMPI DUP2 PUSH1 0x3 NOT CALLDATASIZE ADD SLT PUSH2 0x599 JUMPI PUSH1 0x20 SWAP1 PUSH1 0x3 SLOAD SWAP1 MLOAD SWAP1 DUP2 MSTORE RETURN JUMPDEST POP SWAP1 CALLVALUE PUSH2 0x544 JUMPI PUSH1 0x20 CALLDATASIZE PUSH1 0x3 NOT ADD SLT PUSH2 0x544 JUMPI PUSH1 0xFF DUP2 PUSH2 0x63C SWAP5 DUP5 CALLDATALOAD DUP2 MSTORE DUP1 PUSH1 0x20 MSTORE KECCAK256 DUP1 SWAP4 PUSH1 0x2 DUP3 ADD SLOAD SWAP1 PUSH1 0x3 DUP4 ADD SLOAD SWAP1 DUP4 ADD SLOAD PUSH1 0x5 DUP5 ADD SLOAD PUSH1 0x6 DUP6 ADD SLOAD SWAP2 PUSH1 0x7 DUP7 ADD SLOAD SWAP4 DUP8 DUP1 DUP7 AND SWAP6 PUSH1 0x8 SHR AND SWAP6 PUSH2 0x64A PUSH2 0x628 PUSH1 0x1 PUSH2 0x621 PUSH1 0xA DUP13 ADD SLOAD SWAP12 PUSH2 0x13A8 JUMP JUMPDEST SWAP14 ADD PUSH2 0x13A8 JUMP JUMPDEST DUP12 MLOAD SWAP14 DUP15 SWAP14 DUP15 PUSH2 0x140 SWAP1 DUP2 DUP2 MSTORE ADD SWAP1 PUSH2 0x144E JUMP JUMPDEST DUP14 DUP2 SUB PUSH1 0x20 DUP16 ADD MSTORE SWAP1 PUSH2 0x144E JUMP JUMPDEST SWAP10 DUP12 ADD MSTORE PUSH1 0x60 DUP11 ADD MSTORE PUSH1 0x80 DUP10 ADD MSTORE PUSH1 0xA0 DUP9 ADD MSTORE PUSH1 0xC0 DUP8 ADD MSTORE PUSH2 0x66B DUP2 PUSH2 0x148E JUMP JUMPDEST PUSH1 0xE0 DUP7 ADD MSTORE PUSH2 0x679 DUP2 PUSH2 0x148E JUMP JUMPDEST PUSH2 0x100 DUP6 ADD MSTORE PUSH1 0xA0 SHR AND ISZERO ISZERO PUSH2 0x120 DUP4 ADD MSTORE SUB SWAP1 RETURN JUMPDEST POP CALLVALUE PUSH2 0x544 JUMPI DUP2 PUSH1 0x3 NOT CALLDATASIZE ADD SLT PUSH2 0x544 JUMPI SWAP2 DUP2 SWAP3 PUSH2 0x6AB PUSH2 0x1320 JUMP JUMPDEST SWAP1 CALLDATALOAD DUP3 MSTORE PUSH1 0x1 PUSH1 0x20 MSTORE DUP3 DUP3 KECCAK256 SWAP1 PUSH1 0x1 DUP1 PUSH1 0xA0 SHL SUB AND DUP3 MSTORE PUSH1 0x20 MSTORE KECCAK256 SWAP1 PUSH2 0x6FF DUP3 SLOAD SWAP2 PUSH1 0x1 DUP5 ADD SLOAD SWAP4 PUSH1 0x3 PUSH1 0x2 DUP3 ADD SLOAD SWAP2 ADD SLOAD SWAP2 MLOAD SWAP5 DUP6 SWAP5 DUP6 SWAP1 SWAP5 SWAP4 SWAP3 PUSH1 0x60 SWAP3 PUSH1 0x80 DUP4 ADD SWAP7 DUP4 MSTORE PUSH1 0x20 DUP4 ADD MSTORE PUSH1 0x40 DUP3 ADD MSTORE ADD MSTORE JUMP JUMPDEST SUB SWAP1 RETURN JUMPDEST POP POP CALLVALUE PUSH2 0x599 JUMPI DUP2 PUSH1 0x3 NOT CALLDATASIZE ADD SLT PUSH2 0x599 JUMPI PUSH1 0x20 SWAP1 MLOAD PUSH2 0x2710 DUP2 MSTORE RETURN JUMPDEST POP SWAP2 SWAP1 CALLVALUE PUSH2 0x599 JUMPI PUSH1 0x60 CALLDATASIZE PUSH1 0x3 NOT ADD SLT PUSH2 0x599 JUMPI DUP3 CALLDATALOAD SWAP1 PUSH1 0x24 CALLDATALOAD PUSH1 0x3 DUP2 LT ISZERO PUSH2 0x86E JUMPI PUSH1 0x5 SLOAD PUSH1 0x44 CALLDATALOAD SWAP1 CALLER PUSH1 0x1 PUSH1 0x1 PUSH1 0xA0 SHL SUB SWAP2 DUP3 AND EQ SWAP1 DUP2 ISZERO PUSH2 0x861 JUMPI JUMPDEST POP ISZERO PUSH2 0x830 JUMPI DUP4 DUP6 MSTORE DUP5 PUSH1 0x20 MSTORE DUP3 DUP6 KECCAK256 SWAP6 PUSH1 0x7 DUP8 ADD SWAP1 DUP2 SLOAD SWAP1 PUSH2 0x78E PUSH1 0xFF DUP4 AND PUSH2 0x788 DUP2 PUSH2 0x148E JUMP JUMPDEST ISZERO PUSH2 0x1543 JUMP JUMPDEST PUSH2 0x797 DUP6 PUSH2 0x148E JUMP JUMPDEST DUP5 ISZERO PUSH2 0x7FB JUMPI POP PUSH32 0x3369929723E45F72D9BA8EA5E21EACE474887D4E706445AD162994EF978709A8 SWAP6 SWAP7 SWAP8 DUP4 SWAP3 PUSH1 0x1 PUSH1 0x8 SWAP4 PUSH2 0x7D2 DUP9 PUSH2 0x148E JUMP JUMPDEST PUSH2 0xFFFF NOT AND DUP8 DUP6 SHL PUSH2 0xFF00 AND OR OR SWAP1 SSTORE ADD SSTORE DUP3 MLOAD SWAP2 PUSH2 0x7F0 DUP2 PUSH2 0x148E JUMP JUMPDEST DUP3 MSTORE PUSH1 0x20 DUP3 ADD MSTORE LOG2 DUP1 RETURN JUMPDEST PUSH1 0x64 SWAP1 PUSH1 0x20 DUP8 MLOAD SWAP2 PUSH3 0x461BCD PUSH1 0xE5 SHL DUP4 MSTORE DUP3 ADD MSTORE PUSH1 0xF PUSH1 0x24 DUP3 ADD MSTORE PUSH15 0x496E76616C6964206F7574636F6D65 PUSH1 0x88 SHL PUSH1 0x44 DUP3 ADD MSTORE REVERT JUMPDEST DUP3 MLOAD PUSH3 0x461BCD PUSH1 0xE5 SHL DUP2 MSTORE PUSH1 0x20 DUP2 DUP9 ADD MSTORE PUSH1 0xB PUSH1 0x24 DUP3 ADD MSTORE PUSH11 0x4F6E6C79206F7261636C65 PUSH1 0xA8 SHL PUSH1 0x44 DUP3 ADD MSTORE PUSH1 0x64 SWAP1 REVERT JUMPDEST SWAP1 POP DUP7 SLOAD AND CALLER EQ CODESIZE PUSH2 0x75F JUMP JUMPDEST DUP4 DUP1 REVERT JUMPDEST POP DUP3 CALLVALUE PUSH2 0x96F JUMPI PUSH1 0x20 CALLDATASIZE PUSH1 0x3 NOT ADD SLT PUSH2 0x96F JUMPI DUP3 SWAP1 DUP3 CALLDATALOAD DUP2 MSTORE DUP1 PUSH1 0x20 MSTORE KECCAK256 SWAP2 PUSH2 0x89A DUP4 PUSH2 0x13A8 JUMP JUMPDEST SWAP2 PUSH2 0x8A7 PUSH1 0x1 DUP6 ADD PUSH2 0x13A8 JUMP JUMPDEST SWAP4 PUSH1 0x2 DUP2 ADD SLOAD SWAP2 PUSH1 0x3 DUP3 ADD SLOAD SWAP1 DUP3 ADD SLOAD PUSH1 0x5 DUP4 ADD SLOAD PUSH1 0x6 DUP5 ADD SLOAD PUSH1 0x7 DUP6 ADD SLOAD SWAP2 PUSH1 0xFF DUP4 AND SWAP3 PUSH1 0x8 SHR PUSH1 0xFF AND SWAP4 PUSH1 0x8 DUP8 ADD SLOAD SWAP6 PUSH1 0x9 DUP9 ADD SLOAD SWAP8 PUSH1 0xA ADD SLOAD SWAP9 DUP11 MLOAD SWAP13 DUP14 SWAP13 DUP14 PUSH2 0x1A0 SWAP1 DUP2 DUP2 MSTORE ADD PUSH2 0x8FB SWAP2 PUSH2 0x144E JUMP JUMPDEST DUP14 DUP2 SUB PUSH1 0x20 DUP16 ADD MSTORE PUSH2 0x90C SWAP2 PUSH2 0x144E JUMP JUMPDEST SWAP11 DUP13 ADD MSTORE PUSH1 0x60 DUP12 ADD MSTORE PUSH1 0x80 DUP11 ADD MSTORE PUSH1 0xA0 DUP10 ADD MSTORE PUSH1 0xC0 DUP9 ADD MSTORE PUSH2 0x92D DUP2 PUSH2 0x148E JUMP JUMPDEST PUSH1 0xE0 DUP8 ADD MSTORE PUSH2 0x93B DUP2 PUSH2 0x148E JUMP JUMPDEST PUSH2 0x100 DUP7 ADD MSTORE PUSH2 0x120 DUP6 ADD MSTORE PUSH2 0x140 DUP5 ADD MSTORE PUSH1 0x1 PUSH1 0x1 PUSH1 0xA0 SHL SUB DUP2 AND PUSH2 0x160 DUP5 ADD MSTORE PUSH1 0xA0 SHR PUSH1 0xFF AND ISZERO ISZERO PUSH2 0x180 DUP4 ADD MSTORE SUB SWAP1 RETURN JUMPDEST DUP1 REVERT JUMPDEST POP SWAP1 CALLVALUE PUSH2 0x544 JUMPI PUSH1 0x20 DUP1 PUSH1 0x3 NOT CALLDATASIZE ADD SLT PUSH2 0x86E JUMPI DUP3 CALLDATALOAD SWAP2 DUP3 DUP6 MSTORE DUP5 DUP3 MSTORE DUP1 DUP6 KECCAK256 PUSH1 0x7 DUP2 ADD SLOAD PUSH1 0x1 PUSH1 0xFF DUP3 AND PUSH2 0x9A6 DUP2 PUSH2 0x148E JUMP JUMPDEST SUB PUSH2 0xB43 JUMPI DUP5 DUP8 MSTORE PUSH1 0x2 DUP5 MSTORE DUP3 DUP8 KECCAK256 CALLER DUP9 MSTORE DUP5 MSTORE PUSH2 0x9CA PUSH1 0xFF DUP5 DUP10 KECCAK256 SLOAD AND ISZERO PUSH2 0x16EF JUMP JUMPDEST DUP5 DUP8 MSTORE PUSH1 0x1 DUP5 MSTORE DUP3 DUP8 KECCAK256 CALLER DUP9 MSTORE DUP5 MSTORE DUP3 DUP8 KECCAK256 DUP8 PUSH1 0xFF PUSH2 0x9F1 PUSH1 0x3 DUP7 ADD SLOAD DUP11 DUP8 ADD SLOAD SWAP1 PUSH2 0x1536 JUMP JUMPDEST SWAP4 PUSH1 0x8 SHR AND PUSH2 0x9FF DUP2 PUSH2 0x148E JUMP JUMPDEST PUSH1 0x1 DUP2 SUB PUSH2 0xAFE JUMPI POP POP PUSH2 0xA25 PUSH2 0xA2E SWAP4 SWAP3 PUSH1 0x5 SWAP3 SLOAD PUSH2 0xA20 DUP2 ISZERO ISZERO PUSH2 0x172D JUMP JUMPDEST PUSH2 0x1583 JUMP JUMPDEST SWAP2 ADD SLOAD SWAP1 PUSH2 0x1596 JUMP JUMPDEST SWAP4 JUMPDEST DUP5 ISZERO PUSH2 0xACA JUMPI DUP4 DUP7 MSTORE PUSH1 0x2 DUP4 MSTORE DUP2 DUP7 KECCAK256 CALLER DUP8 MSTORE DUP4 MSTORE DUP2 DUP7 KECCAK256 PUSH1 0x1 PUSH1 0xFF NOT DUP3 SLOAD AND OR SWAP1 SSTORE DUP6 DUP1 DUP1 DUP1 DUP9 CALLER GAS CALL PUSH2 0xA63 PUSH2 0x176D JUMP JUMPDEST POP ISZERO PUSH2 0xA97 JUMPI POP SWAP1 PUSH32 0x24B5EFA61DD1CFC659205A97FB8ED868F3CB8C81922BAB2B96423E5DE1DE2CB7 SWAP2 MLOAD SWAP4 DUP5 MSTORE CALLER SWAP4 LOG3 DUP1 RETURN JUMPDEST DUP3 PUSH1 0x64 SWAP3 MLOAD SWAP2 PUSH3 0x461BCD PUSH1 0xE5 SHL DUP4 MSTORE DUP3 ADD MSTORE PUSH1 0xF PUSH1 0x24 DUP3 ADD MSTORE PUSH15 0x151C985B9CD9995C8819985A5B1959 PUSH1 0x8A SHL PUSH1 0x44 DUP3 ADD MSTORE REVERT JUMPDEST DUP3 PUSH1 0x64 SWAP3 MLOAD SWAP2 PUSH3 0x461BCD PUSH1 0xE5 SHL DUP4 MSTORE DUP3 ADD MSTORE PUSH1 0x10 PUSH1 0x24 DUP3 ADD MSTORE PUSH16 0x4E6F7468696E6720746F20636C61696D PUSH1 0x80 SHL PUSH1 0x44 DUP3 ADD MSTORE REVERT JUMPDEST DUP1 PUSH2 0xB10 PUSH1 0x2 SWAP3 SWAP11 SWAP7 SWAP6 SWAP5 SWAP4 SWAP11 PUSH2 0x148E JUMP JUMPDEST EQ PUSH2 0xB1E JUMPI JUMPDEST POP POP POP PUSH2 0xA30 JUMP JUMPDEST PUSH2 0xB3A SWAP4 SWAP8 POP PUSH1 0x6 SWAP2 PUSH1 0x1 PUSH2 0xA25 SWAP3 ADD SLOAD PUSH2 0xA20 DUP2 ISZERO ISZERO PUSH2 0x172D JUMP JUMPDEST SWAP4 CODESIZE DUP1 DUP1 PUSH2 0xB16 JUMP JUMPDEST DUP3 MLOAD PUSH3 0x461BCD PUSH1 0xE5 SHL DUP2 MSTORE DUP1 DUP8 ADD DUP6 SWAP1 MSTORE PUSH1 0x13 PUSH1 0x24 DUP3 ADD MSTORE PUSH19 0x13585C9AD95D081B9BDD081C995CDBDB1D9959 PUSH1 0x6A SHL PUSH1 0x44 DUP3 ADD MSTORE PUSH1 0x64 SWAP1 REVERT JUMPDEST POP SWAP1 DUP1 PUSH1 0x3 NOT CALLDATASIZE ADD SLT PUSH2 0x544 JUMPI DUP2 CALLDATALOAD SWAP1 PUSH1 0x24 CALLDATALOAD SWAP1 DUP2 ISZERO ISZERO SWAP4 DUP5 DUP4 SUB PUSH2 0x53C JUMPI DUP4 DUP7 MSTORE PUSH1 0x20 SWAP1 DUP7 DUP3 MSTORE DUP3 DUP8 KECCAK256 PUSH2 0xBBB PUSH1 0xFF PUSH1 0x7 DUP4 ADD SLOAD AND PUSH2 0x788 DUP2 PUSH2 0x148E JUMP JUMPDEST PUSH1 0x2 DUP2 ADD SLOAD TIMESTAMP LT ISZERO PUSH2 0xD99 JUMPI PUSH7 0x38D7EA4C68000 CALLVALUE LT PUSH2 0xD63 JUMPI PUSH1 0xC8 CALLVALUE MUL CALLVALUE DUP2 DIV PUSH1 0xC8 EQ CALLVALUE ISZERO OR ISZERO PUSH2 0xD50 JUMPI PUSH2 0x2710 SWAP1 DIV PUSH2 0xC02 PUSH2 0xBF9 DUP3 CALLVALUE PUSH2 0x15B6 JUMP JUMPDEST SWAP2 PUSH1 0x6 SLOAD PUSH2 0x1536 JUMP JUMPDEST PUSH1 0x6 SSTORE DUP6 ISZERO PUSH2 0xD43 JUMPI PUSH2 0xC25 DUP2 PUSH1 0x3 DUP5 ADD SLOAD JUMPDEST DUP9 ISZERO PUSH2 0xD38 JUMPI DUP6 DUP6 ADD SLOAD SWAP1 PUSH2 0x169E JUMP JUMPDEST SWAP6 ISZERO PUSH2 0xCCF JUMPI PUSH1 0x5 SWAP3 POP PUSH2 0xC3E PUSH1 0x3 DUP4 ADD SWAP2 DUP3 SLOAD PUSH2 0x1536 JUMP JUMPDEST SWAP1 SSTORE ADD PUSH2 0xC4C DUP5 DUP3 SLOAD PUSH2 0x1536 JUMP JUMPDEST SWAP1 SSTORE DUP4 DUP7 MSTORE PUSH1 0x1 DUP2 MSTORE DUP2 DUP7 KECCAK256 CALLER DUP8 MSTORE DUP2 MSTORE DUP2 DUP7 KECCAK256 PUSH2 0xC6B DUP5 DUP3 SLOAD PUSH2 0x1536 JUMP JUMPDEST SWAP1 SSTORE DUP4 DUP7 MSTORE PUSH1 0x1 DUP2 MSTORE DUP2 DUP7 KECCAK256 CALLER DUP8 MSTORE DUP2 MSTORE PUSH1 0x2 DUP3 DUP8 KECCAK256 ADD PUSH2 0xC8D CALLVALUE DUP3 SLOAD PUSH2 0x1536 JUMP JUMPDEST SWAP1 SSTORE JUMPDEST PUSH2 0xC99 DUP5 PUSH2 0x15C3 JUMP JUMPDEST DUP2 MLOAD SWAP5 DUP6 MSTORE CALLVALUE SWAP1 DUP6 ADD MSTORE DUP4 ADD MSTORE PUSH32 0x52772507CB516FC74EC2A0C1CF45C731D4E9EB90979B956F47CAF17C42086880 PUSH1 0x60 CALLER SWAP4 LOG3 DUP1 RETURN JUMPDEST PUSH2 0xCDF PUSH1 0x6 SWAP4 DUP4 ADD SWAP2 DUP3 SLOAD PUSH2 0x1536 JUMP JUMPDEST SWAP1 SSTORE ADD PUSH2 0xCED DUP5 DUP3 SLOAD PUSH2 0x1536 JUMP JUMPDEST SWAP1 SSTORE DUP4 DUP7 MSTORE PUSH1 0x1 DUP2 MSTORE DUP2 DUP7 KECCAK256 CALLER DUP8 MSTORE DUP2 MSTORE PUSH1 0x1 DUP3 DUP8 KECCAK256 ADD PUSH2 0xD0F DUP5 DUP3 SLOAD PUSH2 0x1536 JUMP JUMPDEST SWAP1 SSTORE DUP4 DUP7 MSTORE PUSH1 0x1 DUP2 MSTORE DUP2 DUP7 KECCAK256 CALLER DUP8 MSTORE DUP2 MSTORE PUSH1 0x3 DUP3 DUP8 KECCAK256 ADD PUSH2 0xD31 CALLVALUE DUP3 SLOAD PUSH2 0x1536 JUMP JUMPDEST SWAP1 SSTORE PUSH2 0xC90 JUMP JUMPDEST PUSH1 0x3 DUP6 ADD SLOAD SWAP1 PUSH2 0x169E JUMP JUMPDEST PUSH2 0xC25 DUP2 DUP5 DUP5 ADD SLOAD PUSH2 0xC15 JUMP JUMPDEST PUSH4 0x4E487B71 PUSH1 0xE0 SHL DUP10 MSTORE PUSH1 0x11 DUP4 MSTORE PUSH1 0x24 DUP10 REVERT JUMPDEST POP SWAP2 MLOAD PUSH3 0x461BCD PUSH1 0xE5 SHL DUP2 MSTORE SWAP2 DUP3 ADD MSTORE PUSH1 0x11 PUSH1 0x24 DUP3 ADD MSTORE PUSH17 0x10995B1BDDC81B5A5B9A5B5D5B4818995D PUSH1 0x7A SHL PUSH1 0x44 DUP3 ADD MSTORE PUSH1 0x64 SWAP1 REVERT JUMPDEST POP SWAP2 MLOAD PUSH3 0x461BCD PUSH1 0xE5 SHL DUP2 MSTORE SWAP2 DUP3 ADD MSTORE PUSH1 0xC PUSH1 0x24 DUP3 ADD MSTORE PUSH12 0x13585C9AD95D08195B991959 PUSH1 0xA2 SHL PUSH1 0x44 DUP3 ADD MSTORE PUSH1 0x64 SWAP1 REVERT JUMPDEST POP DUP3 SWAP1 CALLVALUE PUSH2 0x599 JUMPI PUSH1 0x20 CALLDATASIZE PUSH1 0x3 NOT ADD SLT PUSH2 0x599 JUMPI CALLDATALOAD SWAP1 PUSH1 0x3 DUP3 LT ISZERO PUSH2 0x96F JUMPI POP PUSH1 0x1 SHL PUSH1 0x8 DUP2 PUSH1 0x7 ADD SLOAD SWAP2 ADD SLOAD DUP3 MLOAD SWAP2 DUP3 MSTORE PUSH1 0x20 DUP3 ADD MSTORE RETURN JUMPDEST POP DUP3 CALLVALUE PUSH2 0x96F JUMPI PUSH1 0x20 CALLDATASIZE PUSH1 0x3 NOT ADD SLT PUSH2 0x96F JUMPI DUP2 CALLDATALOAD SWAP2 PUSH1 0x3 DUP4 LT PUSH2 0xE26 DUP2 PUSH2 0x1909 JUMP JUMPDEST ISZERO PUSH2 0xE46 JUMPI POP POP PUSH1 0x1 SHL PUSH1 0x8 DUP2 PUSH1 0x7 ADD SLOAD SWAP2 ADD SLOAD DUP3 MLOAD SWAP2 DUP3 MSTORE PUSH1 0x20 DUP3 ADD MSTORE RETURN JUMPDEST PUSH4 0x4E487B71 PUSH1 0xE0 SHL DUP3 MSTORE PUSH1 0x32 SWAP1 MSTORE PUSH1 0x24 SWAP1 REVERT JUMPDEST POP DUP3 CALLVALUE PUSH2 0x96F JUMPI PUSH1 0x20 CALLDATASIZE PUSH1 0x3 NOT ADD SLT PUSH2 0x96F JUMPI POP PUSH2 0xE77 SWAP1 CALLDATALOAD PUSH2 0x17D6 JUMP JUMPDEST DUP3 MLOAD SWAP2 DUP3 MSTORE PUSH1 0x20 DUP3 ADD MSTORE RETURN JUMPDEST POP POP CALLVALUE PUSH2 0x599 JUMPI DUP2 PUSH1 0x3 NOT CALLDATASIZE ADD SLT PUSH2 0x599 JUMPI PUSH1 0x20 SWAP1 PUSH1 0x6 SLOAD SWAP1 MLOAD SWAP1 DUP2 MSTORE RETURN JUMPDEST POP CALLVALUE PUSH2 0x544 JUMPI DUP3 PUSH1 0x3 NOT CALLDATASIZE ADD SLT PUSH2 0x544 JUMPI SLOAD SWAP1 MLOAD PUSH1 0x1 PUSH1 0x1 PUSH1 0xA0 SHL SUB SWAP1 SWAP2 AND DUP2 MSTORE PUSH1 0x20 SWAP2 POP RETURN JUMPDEST POP CALLVALUE PUSH2 0x544 JUMPI DUP2 PUSH1 0x3 NOT CALLDATASIZE ADD SLT PUSH2 0x544 JUMPI DUP2 PUSH1 0x20 SWAP4 PUSH1 0xFF SWAP3 PUSH2 0xEE9 PUSH2 0x1320 JUMP JUMPDEST SWAP1 CALLDATALOAD DUP3 MSTORE PUSH1 0x2 DUP7 MSTORE DUP3 DUP3 KECCAK256 PUSH1 0x1 PUSH1 0x1 PUSH1 0xA0 SHL SUB SWAP1 SWAP2 AND DUP3 MSTORE DUP6 MSTORE KECCAK256 SLOAD SWAP2 MLOAD SWAP2 AND ISZERO ISZERO DUP2 MSTORE RETURN JUMPDEST POP POP CALLVALUE PUSH2 0x599 JUMPI DUP2 PUSH1 0x3 NOT CALLDATASIZE ADD SLT PUSH2 0x599 JUMPI PUSH1 0x5 SLOAD SWAP1 MLOAD PUSH1 0x1 PUSH1 0x1 PUSH1 0xA0 SHL SUB SWAP1 SWAP2 AND DUP2 MSTORE PUSH1 0x20 SWAP1 RETURN JUMPDEST POP SWAP1 CALLVALUE PUSH2 0x544 JUMPI PUSH1 0x20 CALLDATASIZE PUSH1 0x3 NOT ADD SLT PUSH2 0x544 JUMPI PUSH1 0x7 SWAP2 PUSH2 0xF62 PUSH1 0x1 DUP1 PUSH1 0xA0 SHL SUB DUP3 SLOAD AND CALLER EQ PUSH2 0x179D JUMP JUMPDEST CALLDATALOAD DUP4 MSTORE DUP3 PUSH1 0x20 MSTORE DUP3 KECCAK256 ADD PUSH1 0x2 DUP2 SLOAD PUSH2 0xF80 PUSH1 0xFF DUP3 AND PUSH2 0x788 DUP2 PUSH2 0x148E JUMP JUMPDEST PUSH1 0xFF NOT AND OR SWAP1 SSTORE DUP1 RETURN JUMPDEST DUP4 DUP3 CALLVALUE PUSH2 0x599 JUMPI PUSH1 0x20 CALLDATASIZE PUSH1 0x3 NOT ADD SLT PUSH2 0x599 JUMPI PUSH2 0xFA5 PUSH2 0x1305 JUMP JUMPDEST PUSH2 0xFBA PUSH1 0x1 DUP1 PUSH1 0xA0 SHL SUB DUP1 SWAP4 SLOAD AND CALLER EQ PUSH2 0x179D JUMP JUMPDEST AND PUSH2 0xFC6 DUP2 ISZERO ISZERO PUSH2 0x194A JUMP JUMPDEST PUSH12 0xFFFFFFFFFFFFFFFFFFFFFFFF PUSH1 0xA0 SHL PUSH1 0x5 SLOAD AND OR PUSH1 0x5 SSTORE DUP1 RETURN JUMPDEST POP POP CALLVALUE PUSH2 0x599 JUMPI DUP2 PUSH1 0x3 NOT CALLDATASIZE ADD SLT PUSH2 0x599 JUMPI PUSH1 0x20 SWAP1 MLOAD PUSH7 0x38D7EA4C68000 DUP2 MSTORE RETURN JUMPDEST POP SWAP1 CALLVALUE PUSH2 0x544 JUMPI PUSH1 0x20 SWAP1 DUP2 PUSH1 0x3 NOT CALLDATASIZE ADD SLT PUSH2 0x86E JUMPI DUP3 CALLDATALOAD DUP1 DUP6 MSTORE DUP5 DUP4 MSTORE PUSH1 0x2 PUSH1 0xFF PUSH1 0x7 DUP5 DUP9 KECCAK256 ADD SLOAD AND PUSH2 0x1035 DUP2 PUSH2 0x148E JUMP JUMPDEST SUB PUSH2 0x1124 JUMPI DUP1 DUP6 MSTORE PUSH1 0x2 DUP4 MSTORE DUP2 DUP6 KECCAK256 CALLER DUP7 MSTORE DUP4 MSTORE PUSH2 0x1059 PUSH1 0xFF DUP4 DUP8 KECCAK256 SLOAD AND ISZERO PUSH2 0x16EF JUMP JUMPDEST DUP1 DUP6 MSTORE PUSH1 0x1 DUP4 MSTORE DUP2 DUP6 KECCAK256 CALLER DUP7 MSTORE DUP4 MSTORE PUSH2 0x107E DUP3 DUP7 KECCAK256 PUSH1 0x3 PUSH1 0x2 DUP3 ADD SLOAD SWAP2 ADD SLOAD SWAP1 PUSH2 0x1536 JUMP JUMPDEST SWAP1 DUP2 ISZERO PUSH2 0x10ED JUMPI DUP6 DUP1 DUP1 SWAP4 DUP2 SWAP4 DUP3 MSTORE PUSH1 0x2 DUP8 MSTORE DUP6 DUP3 KECCAK256 CALLER DUP4 MSTORE DUP8 MSTORE DUP6 DUP3 KECCAK256 PUSH1 0x1 PUSH1 0xFF NOT DUP3 SLOAD AND OR SWAP1 SSTORE CALLER GAS CALL PUSH2 0x10B2 PUSH2 0x176D JUMP JUMPDEST POP ISZERO PUSH2 0x10BC JUMPI DUP4 DUP1 RETURN JUMPDEST MLOAD PUSH3 0x461BCD PUSH1 0xE5 SHL DUP2 MSTORE SWAP2 DUP3 ADD MSTORE PUSH1 0xD PUSH1 0x24 DUP3 ADD MSTORE PUSH13 0x1499599D5B990819985A5B1959 PUSH1 0x9A SHL PUSH1 0x44 DUP3 ADD MSTORE PUSH1 0x64 SWAP2 POP REVERT JUMPDEST POP POP MLOAD PUSH3 0x461BCD PUSH1 0xE5 SHL DUP2 MSTORE SWAP2 DUP3 ADD MSTORE PUSH1 0x11 PUSH1 0x24 DUP3 ADD MSTORE PUSH17 0x139BDD1A1A5B99C81D1BC81C99599D5B99 PUSH1 0x7A SHL PUSH1 0x44 DUP3 ADD MSTORE PUSH1 0x64 SWAP2 POP REVERT JUMPDEST POP MLOAD PUSH3 0x461BCD PUSH1 0xE5 SHL DUP2 MSTORE SWAP2 DUP3 ADD MSTORE PUSH1 0x14 PUSH1 0x24 DUP3 ADD MSTORE PUSH20 0x13585C9AD95D081B9BDD0818D85B98D95B1B1959 PUSH1 0x62 SHL PUSH1 0x44 DUP3 ADD MSTORE PUSH1 0x64 SWAP2 POP REVERT JUMPDEST POP SWAP1 CALLVALUE PUSH2 0x544 JUMPI DUP3 PUSH1 0x3 NOT CALLDATASIZE ADD SLT PUSH2 0x544 JUMPI DUP2 SLOAD PUSH1 0x1 PUSH1 0x1 PUSH1 0xA0 SHL SUB AND PUSH2 0x1185 CALLER DUP3 EQ PUSH2 0x179D JUMP JUMPDEST PUSH1 0x6 SLOAD SWAP1 DUP2 ISZERO PUSH2 0x11E2 JUMPI DUP5 DUP1 DUP1 SWAP4 DUP2 SWAP4 DUP3 PUSH1 0x6 SSTORE GAS CALL PUSH2 0x11A3 PUSH2 0x176D JUMP JUMPDEST POP ISZERO PUSH2 0x11AD JUMPI DUP3 DUP1 RETURN JUMPDEST SWAP1 PUSH1 0x20 PUSH1 0x64 SWAP3 MLOAD SWAP2 PUSH3 0x461BCD PUSH1 0xE5 SHL DUP4 MSTORE DUP3 ADD MSTORE PUSH1 0xF PUSH1 0x24 DUP3 ADD MSTORE PUSH15 0x15DA5D1A191C985DC819985A5B1959 PUSH1 0x8A SHL PUSH1 0x44 DUP3 ADD MSTORE REVERT JUMPDEST DUP3 MLOAD PUSH3 0x461BCD PUSH1 0xE5 SHL DUP2 MSTORE PUSH1 0x20 DUP2 DUP7 ADD MSTORE PUSH1 0x7 PUSH1 0x24 DUP3 ADD MSTORE PUSH7 0x4E6F2066656573 PUSH1 0xC8 SHL PUSH1 0x44 DUP3 ADD MSTORE PUSH1 0x64 SWAP1 REVERT JUMPDEST POP CALLVALUE PUSH2 0x544 JUMPI PUSH1 0x60 CALLDATASIZE PUSH1 0x3 NOT ADD SLT PUSH2 0x544 JUMPI PUSH1 0x44 CALLDATALOAD SWAP3 DUP4 ISZERO ISZERO DUP5 SUB PUSH2 0x96F JUMPI POP PUSH1 0x20 SWAP3 PUSH2 0x1240 SWAP2 PUSH1 0x24 CALLDATALOAD SWAP1 CALLDATALOAD PUSH2 0x1871 JUMP JUMPDEST SWAP1 MLOAD SWAP1 DUP2 MSTORE RETURN JUMPDEST POP POP CALLVALUE PUSH2 0x599 JUMPI DUP2 PUSH1 0x3 NOT CALLDATASIZE ADD SLT PUSH2 0x599 JUMPI PUSH1 0x20 SWAP1 MLOAD PUSH1 0xC8 DUP2 MSTORE RETURN JUMPDEST POP SWAP2 SWAP1 CALLVALUE PUSH2 0x599 JUMPI PUSH1 0x60 CALLDATASIZE PUSH1 0x3 NOT ADD SLT PUSH2 0x599 JUMPI DUP3 CALLDATALOAD PUSH2 0x128D PUSH1 0x1 DUP1 PUSH1 0xA0 SHL SUB DUP6 SLOAD AND CALLER EQ PUSH2 0x179D JUMP JUMPDEST PUSH1 0x3 DUP2 LT SWAP1 PUSH2 0x129B DUP3 PUSH2 0x1909 JUMP JUMPDEST DUP3 MLOAD SWAP3 DUP1 DUP5 ADD SWAP1 DUP5 DUP3 LT PUSH8 0xFFFFFFFFFFFFFFFF DUP4 GT OR PUSH2 0x12F2 JUMPI MSTORE PUSH1 0x24 CALLDATALOAD DUP4 MSTORE PUSH1 0x20 DUP4 ADD SWAP2 PUSH1 0x44 CALLDATALOAD DUP4 MSTORE ISZERO PUSH2 0x12DF JUMPI SWAP1 PUSH1 0x8 SWAP2 PUSH1 0x1 SHL SWAP3 MLOAD DUP4 PUSH1 0x7 ADD SSTORE MLOAD SWAP2 ADD SSTORE DUP1 RETURN JUMPDEST PUSH4 0x4E487B71 PUSH1 0xE0 SHL DUP5 MSTORE PUSH1 0x32 DUP6 MSTORE PUSH1 0x24 DUP5 REVERT JUMPDEST PUSH4 0x4E487B71 PUSH1 0xE0 SHL DUP7 MSTORE PUSH1 0x41 DUP8 MSTORE PUSH1 0x24 DUP7 REVERT JUMPDEST PUSH1 0x4 CALLDATALOAD SWAP1 PUSH1 0x1 PUSH1 0x1 PUSH1 0xA0 SHL SUB DUP3 AND DUP3 SUB PUSH2 0x131B JUMPI JUMP JUMPDEST PUSH1 0x0 DUP1 REVERT JUMPDEST PUSH1 0x24 CALLDATALOAD SWAP1 PUSH1 0x1 PUSH1 0x1 PUSH1 0xA0 SHL SUB DUP3 AND DUP3 SUB PUSH2 0x131B JUMPI JUMP JUMPDEST SWAP1 PUSH1 0x1 DUP3 DUP2 SHR SWAP3 AND DUP1 ISZERO PUSH2 0x1366 JUMPI JUMPDEST PUSH1 0x20 DUP4 LT EQ PUSH2 0x1350 JUMPI JUMP JUMPDEST PUSH4 0x4E487B71 PUSH1 0xE0 SHL PUSH1 0x0 MSTORE PUSH1 0x22 PUSH1 0x4 MSTORE PUSH1 0x24 PUSH1 0x0 REVERT JUMPDEST SWAP2 PUSH1 0x7F AND SWAP2 PUSH2 0x1345 JUMP JUMPDEST SWAP1 PUSH1 0x1F DUP1 NOT SWAP2 ADD AND DUP2 ADD SWAP1 DUP2 LT PUSH8 0xFFFFFFFFFFFFFFFF DUP3 GT OR PUSH2 0x1392 JUMPI PUSH1 0x40 MSTORE JUMP JUMPDEST PUSH4 0x4E487B71 PUSH1 0xE0 SHL PUSH1 0x0 MSTORE PUSH1 0x41 PUSH1 0x4 MSTORE PUSH1 0x24 PUSH1 0x0 REVERT JUMPDEST SWAP1 PUSH1 0x40 MLOAD SWAP2 DUP3 PUSH1 0x0 DUP3 SLOAD SWAP3 PUSH2 0x13BC DUP5 PUSH2 0x1336 JUMP JUMPDEST SWAP1 DUP2 DUP5 MSTORE PUSH1 0x1 SWAP5 DUP6 DUP2 AND SWAP1 DUP2 PUSH1 0x0 EQ PUSH2 0x142B JUMPI POP PUSH1 0x1 EQ PUSH2 0x13E8 JUMPI JUMPDEST POP POP PUSH2 0x13E6 SWAP3 POP SUB DUP4 PUSH2 0x1370 JUMP JUMPDEST JUMP JUMPDEST SWAP1 SWAP4 SWAP2 POP PUSH1 0x0 MSTORE PUSH1 0x20 SWAP1 DUP2 PUSH1 0x0 KECCAK256 SWAP4 PUSH1 0x0 SWAP2 JUMPDEST DUP2 DUP4 LT PUSH2 0x1413 JUMPI POP POP PUSH2 0x13E6 SWAP4 POP DUP3 ADD ADD CODESIZE DUP1 PUSH2 0x13D8 JUMP JUMPDEST DUP6 SLOAD DUP9 DUP5 ADD DUP6 ADD MSTORE SWAP5 DUP6 ADD SWAP5 DUP8 SWAP5 POP SWAP2 DUP4 ADD SWAP2 PUSH2 0x13FB JUMP JUMPDEST SWAP2 POP POP PUSH2 0x13E6 SWAP5 POP PUSH1 0x20 SWAP3 POP PUSH1 0xFF NOT AND DUP3 DUP5 ADD MSTORE ISZERO ISZERO PUSH1 0x5 SHL DUP3 ADD ADD CODESIZE DUP1 PUSH2 0x13D8 JUMP JUMPDEST SWAP2 SWAP1 DUP3 MLOAD SWAP3 DUP4 DUP3 MSTORE PUSH1 0x0 JUMPDEST DUP5 DUP2 LT PUSH2 0x147A JUMPI POP POP DUP3 PUSH1 0x0 PUSH1 0x20 DUP1 SWAP5 SWAP6 DUP5 ADD ADD MSTORE PUSH1 0x1F DUP1 NOT SWAP2 ADD AND ADD ADD SWAP1 JUMP JUMPDEST PUSH1 0x20 DUP2 DUP4 ADD DUP2 ADD MLOAD DUP5 DUP4 ADD DUP3 ADD MSTORE ADD PUSH2 0x1459 JUMP JUMPDEST PUSH1 0x3 GT ISZERO PUSH2 0x1498 JUMPI JUMP JUMPDEST PUSH4 0x4E487B71 PUSH1 0xE0 SHL PUSH1 0x0 MSTORE PUSH1 0x21 PUSH1 0x4 MSTORE PUSH1 0x24 PUSH1 0x0 REVERT JUMPDEST PUSH8 0xFFFFFFFFFFFFFFFF DUP2 GT PUSH2 0x1392 JUMPI PUSH1 0x1F ADD PUSH1 0x1F NOT AND PUSH1 0x20 ADD SWAP1 JUMP JUMPDEST DUP2 PUSH1 0x1F DUP3 ADD SLT ISZERO PUSH2 0x131B JUMPI DUP1 CALLDATALOAD SWAP1 PUSH2 0x14E1 DUP3 PUSH2 0x14AE JUMP JUMPDEST SWAP3 PUSH2 0x14EF PUSH1 0x40 MLOAD SWAP5 DUP6 PUSH2 0x1370 JUMP JUMPDEST DUP3 DUP5 MSTORE PUSH1 0x20 DUP4 DUP4 ADD ADD GT PUSH2 0x131B JUMPI DUP2 PUSH1 0x0 SWAP3 PUSH1 0x20 DUP1 SWAP4 ADD DUP4 DUP7 ADD CALLDATACOPY DUP4 ADD ADD MSTORE SWAP1 JUMP JUMPDEST PUSH1 0x0 NOT DUP2 EQ PUSH2 0x1520 JUMPI PUSH1 0x1 ADD SWAP1 JUMP JUMPDEST PUSH4 0x4E487B71 PUSH1 0xE0 SHL PUSH1 0x0 MSTORE PUSH1 0x11 PUSH1 0x4 MSTORE PUSH1 0x24 PUSH1 0x0 REVERT JUMPDEST SWAP2 SWAP1 DUP3 ADD DUP1 SWAP3 GT PUSH2 0x1520 JUMPI JUMP JUMPDEST ISZERO PUSH2 0x154A JUMPI JUMP JUMPDEST PUSH1 0x40 MLOAD PUSH3 0x461BCD PUSH1 0xE5 SHL DUP2 MSTORE PUSH1 0x20 PUSH1 0x4 DUP3 ADD MSTORE PUSH1 0x11 PUSH1 0x24 DUP3 ADD MSTORE PUSH17 0x4D61726B6574206E6F7420616374697665 PUSH1 0x78 SHL PUSH1 0x44 DUP3 ADD MSTORE PUSH1 0x64 SWAP1 REVERT JUMPDEST DUP2 DUP2 MUL SWAP3 SWAP2 DUP2 ISZERO SWAP2 DUP5 DIV EQ OR ISZERO PUSH2 0x1520 JUMPI JUMP JUMPDEST DUP2 ISZERO PUSH2 0x15A0 JUMPI DIV SWAP1 JUMP JUMPDEST PUSH4 0x4E487B71 PUSH1 0xE0 SHL PUSH1 0x0 MSTORE PUSH1 0x12 PUSH1 0x4 MSTORE PUSH1 0x24 PUSH1 0x0 REVERT JUMPDEST SWAP2 SWAP1 DUP3 SUB SWAP2 DUP3 GT PUSH2 0x1520 JUMPI JUMP JUMPDEST DUP1 PUSH1 0x0 MSTORE PUSH1 0x0 PUSH1 0x20 MSTORE PUSH1 0x40 PUSH1 0x0 KECCAK256 PUSH1 0xA DUP2 ADD SWAP1 DUP2 SLOAD SWAP1 PUSH1 0xFF DUP3 PUSH1 0xA0 SHR AND PUSH2 0x165C JUMPI PUSH2 0x1613 PUSH2 0x160E PUSH2 0x15FD PUSH1 0x3 DUP5 ADD SLOAD PUSH1 0x4 DUP6 ADD SLOAD SWAP1 PUSH2 0x1536 JUMP JUMPDEST SWAP3 PUSH1 0x9 PUSH1 0x2 DUP3 ADD SLOAD SWAP2 ADD SLOAD SWAP1 PUSH2 0x15B6 JUMP JUMPDEST PUSH2 0x1662 JUMP JUMPDEST GT ISZERO PUSH2 0x161E JUMPI POP POP POP JUMP JUMPDEST PUSH1 0xFF PUSH1 0xA0 SHL NOT AND PUSH1 0x1 PUSH1 0xA0 SHL OR SWAP1 SSTORE PUSH1 0x40 MLOAD PUSH1 0x1 DUP2 MSTORE PUSH32 0xD1F7278CDB0C7A91DFD7A4FAD8A8724490BA2ECACE8D2CDB726C0A15D62E358E SWAP1 PUSH1 0x20 SWAP1 LOG2 JUMP JUMPDEST POP POP POP POP JUMP JUMPDEST PUSH1 0x0 JUMPDEST PUSH1 0x3 DUP2 LT PUSH2 0x1675 JUMPI POP POP PUSH1 0xC SLOAD SWAP1 JUMP JUMPDEST DUP1 PUSH1 0x1 SHL DUP1 PUSH1 0x7 ADD SLOAD DUP4 GT ISZERO PUSH2 0x1694 JUMPI POP PUSH2 0x168F SWAP1 PUSH2 0x1511 JUMP JUMPDEST PUSH2 0x1665 JUMP JUMPDEST PUSH1 0x8 ADD SLOAD SWAP3 SWAP2 POP POP JUMP JUMPDEST SWAP2 SWAP1 DUP3 ISZERO DUP1 PUSH2 0x16E7 JUMPI JUMPDEST PUSH2 0x16E1 JUMPI PUSH2 0x16B6 SWAP1 DUP3 PUSH2 0x1583 JUMP JUMPDEST PUSH8 0xDE0B6B3A7640000 DUP4 ADD DUP1 SWAP4 GT PUSH2 0x1520 JUMPI PUSH2 0x16DE SWAP3 PUSH2 0x16D5 SWAP2 PUSH2 0x1596 JUMP JUMPDEST PUSH1 0x1 SHR SWAP1 PUSH2 0x1536 JUMP JUMPDEST SWAP1 JUMP JUMPDEST POP SWAP1 POP SWAP1 JUMP JUMPDEST POP DUP1 ISZERO PUSH2 0x16A8 JUMP JUMPDEST ISZERO PUSH2 0x16F6 JUMPI JUMP JUMPDEST PUSH1 0x40 MLOAD PUSH3 0x461BCD PUSH1 0xE5 SHL DUP2 MSTORE PUSH1 0x20 PUSH1 0x4 DUP3 ADD MSTORE PUSH1 0xF PUSH1 0x24 DUP3 ADD MSTORE PUSH15 0x105B1C9958591E4818DB185A5B5959 PUSH1 0x8A SHL PUSH1 0x44 DUP3 ADD MSTORE PUSH1 0x64 SWAP1 REVERT JUMPDEST ISZERO PUSH2 0x1734 JUMPI JUMP JUMPDEST PUSH1 0x40 MLOAD PUSH3 0x461BCD PUSH1 0xE5 SHL DUP2 MSTORE PUSH1 0x20 PUSH1 0x4 DUP3 ADD MSTORE PUSH1 0x11 PUSH1 0x24 DUP3 ADD MSTORE PUSH17 0x4E6F2077696E6E696E6720736861726573 PUSH1 0x78 SHL PUSH1 0x44 DUP3 ADD MSTORE PUSH1 0x64 SWAP1 REVERT JUMPDEST RETURNDATASIZE ISZERO PUSH2 0x1798 JUMPI RETURNDATASIZE SWAP1 PUSH2 0x177E DUP3 PUSH2 0x14AE JUMP JUMPDEST SWAP2 PUSH2 0x178C PUSH1 0x40 MLOAD SWAP4 DUP5 PUSH2 0x1370 JUMP JUMPDEST DUP3 MSTORE RETURNDATASIZE PUSH1 0x0 PUSH1 0x20 DUP5 ADD RETURNDATACOPY JUMP JUMPDEST PUSH1 0x60 SWAP1 JUMP JUMPDEST ISZERO PUSH2 0x17A4 JUMPI JUMP JUMPDEST PUSH1 0x40 MLOAD PUSH3 0x461BCD PUSH1 0xE5 SHL DUP2 MSTORE PUSH1 0x20 PUSH1 0x4 DUP3 ADD MSTORE PUSH1 0xA PUSH1 0x24 DUP3 ADD MSTORE PUSH10 0x27B7363C9037BBB732B9 PUSH1 0xB1 SHL PUSH1 0x44 DUP3 ADD MSTORE PUSH1 0x64 SWAP1 REVERT JUMPDEST SWAP1 PUSH1 0x0 SWAP2 DUP3 MSTORE DUP2 PUSH1 0x20 MSTORE PUSH1 0x40 DUP3 KECCAK256 SWAP2 PUSH1 0x4 PUSH1 0x3 DUP5 ADD SLOAD SWAP4 ADD SLOAD SWAP3 PUSH2 0x17FA DUP5 DUP3 PUSH2 0x1536 JUMP JUMPDEST SWAP2 DUP3 ISZERO PUSH2 0x1864 JUMPI PUSH2 0x2710 SWAP2 DUP3 DUP2 MUL SWAP1 DUP1 DUP3 DIV DUP5 EQ SWAP1 ISZERO OR ISZERO PUSH2 0x1850 JUMPI DUP4 PUSH2 0x1820 SWAP2 PUSH2 0x1596 JUMP JUMPDEST SWAP5 DUP3 DUP2 MUL SWAP3 DUP2 DUP5 DIV EQ SWAP1 ISZERO OR ISZERO PUSH2 0x183C JUMPI POP SWAP1 PUSH2 0x16DE SWAP2 PUSH2 0x1596 JUMP JUMPDEST PUSH4 0x4E487B71 PUSH1 0xE0 SHL DUP2 MSTORE PUSH1 0x11 PUSH1 0x4 MSTORE PUSH1 0x24 SWAP1 REVERT JUMPDEST PUSH4 0x4E487B71 PUSH1 0xE0 SHL DUP3 MSTORE PUSH1 0x11 PUSH1 0x4 MSTORE PUSH1 0x24 DUP3 REVERT JUMPDEST POP POP POP SWAP1 POP PUSH2 0x1388 SWAP1 DUP2 SWAP1 JUMP JUMPDEST PUSH1 0x0 MSTORE PUSH1 0x0 PUSH1 0x20 MSTORE PUSH1 0x40 PUSH1 0x0 KECCAK256 SWAP1 PUSH1 0xC8 DUP2 MUL SWAP1 DUP1 DUP3 DIV PUSH1 0xC8 EQ DUP2 ISZERO OR ISZERO PUSH2 0x1520 JUMPI PUSH2 0x2710 PUSH2 0x18A0 SWAP3 DIV SWAP1 PUSH2 0x15B6 JUMP JUMPDEST PUSH1 0x3 DUP3 ADD SLOAD PUSH1 0x4 DUP4 ADD SLOAD SWAP1 PUSH2 0x18BE DUP4 PUSH2 0x18B9 DUP5 DUP5 PUSH2 0x1536 JUMP JUMPDEST PUSH2 0x1536 JUMP JUMPDEST SWAP5 ISZERO PUSH2 0x18F1 JUMPI PUSH1 0x5 SWAP4 PUSH2 0x18DC PUSH2 0x18EC SWAP5 PUSH2 0x16DE SWAP8 SWAP5 PUSH2 0x18E6 SWAP5 PUSH2 0x169E JUMP JUMPDEST SWAP5 DUP6 SWAP2 ADD SLOAD PUSH2 0x1536 JUMP JUMPDEST SWAP3 PUSH2 0x1583 JUMP JUMPDEST PUSH2 0x1596 JUMP JUMPDEST PUSH1 0x6 SWAP4 PUSH2 0x18DC PUSH2 0x18EC SWAP5 PUSH2 0x18E6 SWAP4 PUSH2 0x16DE SWAP9 SWAP6 PUSH2 0x169E JUMP JUMPDEST ISZERO PUSH2 0x1910 JUMPI JUMP JUMPDEST PUSH1 0x40 MLOAD PUSH3 0x461BCD PUSH1 0xE5 SHL DUP2 MSTORE PUSH1 0x20 PUSH1 0x4 DUP3 ADD MSTORE PUSH1 0x12 PUSH1 0x24 DUP3 ADD MSTORE PUSH18 0x92DCECC2D8D2C840E8D2CAE440D2DCC8CAF PUSH1 0x73 SHL PUSH1 0x44 DUP3 ADD MSTORE PUSH1 0x64 SWAP1 REVERT JUMPDEST ISZERO PUSH2 0x1951 JUMPI JUMP JUMPDEST PUSH1 0x40 MLOAD PUSH3 0x461BCD PUSH1 0xE5 SHL DUP2 MSTORE PUSH1 0x20 PUSH1 0x4 DUP3 ADD MSTORE PUSH1 0xF PUSH1 0x24 DUP3 ADD MSTORE PUSH15 0x496E76616C69642061646472657373 PUSH1 0x88 SHL PUSH1 0x44 DUP3 ADD MSTORE PUSH1 0x64 SWAP1 REVERT INVALID LOG2 PUSH5 0x6970667358 0x22 SLT KECCAK256 SWAP8 0x28 POP 0xB9 0xF8 JUMPDEST SWAP10 0xCA TIMESTAMP 0xEB REVERT PUSH21 0x3AA42A0778DA24207BC4B16E051746FD4C2E831C64 PUSH20 0x6F6C634300081400330000000000000000000000 "},"methodIdentifiers":{"BASIS_POINTS()":"e1f1c4a7","MIN_BET()":"6540742f","PLATFORM_FEE()":"34fbc9a1","calculatePotentialPayout(uint256,uint256,bool)":"39160719","cancelMarket(uint256)":"7c16cd9e","claimRefund(uint256)":"5b7baf64","claimReward(uint256)":"ae169a50","collectedFees()":"9003adfe","createMarket(string,string,uint256)":"f98b7783","getMarket(uint256)":"eb44fdd3","getPosition(uint256,address)":"d29f541d","getPrices(uint256)":"91492956","getYieldTier(uint256)":"95b563a4","hasClaimed(uint256,address)":"873f6f9e","marketCount()":"ec979082","markets(uint256)":"b1283e77","oracle()":"7dc0d1d0","owner()":"8da5cb5b","placeBet(uint256,bool)":"9ed9c74d","positions(uint256,address)":"e684d718","resolveMarket(uint256,uint8,bytes32)":"d5220b62","setOracle(address)":"7adbf973","transferOwnership(address)":"f2fde38b","updateYieldTier(uint256,uint256,uint256)":"01eb66a8","withdrawFees()":"476343ee","yieldTiers(uint256)":"96a4fb8e"}}}}}