{"contracts/TruthArena.sol":{"TruthArena":{"abi":[{"inputs":[],"stateMutability":"nonpayable","type":"constructor"},{"anonymous":false,"inputs":[{"indexed":true,"internalType":"uint256","name":"marketId","type":"uint256"},{"indexed":true,"internalType":"address","name":"user","type":"address"},{"indexed":false,"internalType":"bool","name":"prediction","type":"bool"},{"indexed":false,"internalType":"uint256","name":"amount","type":"uint256"},{"indexed":false,"internalType":"uint256","name":"shares","type":"uint256"}],"name":"BetPlaced","type":"event"},{"anonymous":false,"inputs":[{"indexed":true,"internalType":"uint256","name":"marketId","type":"uint256"}],"name":"MarketCancelled","type":"event"},{"anonymous":false,"inputs":[{"indexed":true,"internalType":"uint256","name":"marketId","type":"uint256"},{"indexed":false,"internalType":"string","name":"question","type":"string"},{"indexed":false,"internalType":"uint256","name":"endTime","type":"uint256"},{"indexed":true,"internalType":"address","name":"creator","type":"address"}],"name":"MarketCreated","type":"event"},{"anonymous":false,"inputs":[{"indexed":true,"internalType":"uint256","name":"marketId","type":"uint256"},{"indexed":false,"internalType":"enum TruthArena.Outcome","name":"outcome","type":"uint8"},{"indexed":false,"internalType":"bytes32","name":"txHash","type":"bytes32"}],"name":"MarketResolved","type":"event"},{"anonymous":false,"inputs":[{"indexed":true,"internalType":"uint256","name":"marketId","type":"uint256"},{"indexed":true,"internalType":"address","name":"user","type":"address"},{"indexed":false,"internalType":"uint256","name":"amount","type":"uint256"}],"name":"RewardClaimed","type":"event"},{"inputs":[],"name":"BASIS_POINTS","outputs":[{"internalType":"uint256","name":"","type":"uint256"}],"stateMutability":"view","type":"function"},{"inputs":[],"name":"MIN_BET","outputs":[{"internalType":"uint256","name":"","type":"uint256"}],"stateMutability":"view","type":"function"},{"inputs":[],"name":"PLATFORM_FEE","outputs":[{"internalType":"uint256","name":"","type":"uint256"}],"stateMutability":"view","type":"function"},{"inputs":[{"internalType":"uint256","name":"_marketId","type":"uint256"},{"internalType":"uint256","name":"_amount","type":"uint256"},{"internalType":"bool","name":"_isYes","type":"bool"}],"name":"calculatePotentialPayout","outputs":[{"internalType":"uint256","name":"","type":"uint256"}],"stateMutability":"view","type":"function"},{"inputs":[{"internalType":"uint256","name":"_marketId","type":"uint256"}],"name":"cancelMarket","outputs":[],"stateMutability":"nonpayable","type":"function"},{"inputs":[{"internalType":"uint256","name":"_marketId","type":"uint256"}],"name":"claimRefund","outputs":[],"stateMutability":"nonpayable","type":"function"},{"inputs":[{"internalType":"uint256","name":"_marketId","type":"uint256"}],"name":"claimReward","outputs":[],"stateMutability":"nonpayable","type":"function"},{"inputs":[],"name":"collectedFees","outputs":[{"internalType":"uint256","name":"","type":"uint256"}],"stateMutability":"view","type":"function"},{"inputs":[{"internalType":"string","name":"_question","type":"string"},{"internalType":"string","name":"_description","type":"string"},{"internalType":"uint256","name":"_duration","type":"uint256"}],"name":"createMarket","outputs":[{"internalType":"uint256","name":"","type":"uint256"}],"stateMutability":"nonpayable","type":"function"},{"inputs":[{"internalType":"uint256","name":"_marketId","type":"uint256"}],"name":"getMarket","outputs":[{"internalType":"string","name":"question","type":"string"},{"internalType":"string","name":"description","type":"string"},{"internalType":"uint256","name":"endTime","type":"uint256"},{"internalType":"uint256","name":"yesPool","type":"uint256"},{"internalType":"uint256","name":"noPool","type":"uint256"},{"internalType":"uint256","name":"totalYesShares","type":"uint256"},{"internalType":"uint256","name":"totalNoShares","type":"uint256"},{"internalType":"enum TruthArena.MarketStatus","name":"status","type":"uint8"},{"internalType":"enum TruthArena.Outcome","name":"outcome","type":"uint8"},{"internalType":"bytes32","name":"verifiedTxHash","type":"bytes32"}],"stateMutability":"view","type":"function"},{"inputs":[{"internalType":"uint256","name":"_marketId","type":"uint256"},{"internalType":"address","name":"_user","type":"address"}],"name":"getPosition","outputs":[{"internalType":"uint256","name":"yesShares","type":"uint256"},{"internalType":"uint256","name":"noShares","type":"uint256"},{"internalType":"uint256","name":"yesCost","type":"uint256"},{"internalType":"uint256","name":"noCost","type":"uint256"}],"stateMutability":"view","type":"function"},{"inputs":[{"internalType":"uint256","name":"_marketId","type":"uint256"}],"name":"getPrices","outputs":[{"internalType":"uint256","name":"yesPrice","type":"uint256"},{"internalType":"uint256","name":"noPrice","type":"uint256"}],"stateMutability":"view","type":"function"},{"inputs":[{"internalType":"uint256","name":"","type":"uint256"},{"internalType":"address","name":"","type":"address"}],"name":"hasClaimed","outputs":[{"internalType":"bool","name":"","type":"bool"}],"stateMutability":"view","type":"function"},{"inputs":[],"name":"marketCount","outputs":[{"internalType":"uint256","name":"","type":"uint256"}],"stateMutability":"view","type":"function"},{"inputs":[{"internalType":"uint256","name":"","type":"uint256"}],"name":"markets","outputs":[{"internalType":"string","name":"question","type":"string"},{"internalType":"string","name":"description","type":"string"},{"internalType":"uint256","name":"endTime","type":"uint256"},{"internalType":"uint256","name":"yesPool","type":"uint256"},{"internalType":"uint256","name":"noPool","type":"uint256"},{"internalType":"uint256","name":"totalYesShares","type":"uint256"},{"internalType":"uint256","name":"totalNoShares","type":"uint256"},{"internalType":"enum TruthArena.MarketStatus","name":"status","type":"uint8"},{"internalType":"enum TruthArena.Outcome","name":"outcome","type":"uint8"},{"internalType":"bytes32","name":"verifiedTxHash","type":"bytes32"},{"internalType":"uint256","name":"createdAt","type":"uint256"},{"internalType":"address","name":"creator","type":"address"}],"stateMutability":"view","type":"function"},{"inputs":[],"name":"oracle","outputs":[{"internalType":"address","name":"","type":"address"}],"stateMutability":"view","type":"function"},{"inputs":[],"name":"owner","outputs":[{"internalType":"address","name":"","type":"address"}],"stateMutability":"view","type":"function"},{"inputs":[{"internalType":"uint256","name":"_marketId","type":"uint256"},{"internalType":"bool","name":"_prediction","type":"bool"}],"name":"placeBet","outputs":[],"stateMutability":"payable","type":"function"},{"inputs":[{"internalType":"uint256","name":"","type":"uint256"},{"internalType":"address","name":"","type":"address"}],"name":"positions","outputs":[{"internalType":"uint256","name":"yesShares","type":"uint256"},{"internalType":"uint256","name":"noShares","type":"uint256"},{"internalType":"uint256","name":"yesCost","type":"uint256"},{"internalType":"uint256","name":"noCost","type":"uint256"}],"stateMutability":"view","type":"function"},{"inputs":[{"internalType":"uint256","name":"_marketId","type":"uint256"},{"internalType":"enum TruthArena.Outcome","name":"_outcome","type":"uint8"},{"internalType":"bytes32","name":"_txHash","type":"bytes32"}],"name":"resolveMarket","outputs":[],"stateMutability":"nonpayable","type":"function"},{"inputs":[{"internalType":"address","name":"_oracle","type":"address"}],"name":"setOracle","outputs":[],"stateMutability":"nonpayable","type":"function"},{"inputs":[{"internalType":"address","name":"_newOwner","type":"address"}],"name":"transferOwnership","outputs":[],"stateMutability":"nonpayable","type":"function"},{"inputs":[],"name":"withdrawFees","outputs":[],"stateMutability":"nonpayable","type":"function"},{"stateMutability":"payable","type":"receive"}],"evm":{"bytecode":{"linkReferences":{},"object":"608080604052346100325760018060a01b0319338160045416176004553390600554161760055561176b90816100388239f35b600080fdfe608080604052600436101561001d575b50361561001b57600080fd5b005b60003560e01c90816334fbc9a1146111f45750806339160719146111be578063476343ee146110fd5780635b7baf6414610f8c5780636540742f14610f6a5780637adbf97314610f0e5780637c16cd9e14610e925780637dc0d1d014610e69578063873f6f9e14610e1c5780638da5cb5b14610df35780639003adfe14610dd55780639149295614610dab5780639ed9c74d14610b53578063ae169a5014610927578063b1283e7714610835578063d29f541d14610658578063d5220b62146106e2578063e1f1c4a7146106c5578063e684d71814610658578063eb44fdd314610588578063ec9790821461056a578063f2fde38b1461051a5763f98b778314610127573861000f565b346105155760603660031901126105155760043567ffffffffffffffff8111610515576101589036906004016113b8565b60243567ffffffffffffffff8111610515576101789036906004016113b8565b604435156104d057815115610497576003549060001982146104815760018201600355816000526000602052604060002090835167ffffffffffffffff81116103b5576101c5835461123a565b601f811161043d575b50806020601f82116001146103d6576000916103cb575b508160011b916000199060031b1c19161782555b60018201815167ffffffffffffffff81116103b557610218825461123a565b601f811161036d575b509484916020968794601f82116001146102e3577f57d0d124b72f81ed1da0dc728fc33db342705974792928796f6577b8db5c3d53949582916000926102d8575b50508160011b916000199060031b1c19161790555b600a610285604435426113ff565b6002860181905560078601805461ffff19169055426009870155940180546001600160a01b0319163317905560408051818152916102c59183019061133c565b93868201528033940390a3604051908152f35b015190503880610262565b601f1982169083600052896000209160005b8181106103535750968392916001947f57d0d124b72f81ed1da0dc728fc33db342705974792928796f6577b8db5c3d5398991061033a575b505050811b019055610277565b015160001960f88460031b161c1916905538808061032d565b828901518455978b01978a97506001909301928b016102f5565b826000526020600020601f830160051c810191602084106103ab575b601f0160051c01905b81811061039f5750610221565b60008155600101610392565b9091508190610389565b634e487b7160e01b600052604160045260246000fd5b9050850151386101e5565b91508360005260206000206000925b601f1983168410610425576001935082601f1981161061040c575b5050811b0182556101f9565b87015160001960f88460031b161c191690553880610400565b878101518255602093840193600190920191016103e5565b836000526020600020601f830160051c81016020841061047a575b601f830160051c8201811061046e5750506101ce565b60008155600101610458565b5080610458565b634e487b7160e01b600052601160045260246000fd5b60405162461bcd60e51b8152602060048201526011602482015270145d595cdd1a5bdb881c995c5d5a5c9959607a1b6044820152606490fd5b60405162461bcd60e51b815260206004820152601960248201527f4475726174696f6e206d75737420626520706f736974697665000000000000006044820152606490fd5b600080fd5b346105155760203660031901126105155761053361120e565b600454906001600160a01b039061054d338385161461158b565b169061055a8215156116f7565b6001600160a01b03191617600455005b34610515576000366003190112610515576020600354604051908152f35b3461051557602036600319011261051557600435600052600060205261060960406000206002810154600382015460048301546005840154600685015460078601549160ff8084169360081c16936008880154956106176105f460016105ed8c611296565b9b01611296565b6040519b8c9b8c6101408091528d019061133c565b908b820360208d015261133c565b9760408a01526060890152608088015260a087015260c086015261063a8161137c565b60e08501526106488161137c565b6101008401526101208301520390f35b3461051557604036600319011261051557610671611224565b60043560009081526001602081815260408084206001600160a01b03959095168452938152918390208054918101546002820154600390920154855193845293830152928101929092526060820152608090f35b346105155760003660031901126105155760206040516127108152f35b34610515576060366003190112610515576004356024356003811015610515576005546044359190336001600160a01b0391821614908115610827575b50156107f457826000526000602052604060002090600782019283549361075260ff861661074c8161137c565b1561140c565b61075b8361137c565b82156107bd576008604094839260017f3369929723e45f72d9ba8ea5e21eace474887d4e706445ad162994ef978709a8986107958861137c565b61ffff191687851b61ff00161717905501558251916107b38161137c565b82526020820152a2005b60405162461bcd60e51b815260206004820152600f60248201526e496e76616c6964206f7574636f6d6560881b6044820152606490fd5b60405162461bcd60e51b815260206004820152600b60248201526a4f6e6c79206f7261636c6560a81b6044820152606490fd5b90506004541633148461071f565b346105155760203660031901126105155760043560005260006020526108cc604060002061086281611296565b9061086f60018201611296565b600282015491600381015460048201546005830154600684015460078501549160ff8084169360081c16936008870154956108da600989015498600a60018060a01b0391015416996040519d8e9d8e61018090818152019061133c565b8d810360208f01529061133c565b9960408c015260608b015260808a015260a089015260c08801526108fd8161137c565b60e087015261090b8161137c565b6101008601526101208501526101408401526101608301520390f35b346105155760208060031936011261051557600435908160005260008152604060002091600783015492600160ff85166109608161137c565b03610b18578160005260028352604060002033600052835261098a60ff60406000205416156114dd565b8160005260018352604060002033600052835260406000209360009460ff6109bb60038501546004860154906113ff565b9260081c166109c98161137c565b60018103610ad657506109fa939495506005916109f191546109ec81151561151b565b61144c565b9101549061145f565b915b8215610a9f57816000526002815260406000203360005281526040600020600160ff19825416179055600080808086335af1610a3661155b565b5015610a69577f24b5efa61dd1cfc659205a97fb8ed868f3cb8c81922bab2b96423e5de1de2cb7906040519384523393a3005b6064906040519062461bcd60e51b82526004820152600f60248201526e151c985b9cd9995c8819985a5b1959608a1b6044820152fd5b6064906040519062461bcd60e51b82526004820152601060248201526f4e6f7468696e6720746f20636c61696d60801b6044820152fd5b80610ae560029297969761137c565b14610af3575b5050506109fc565b610b0f93955060069160016109f19201546109ec81151561151b565b91838080610aeb565b60405162461bcd60e51b815260048101849052601360248201527213585c9ad95d081b9bdd081c995cdbdb1d9959606a1b6044820152606490fd5b604036600319011261051557600435602435908115159182810361051557816000526020600081526040600020610b9460ff60078301541661074c8161137c565b6002810154421015610d775766038d7ea4c680003410610d3e5760c8340234810460c8143415171561048157612710900490610bdc610bd3833461147f565b926006546113ff565b6006558315610d3057610c008260038301545b8615610d255760048401549061148c565b9315610cae57600591610c18600383019182546113ff565b905501610c268382546113ff565b9055826000526001815260406000203360005281526040600020610c4b8382546113ff565b9055826000526001815260406000203360005281526002604060002001610c733482546113ff565b90555b604051938452349084015260408301527f52772507cb516fc74ec2a0c1cf45c731d4e9eb90979b956f47caf17c4208688060603393a3005b600691610cc0600483019182546113ff565b905501610cce8382546113ff565b9055826000526001815260406000203360005281526001604060002001610cf68382546113ff565b9055826000526001815260406000203360005281526003604060002001610d1e3482546113ff565b9055610c76565b60038401549061148c565b610c00826004830154610bef565b60405162461bcd60e51b815260048101839052601160248201527010995b1bddc81b5a5b9a5b5d5b4818995d607a1b6044820152606490fd5b60405162461bcd60e51b815260048101839052600c60248201526b13585c9ad95d08195b99195960a21b6044820152606490fd5b34610515576020366003190112610515576040610dc96004356115c4565b82519182526020820152f35b34610515576000366003190112610515576020600654604051908152f35b34610515576000366003190112610515576004546040516001600160a01b039091168152602090f35b3461051557604036600319011261051557610e35611224565b600435600052600260205260406000209060018060a01b0316600052602052602060ff604060002054166040519015158152f35b34610515576000366003190112610515576005546040516001600160a01b039091168152602090f35b3461051557602036600319011261051557600435610ebb60018060a01b0360045416331461158b565b806000526000602052600760406000200160028154610ee060ff821661074c8161137c565b60ff19161790557f2ca440fb7fca85d7f55d395a4abd94817330b83a62f3502efbb4770144e4ca97600080a2005b3461051557602036600319011261051557610f2761120e565b6004546001600160a01b039190610f41908316331461158b565b16610f4d8115156116f7565b6bffffffffffffffffffffffff60a01b6005541617600555600080f35b3461051557600036600319011261051557602060405166038d7ea4c680008152f35b3461051557602080600319360112610515576004358060005260008252600260ff60076040600020015416610fc08161137c565b036110c15780600052600282526040600020336000528252610fea60ff60406000205416156114dd565b80600052600182526040600020336000528252611015604060002060036002820154910154906113ff565b908115611088576000808093819382526002865260408220338352865260408220600160ff19825416179055335af161104c61155b565b501561105457005b6064906040519062461bcd60e51b82526004820152600d60248201526c1499599d5b990819985a5b1959609a1b6044820152fd5b60405162461bcd60e51b8152600481018490526011602482015270139bdd1a1a5b99c81d1bc81c99599d5b99607a1b6044820152606490fd5b60405162461bcd60e51b815260048101839052601460248201527313585c9ad95d081b9bdd0818d85b98d95b1b195960621b6044820152606490fd5b34610515576000366003190112610515576004546001600160a01b031661112533821461158b565b6006549081156111835760008080938193826006555af161114461155b565b501561114c57005b60405162461bcd60e51b815260206004820152600f60248201526e15da5d1a191c985dc819985a5b1959608a1b6044820152606490fd5b60405162461bcd60e51b81526020600482015260136024820152724e6f206665657320746f20776974686472617760681b6044820152606490fd5b34610515576060366003190112610515576044358015158103610515576111ec60209160243560043561165f565b604051908152f35b34610515576000366003190112610515578060c860209252f35b600435906001600160a01b038216820361051557565b602435906001600160a01b038216820361051557565b90600182811c9216801561126a575b602083101461125457565b634e487b7160e01b600052602260045260246000fd5b91607f1691611249565b90601f8019910116810190811067ffffffffffffffff8211176103b557604052565b90604051918260008254926112aa8461123a565b90818452600194858116908160001461131957506001146112d6575b50506112d492500383611274565b565b9093915060005260209081600020936000915b8183106113015750506112d4935082010138806112c6565b855488840185015294850194879450918301916112e9565b9150506112d494506020925060ff191682840152151560051b82010138806112c6565b919082519283825260005b848110611368575050826000602080949584010152601f8019910116010190565b602081830181015184830182015201611347565b6003111561138657565b634e487b7160e01b600052602160045260246000fd5b67ffffffffffffffff81116103b557601f01601f191660200190565b81601f82011215610515578035906113cf8261139c565b926113dd6040519485611274565b8284526020838301011161051557816000926020809301838601378301015290565b9190820180921161048157565b1561141357565b60405162461bcd60e51b81526020600482015260116024820152704d61726b6574206e6f742061637469766560781b6044820152606490fd5b8181029291811591840414171561048157565b8115611469570490565b634e487b7160e01b600052601260045260246000fd5b9190820391821161048157565b91908215806114d5575b6114cf576114a4908261144c565b670de0b6b3a76400008301809311610481576114cc926114c39161145f565b60011c906113ff565b90565b50905090565b508015611496565b156114e457565b60405162461bcd60e51b815260206004820152600f60248201526e105b1c9958591e4818db185a5b5959608a1b6044820152606490fd5b1561152257565b60405162461bcd60e51b81526020600482015260116024820152704e6f2077696e6e696e672073686172657360781b6044820152606490fd5b3d15611586573d9061156c8261139c565b9161157a6040519384611274565b82523d6000602084013e565b606090565b1561159257565b60405162461bcd60e51b815260206004820152600a60248201526927b7363c9037bbb732b960b11b6044820152606490fd5b90600091825281602052604082209160046003840154930154926115e884826113ff565b91821561165257612710918281029080820484149015171561163e578361160e9161145f565b9482810292818404149015171561162a5750906114cc9161145f565b634e487b7160e01b81526011600452602490fd5b634e487b7160e01b82526011600452602482fd5b5050509050611388908190565b600052600060205260406000209060c881029080820460c814811517156104815761271061168e92049061147f565b60038201546004830154906116ac836116a784846113ff565b6113ff565b94156116df576005936116ca6116da946114cc97946116d49461148c565b94859101546113ff565b9261144c565b61145f565b6006936116ca6116da946116d4936114cc989561148c565b156116fe57565b60405162461bcd60e51b815260206004820152600f60248201526e496e76616c6964206164647265737360881b6044820152606490fdfea26469706673582212201a5e2159df235241e4db8afacabe5156c55cd3aa5070ba3acdbf8cb827ff7d8064736f6c63430008140033","opcodes":"PUSH1 0x80 DUP1 PUSH1 0x40 MSTORE CALLVALUE PUSH2 0x32 JUMPI PUSH1 0x1 DUP1 PUSH1 0xA0 SHL SUB NOT CALLER DUP2 PUSH1 0x4 SLOAD AND OR PUSH1 0x4 SSTORE CALLER SWAP1 PUSH1 0x5 SLOAD AND OR PUSH1 0x5 SSTORE PUSH2 0x176B SWAP1 DUP2 PUSH2 0x38 DUP3 CODECOPY RETURN JUMPDEST PUSH1 0x0 DUP1 REVERT INVALID PUSH1 0x80 DUP1 PUSH1 0x40 MSTORE PUSH1 0x4 CALLDATASIZE LT ISZERO PUSH2 0x1D JUMPI JUMPDEST POP CALLDATASIZE ISZERO PUSH2 0x1B JUMPI PUSH1 0x0 DUP1 REVERT JUMPDEST STOP JUMPDEST PUSH1 0x0 CALLDATALOAD PUSH1 0xE0 SHR SWAP1 DUP2 PUSH4 0x34FBC9A1 EQ PUSH2 0x11F4 JUMPI POP DUP1 PUSH4 0x39160719 EQ PUSH2 0x11BE JUMPI DUP1 PUSH4 0x476343EE EQ PUSH2 0x10FD JUMPI DUP1 PUSH4 0x5B7BAF64 EQ PUSH2 0xF8C JUMPI DUP1 PUSH4 0x6540742F EQ PUSH2 0xF6A JUMPI DUP1 PUSH4 0x7ADBF973 EQ PUSH2 0xF0E JUMPI DUP1 PUSH4 0x7C16CD9E EQ PUSH2 0xE92 JUMPI DUP1 PUSH4 0x7DC0D1D0 EQ PUSH2 0xE69 JUMPI DUP1 PUSH4 0x873F6F9E EQ PUSH2 0xE1C JUMPI DUP1 PUSH4 0x8DA5CB5B EQ PUSH2 0xDF3 JUMPI DUP1 PUSH4 0x9003ADFE EQ PUSH2 0xDD5 JUMPI DUP1 PUSH4 0x91492956 EQ PUSH2 0xDAB JUMPI DUP1 PUSH4 0x9ED9C74D EQ PUSH2 0xB53 JUMPI DUP1 PUSH4 0xAE169A50 EQ PUSH2 0x927 JUMPI DUP1 PUSH4 0xB1283E77 EQ PUSH2 0x835 JUMPI DUP1 PUSH4 0xD29F541D EQ PUSH2 0x658 JUMPI DUP1 PUSH4 0xD5220B62 EQ PUSH2 0x6E2 JUMPI DUP1 PUSH4 0xE1F1C4A7 EQ PUSH2 0x6C5 JUMPI DUP1 PUSH4 0xE684D718 EQ PUSH2 0x658 JUMPI DUP1 PUSH4 0xEB44FDD3 EQ PUSH2 0x588 JUMPI DUP1 PUSH4 0xEC979082 EQ PUSH2 0x56A JUMPI DUP1 PUSH4 0xF2FDE38B EQ PUSH2 0x51A JUMPI PUSH4 0xF98B7783 EQ PUSH2 0x127 JUMPI CODESIZE PUSH2 0xF JUMP JUMPDEST CALLVALUE PUSH2 0x515 JUMPI PUSH1 0x60 CALLDATASIZE PUSH1 0x3 NOT ADD SLT PUSH2 0x515 JUMPI PUSH1 0x4 CALLDATALOAD PUSH8 0xFFFFFFFFFFFFFFFF DUP2 GT PUSH2 0x515 JUMPI PUSH2 0x158 SWAP1 CALLDATASIZE SWAP1 PUSH1 0x4 ADD PUSH2 0x13B8 JUMP JUMPDEST PUSH1 0x24 CALLDATALOAD PUSH8 0xFFFFFFFFFFFFFFFF DUP2 GT PUSH2 0x515 JUMPI PUSH2 0x178 SWAP1 CALLDATASIZE SWAP1 PUSH1 0x4 ADD PUSH2 0x13B8 JUMP JUMPDEST PUSH1 0x44 CALLDATALOAD ISZERO PUSH2 0x4D0 JUMPI DUP2 MLOAD ISZERO PUSH2 0x497 JUMPI PUSH1 0x3 SLOAD SWAP1 PUSH1 0x0 NOT DUP3 EQ PUSH2 0x481 JUMPI PUSH1 0x1 DUP3 ADD PUSH1 0x3 SSTORE DUP2 PUSH1 0x0 MSTORE PUSH1 0x0 PUSH1 0x20 MSTORE PUSH1 0x40 PUSH1 0x0 KECCAK256 SWAP1 DUP4 MLOAD PUSH8 0xFFFFFFFFFFFFFFFF DUP2 GT PUSH2 0x3B5 JUMPI PUSH2 0x1C5 DUP4 SLOAD PUSH2 0x123A JUMP JUMPDEST PUSH1 0x1F DUP2 GT PUSH2 0x43D JUMPI JUMPDEST POP DUP1 PUSH1 0x20 PUSH1 0x1F DUP3 GT PUSH1 0x1 EQ PUSH2 0x3D6 JUMPI PUSH1 0x0 SWAP2 PUSH2 0x3CB JUMPI JUMPDEST POP DUP2 PUSH1 0x1 SHL SWAP2 PUSH1 0x0 NOT SWAP1 PUSH1 0x3 SHL SHR NOT AND OR DUP3 SSTORE JUMPDEST PUSH1 0x1 DUP3 ADD DUP2 MLOAD PUSH8 0xFFFFFFFFFFFFFFFF DUP2 GT PUSH2 0x3B5 JUMPI PUSH2 0x218 DUP3 SLOAD PUSH2 0x123A JUMP JUMPDEST PUSH1 0x1F DUP2 GT PUSH2 0x36D JUMPI JUMPDEST POP SWAP5 DUP5 SWAP2 PUSH1 0x20 SWAP7 DUP8 SWAP5 PUSH1 0x1F DUP3 GT PUSH1 0x1 EQ PUSH2 0x2E3 JUMPI PUSH32 0x57D0D124B72F81ED1DA0DC728FC33DB342705974792928796F6577B8DB5C3D53 SWAP5 SWAP6 DUP3 SWAP2 PUSH1 0x0 SWAP3 PUSH2 0x2D8 JUMPI JUMPDEST POP POP DUP2 PUSH1 0x1 SHL SWAP2 PUSH1 0x0 NOT SWAP1 PUSH1 0x3 SHL SHR NOT AND OR SWAP1 SSTORE JUMPDEST PUSH1 0xA PUSH2 0x285 PUSH1 0x44 CALLDATALOAD TIMESTAMP PUSH2 0x13FF JUMP JUMPDEST PUSH1 0x2 DUP7 ADD DUP2 SWAP1 SSTORE PUSH1 0x7 DUP7 ADD DUP1 SLOAD PUSH2 0xFFFF NOT AND SWAP1 SSTORE TIMESTAMP PUSH1 0x9 DUP8 ADD SSTORE SWAP5 ADD DUP1 SLOAD PUSH1 0x1 PUSH1 0x1 PUSH1 0xA0 SHL SUB NOT AND CALLER OR SWAP1 SSTORE PUSH1 0x40 DUP1 MLOAD DUP2 DUP2 MSTORE SWAP2 PUSH2 0x2C5 SWAP2 DUP4 ADD SWAP1 PUSH2 0x133C JUMP JUMPDEST SWAP4 DUP7 DUP3 ADD MSTORE DUP1 CALLER SWAP5 SUB SWAP1 LOG3 PUSH1 0x40 MLOAD SWAP1 DUP2 MSTORE RETURN JUMPDEST ADD MLOAD SWAP1 POP CODESIZE DUP1 PUSH2 0x262 JUMP JUMPDEST PUSH1 0x1F NOT DUP3 AND SWAP1 DUP4 PUSH1 0x0 MSTORE DUP10 PUSH1 0x0 KECCAK256 SWAP2 PUSH1 0x0 JUMPDEST DUP2 DUP2 LT PUSH2 0x353 JUMPI POP SWAP7 DUP4 SWAP3 SWAP2 PUSH1 0x1 SWAP5 PUSH32 0x57D0D124B72F81ED1DA0DC728FC33DB342705974792928796F6577B8DB5C3D53 SWAP9 SWAP10 LT PUSH2 0x33A JUMPI JUMPDEST POP POP POP DUP2 SHL ADD SWAP1 SSTORE PUSH2 0x277 JUMP JUMPDEST ADD MLOAD PUSH1 0x0 NOT PUSH1 0xF8 DUP5 PUSH1 0x3 SHL AND SHR NOT AND SWAP1 SSTORE CODESIZE DUP1 DUP1 PUSH2 0x32D JUMP JUMPDEST DUP3 DUP10 ADD MLOAD DUP5 SSTORE SWAP8 DUP12 ADD SWAP8 DUP11 SWAP8 POP PUSH1 0x1 SWAP1 SWAP4 ADD SWAP3 DUP12 ADD PUSH2 0x2F5 JUMP JUMPDEST DUP3 PUSH1 0x0 MSTORE PUSH1 0x20 PUSH1 0x0 KECCAK256 PUSH1 0x1F DUP4 ADD PUSH1 0x5 SHR DUP2 ADD SWAP2 PUSH1 0x20 DUP5 LT PUSH2 0x3AB JUMPI JUMPDEST PUSH1 0x1F ADD PUSH1 0x5 SHR ADD SWAP1 JUMPDEST DUP2 DUP2 LT PUSH2 0x39F JUMPI POP PUSH2 0x221 JUMP JUMPDEST PUSH1 0x0 DUP2 SSTORE PUSH1 0x1 ADD PUSH2 0x392 JUMP JUMPDEST SWAP1 SWAP2 POP DUP2 SWAP1 PUSH2 0x389 JUMP JUMPDEST PUSH4 0x4E487B71 PUSH1 0xE0 SHL PUSH1 0x0 MSTORE PUSH1 0x41 PUSH1 0x4 MSTORE PUSH1 0x24 PUSH1 0x0 REVERT JUMPDEST SWAP1 POP DUP6 ADD MLOAD CODESIZE PUSH2 0x1E5 JUMP JUMPDEST SWAP2 POP DUP4 PUSH1 0x0 MSTORE PUSH1 0x20 PUSH1 0x0 KECCAK256 PUSH1 0x0 SWAP3 JUMPDEST PUSH1 0x1F NOT DUP4 AND DUP5 LT PUSH2 0x425 JUMPI PUSH1 0x1 SWAP4 POP DUP3 PUSH1 0x1F NOT DUP2 AND LT PUSH2 0x40C JUMPI JUMPDEST POP POP DUP2 SHL ADD DUP3 SSTORE PUSH2 0x1F9 JUMP JUMPDEST DUP8 ADD MLOAD PUSH1 0x0 NOT PUSH1 0xF8 DUP5 PUSH1 0x3 SHL AND SHR NOT AND SWAP1 SSTORE CODESIZE DUP1 PUSH2 0x400 JUMP JUMPDEST DUP8 DUP2 ADD MLOAD DUP3 SSTORE PUSH1 0x20 SWAP4 DUP5 ADD SWAP4 PUSH1 0x1 SWAP1 SWAP3 ADD SWAP2 ADD PUSH2 0x3E5 JUMP JUMPDEST DUP4 PUSH1 0x0 MSTORE PUSH1 0x20 PUSH1 0x0 KECCAK256 PUSH1 0x1F DUP4 ADD PUSH1 0x5 SHR DUP2 ADD PUSH1 0x20 DUP5 LT PUSH2 0x47A JUMPI JUMPDEST PUSH1 0x1F DUP4 ADD PUSH1 0x5 SHR DUP3 ADD DUP2 LT PUSH2 0x46E JUMPI POP POP PUSH2 0x1CE JUMP JUMPDEST PUSH1 0x0 DUP2 SSTORE PUSH1 0x1 ADD PUSH2 0x458 JUMP JUMPDEST POP DUP1 PUSH2 0x458 JUMP JUMPDEST PUSH4 0x4E487B71 PUSH1 0xE0 SHL PUSH1 0x0 MSTORE PUSH1 0x11 PUSH1 0x4 MSTORE PUSH1 0x24 PUSH1 0x0 REVERT JUMPDEST PUSH1 0x40 MLOAD PUSH3 0x461BCD PUSH1 0xE5 SHL DUP2 MSTORE PUSH1 0x20 PUSH1 0x4 DUP3 ADD MSTORE PUSH1 0x11 PUSH1 0x24 DUP3 ADD MSTORE PUSH17 0x145D595CDD1A5BDB881C995C5D5A5C9959 PUSH1 0x7A SHL PUSH1 0x44 DUP3 ADD MSTORE PUSH1 0x64 SWAP1 REVERT JUMPDEST PUSH1 0x40 MLOAD PUSH3 0x461BCD PUSH1 0xE5 SHL DUP2 MSTORE PUSH1 0x20 PUSH1 0x4 DUP3 ADD MSTORE PUSH1 0x19 PUSH1 0x24 DUP3 ADD MSTORE PUSH32 0x4475726174696F6E206D75737420626520706F73697469766500000000000000 PUSH1 0x44 DUP3 ADD MSTORE PUSH1 0x64 SWAP1 REVERT JUMPDEST PUSH1 0x0 DUP1 REVERT JUMPDEST CALLVALUE PUSH2 0x515 JUMPI PUSH1 0x20 CALLDATASIZE PUSH1 0x3 NOT ADD SLT PUSH2 0x515 JUMPI PUSH2 0x533 PUSH2 0x120E JUMP JUMPDEST PUSH1 0x4 SLOAD SWAP1 PUSH1 0x1 PUSH1 0x1 PUSH1 0xA0 SHL SUB SWAP1 PUSH2 0x54D CALLER DUP4 DUP6 AND EQ PUSH2 0x158B JUMP JUMPDEST AND SWAP1 PUSH2 0x55A DUP3 ISZERO ISZERO PUSH2 0x16F7 JUMP JUMPDEST PUSH1 0x1 PUSH1 0x1 PUSH1 0xA0 SHL SUB NOT AND OR PUSH1 0x4 SSTORE STOP JUMPDEST CALLVALUE PUSH2 0x515 JUMPI PUSH1 0x0 CALLDATASIZE PUSH1 0x3 NOT ADD SLT PUSH2 0x515 JUMPI PUSH1 0x20 PUSH1 0x3 SLOAD PUSH1 0x40 MLOAD SWAP1 DUP2 MSTORE RETURN JUMPDEST CALLVALUE PUSH2 0x515 JUMPI PUSH1 0x20 CALLDATASIZE PUSH1 0x3 NOT ADD SLT PUSH2 0x515 JUMPI PUSH1 0x4 CALLDATALOAD PUSH1 0x0 MSTORE PUSH1 0x0 PUSH1 0x20 MSTORE PUSH2 0x609 PUSH1 0x40 PUSH1 0x0 KECCAK256 PUSH1 0x2 DUP2 ADD SLOAD PUSH1 0x3 DUP3 ADD SLOAD PUSH1 0x4 DUP4 ADD SLOAD PUSH1 0x5 DUP5 ADD SLOAD PUSH1 0x6 DUP6 ADD SLOAD PUSH1 0x7 DUP7 ADD SLOAD SWAP2 PUSH1 0xFF DUP1 DUP5 AND SWAP4 PUSH1 0x8 SHR AND SWAP4 PUSH1 0x8 DUP9 ADD SLOAD SWAP6 PUSH2 0x617 PUSH2 0x5F4 PUSH1 0x1 PUSH2 0x5ED DUP13 PUSH2 0x1296 JUMP JUMPDEST SWAP12 ADD PUSH2 0x1296 JUMP JUMPDEST PUSH1 0x40 MLOAD SWAP12 DUP13 SWAP12 DUP13 PUSH2 0x140 DUP1 SWAP2 MSTORE DUP14 ADD SWAP1 PUSH2 0x133C JUMP JUMPDEST SWAP1 DUP12 DUP3 SUB PUSH1 0x20 DUP14 ADD MSTORE PUSH2 0x133C JUMP JUMPDEST SWAP8 PUSH1 0x40 DUP11 ADD MSTORE PUSH1 0x60 DUP10 ADD MSTORE PUSH1 0x80 DUP9 ADD MSTORE PUSH1 0xA0 DUP8 ADD MSTORE PUSH1 0xC0 DUP7 ADD MSTORE PUSH2 0x63A DUP2 PUSH2 0x137C JUMP JUMPDEST PUSH1 0xE0 DUP6 ADD MSTORE PUSH2 0x648 DUP2 PUSH2 0x137C JUMP JUMPDEST PUSH2 0x100 DUP5 ADD MSTORE PUSH2 0x120 DUP4 ADD MSTORE SUB SWAP1 RETURN JUMPDEST CALLVALUE PUSH2 0x515 JUMPI PUSH1 0x40 CALLDATASIZE PUSH1 0x3 NOT ADD SLT PUSH2 0x515 JUMPI PUSH2 0x671 PUSH2 0x1224 JUMP JUMPDEST PUSH1 0x4 CALLDATALOAD PUSH1 0x0 SWAP1 DUP2 MSTORE PUSH1 0x1 PUSH1 0x20 DUP2 DUP2 MSTORE PUSH1 0x40 DUP1 DUP5 KECCAK256 PUSH1 0x1 PUSH1 0x1 PUSH1 0xA0 SHL SUB SWAP6 SWAP1 SWAP6 AND DUP5 MSTORE SWAP4 DUP2 MSTORE SWAP2 DUP4 SWAP1 KECCAK256 DUP1 SLOAD SWAP2 DUP2 ADD SLOAD PUSH1 0x2 DUP3 ADD SLOAD PUSH1 0x3 SWAP1 SWAP3 ADD SLOAD DUP6 MLOAD SWAP4 DUP5 MSTORE SWAP4 DUP4 ADD MSTORE SWAP3 DUP2 ADD SWAP3 SWAP1 SWAP3 MSTORE PUSH1 0x60 DUP3 ADD MSTORE PUSH1 0x80 SWAP1 RETURN JUMPDEST CALLVALUE PUSH2 0x515 JUMPI PUSH1 0x0 CALLDATASIZE PUSH1 0x3 NOT ADD SLT PUSH2 0x515 JUMPI PUSH1 0x20 PUSH1 0x40 MLOAD PUSH2 0x2710 DUP2 MSTORE RETURN JUMPDEST CALLVALUE PUSH2 0x515 JUMPI PUSH1 0x60 CALLDATASIZE PUSH1 0x3 NOT ADD SLT PUSH2 0x515 JUMPI PUSH1 0x4 CALLDATALOAD PUSH1 0x24 CALLDATALOAD PUSH1 0x3 DUP2 LT ISZERO PUSH2 0x515 JUMPI PUSH1 0x5 SLOAD PUSH1 0x44 CALLDATALOAD SWAP2 SWAP1 CALLER PUSH1 0x1 PUSH1 0x1 PUSH1 0xA0 SHL SUB SWAP2 DUP3 AND EQ SWAP1 DUP2 ISZERO PUSH2 0x827 JUMPI JUMPDEST POP ISZERO PUSH2 0x7F4 JUMPI DUP3 PUSH1 0x0 MSTORE PUSH1 0x0 PUSH1 0x20 MSTORE PUSH1 0x40 PUSH1 0x0 KECCAK256 SWAP1 PUSH1 0x7 DUP3 ADD SWAP3 DUP4 SLOAD SWAP4 PUSH2 0x752 PUSH1 0xFF DUP7 AND PUSH2 0x74C DUP2 PUSH2 0x137C JUMP JUMPDEST ISZERO PUSH2 0x140C JUMP JUMPDEST PUSH2 0x75B DUP4 PUSH2 0x137C JUMP JUMPDEST DUP3 ISZERO PUSH2 0x7BD JUMPI PUSH1 0x8 PUSH1 0x40 SWAP5 DUP4 SWAP3 PUSH1 0x1 PUSH32 0x3369929723E45F72D9BA8EA5E21EACE474887D4E706445AD162994EF978709A8 SWAP9 PUSH2 0x795 DUP9 PUSH2 0x137C JUMP JUMPDEST PUSH2 0xFFFF NOT AND DUP8 DUP6 SHL PUSH2 0xFF00 AND OR OR SWAP1 SSTORE ADD SSTORE DUP3 MLOAD SWAP2 PUSH2 0x7B3 DUP2 PUSH2 0x137C JUMP JUMPDEST DUP3 MSTORE PUSH1 0x20 DUP3 ADD MSTORE LOG2 STOP JUMPDEST PUSH1 0x40 MLOAD PUSH3 0x461BCD PUSH1 0xE5 SHL DUP2 MSTORE PUSH1 0x20 PUSH1 0x4 DUP3 ADD MSTORE PUSH1 0xF PUSH1 0x24 DUP3 ADD MSTORE PUSH15 0x496E76616C6964206F7574636F6D65 PUSH1 0x88 SHL PUSH1 0x44 DUP3 ADD MSTORE PUSH1 0x64 SWAP1 REVERT JUMPDEST PUSH1 0x40 MLOAD PUSH3 0x461BCD PUSH1 0xE5 SHL DUP2 MSTORE PUSH1 0x20 PUSH1 0x4 DUP3 ADD MSTORE PUSH1 0xB PUSH1 0x24 DUP3 ADD MSTORE PUSH11 0x4F6E6C79206F7261636C65 PUSH1 0xA8 SHL PUSH1 0x44 DUP3 ADD MSTORE PUSH1 0x64 SWAP1 REVERT JUMPDEST SWAP1 POP PUSH1 0x4 SLOAD AND CALLER EQ DUP5 PUSH2 0x71F JUMP JUMPDEST CALLVALUE PUSH2 0x515 JUMPI PUSH1 0x20 CALLDATASIZE PUSH1 0x3 NOT ADD SLT PUSH2 0x515 JUMPI PUSH1 0x4 CALLDATALOAD PUSH1 0x0 MSTORE PUSH1 0x0 PUSH1 0x20 MSTORE PUSH2 0x8CC PUSH1 0x40 PUSH1 0x0 KECCAK256 PUSH2 0x862 DUP2 PUSH2 0x1296 JUMP JUMPDEST SWAP1 PUSH2 0x86F PUSH1 0x1 DUP3 ADD PUSH2 0x1296 JUMP JUMPDEST PUSH1 0x2 DUP3 ADD SLOAD SWAP2 PUSH1 0x3 DUP2 ADD SLOAD PUSH1 0x4 DUP3 ADD SLOAD PUSH1 0x5 DUP4 ADD SLOAD PUSH1 0x6 DUP5 ADD SLOAD PUSH1 0x7 DUP6 ADD SLOAD SWAP2 PUSH1 0xFF DUP1 DUP5 AND SWAP4 PUSH1 0x8 SHR AND SWAP4 PUSH1 0x8 DUP8 ADD SLOAD SWAP6 PUSH2 0x8DA PUSH1 0x9 DUP10 ADD SLOAD SWAP9 PUSH1 0xA PUSH1 0x1 DUP1 PUSH1 0xA0 SHL SUB SWAP2 ADD SLOAD AND SWAP10 PUSH1 0x40 MLOAD SWAP14 DUP15 SWAP14 DUP15 PUSH2 0x180 SWAP1 DUP2 DUP2 MSTORE ADD SWAP1 PUSH2 0x133C JUMP JUMPDEST DUP14 DUP2 SUB PUSH1 0x20 DUP16 ADD MSTORE SWAP1 PUSH2 0x133C JUMP JUMPDEST SWAP10 PUSH1 0x40 DUP13 ADD MSTORE PUSH1 0x60 DUP12 ADD MSTORE PUSH1 0x80 DUP11 ADD MSTORE PUSH1 0xA0 DUP10 ADD MSTORE PUSH1 0xC0 DUP9 ADD MSTORE PUSH2 0x8FD DUP2 PUSH2 0x137C JUMP JUMPDEST PUSH1 0xE0 DUP8 ADD MSTORE PUSH2 0x90B DUP2 PUSH2 0x137C JUMP JUMPDEST PUSH2 0x100 DUP7 ADD MSTORE PUSH2 0x120 DUP6 ADD MSTORE PUSH2 0x140 DUP5 ADD MSTORE PUSH2 0x160 DUP4 ADD MSTORE SUB SWAP1 RETURN JUMPDEST CALLVALUE PUSH2 0x515 JUMPI PUSH1 0x20 DUP1 PUSH1 0x3 NOT CALLDATASIZE ADD SLT PUSH2 0x515 JUMPI PUSH1 0x4 CALLDATALOAD SWAP1 DUP2 PUSH1 0x0 MSTORE PUSH1 0x0 DUP2 MSTORE PUSH1 0x40 PUSH1 0x0 KECCAK256 SWAP2 PUSH1 0x7 DUP4 ADD SLOAD SWAP3 PUSH1 0x1 PUSH1 0xFF DUP6 AND PUSH2 0x960 DUP2 PUSH2 0x137C JUMP JUMPDEST SUB PUSH2 0xB18 JUMPI DUP2 PUSH1 0x0 MSTORE PUSH1 0x2 DUP4 MSTORE PUSH1 0x40 PUSH1 0x0 KECCAK256 CALLER PUSH1 0x0 MSTORE DUP4 MSTORE PUSH2 0x98A PUSH1 0xFF PUSH1 0x40 PUSH1 0x0 KECCAK256 SLOAD AND ISZERO PUSH2 0x14DD JUMP JUMPDEST DUP2 PUSH1 0x0 MSTORE PUSH1 0x1 DUP4 MSTORE PUSH1 0x40 PUSH1 0x0 KECCAK256 CALLER PUSH1 0x0 MSTORE DUP4 MSTORE PUSH1 0x40 PUSH1 0x0 KECCAK256 SWAP4 PUSH1 0x0 SWAP5 PUSH1 0xFF PUSH2 0x9BB PUSH1 0x3 DUP6 ADD SLOAD PUSH1 0x4 DUP7 ADD SLOAD SWAP1 PUSH2 0x13FF JUMP JUMPDEST SWAP3 PUSH1 0x8 SHR AND PUSH2 0x9C9 DUP2 PUSH2 0x137C JUMP JUMPDEST PUSH1 0x1 DUP2 SUB PUSH2 0xAD6 JUMPI POP PUSH2 0x9FA SWAP4 SWAP5 SWAP6 POP PUSH1 0x5 SWAP2 PUSH2 0x9F1 SWAP2 SLOAD PUSH2 0x9EC DUP2 ISZERO ISZERO PUSH2 0x151B JUMP JUMPDEST PUSH2 0x144C JUMP JUMPDEST SWAP2 ADD SLOAD SWAP1 PUSH2 0x145F JUMP JUMPDEST SWAP2 JUMPDEST DUP3 ISZERO PUSH2 0xA9F JUMPI DUP2 PUSH1 0x0 MSTORE PUSH1 0x2 DUP2 MSTORE PUSH1 0x40 PUSH1 0x0 KECCAK256 CALLER PUSH1 0x0 MSTORE DUP2 MSTORE PUSH1 0x40 PUSH1 0x0 KECCAK256 PUSH1 0x1 PUSH1 0xFF NOT DUP3 SLOAD AND OR SWAP1 SSTORE PUSH1 0x0 DUP1 DUP1 DUP1 DUP7 CALLER GAS CALL PUSH2 0xA36 PUSH2 0x155B JUMP JUMPDEST POP ISZERO PUSH2 0xA69 JUMPI PUSH32 0x24B5EFA61DD1CFC659205A97FB8ED868F3CB8C81922BAB2B96423E5DE1DE2CB7 SWAP1 PUSH1 0x40 MLOAD SWAP4 DUP5 MSTORE CALLER SWAP4 LOG3 STOP JUMPDEST PUSH1 0x64 SWAP1 PUSH1 0x40 MLOAD SWAP1 PUSH3 0x461BCD PUSH1 0xE5 SHL DUP3 MSTORE PUSH1 0x4 DUP3 ADD MSTORE PUSH1 0xF PUSH1 0x24 DUP3 ADD MSTORE PUSH15 0x151C985B9CD9995C8819985A5B1959 PUSH1 0x8A SHL PUSH1 0x44 DUP3 ADD MSTORE REVERT JUMPDEST PUSH1 0x64 SWAP1 PUSH1 0x40 MLOAD SWAP1 PUSH3 0x461BCD PUSH1 0xE5 SHL DUP3 MSTORE PUSH1 0x4 DUP3 ADD MSTORE PUSH1 0x10 PUSH1 0x24 DUP3 ADD MSTORE PUSH16 0x4E6F7468696E6720746F20636C61696D PUSH1 0x80 SHL PUSH1 0x44 DUP3 ADD MSTORE REVERT JUMPDEST DUP1 PUSH2 0xAE5 PUSH1 0x2 SWAP3 SWAP8 SWAP7 SWAP8 PUSH2 0x137C JUMP JUMPDEST EQ PUSH2 0xAF3 JUMPI JUMPDEST POP POP POP PUSH2 0x9FC JUMP JUMPDEST PUSH2 0xB0F SWAP4 SWAP6 POP PUSH1 0x6 SWAP2 PUSH1 0x1 PUSH2 0x9F1 SWAP3 ADD SLOAD PUSH2 0x9EC DUP2 ISZERO ISZERO PUSH2 0x151B JUMP JUMPDEST SWAP2 DUP4 DUP1 DUP1 PUSH2 0xAEB JUMP JUMPDEST PUSH1 0x40 MLOAD PUSH3 0x461BCD PUSH1 0xE5 SHL DUP2 MSTORE PUSH1 0x4 DUP2 ADD DUP5 SWAP1 MSTORE PUSH1 0x13 PUSH1 0x24 DUP3 ADD MSTORE PUSH19 0x13585C9AD95D081B9BDD081C995CDBDB1D9959 PUSH1 0x6A SHL PUSH1 0x44 DUP3 ADD MSTORE PUSH1 0x64 SWAP1 REVERT JUMPDEST PUSH1 0x40 CALLDATASIZE PUSH1 0x3 NOT ADD SLT PUSH2 0x515 JUMPI PUSH1 0x4 CALLDATALOAD PUSH1 0x24 CALLDATALOAD SWAP1 DUP2 ISZERO ISZERO SWAP2 DUP3 DUP2 SUB PUSH2 0x515 JUMPI DUP2 PUSH1 0x0 MSTORE PUSH1 0x20 PUSH1 0x0 DUP2 MSTORE PUSH1 0x40 PUSH1 0x0 KECCAK256 PUSH2 0xB94 PUSH1 0xFF PUSH1 0x7 DUP4 ADD SLOAD AND PUSH2 0x74C DUP2 PUSH2 0x137C JUMP JUMPDEST PUSH1 0x2 DUP2 ADD SLOAD TIMESTAMP LT ISZERO PUSH2 0xD77 JUMPI PUSH7 0x38D7EA4C68000 CALLVALUE LT PUSH2 0xD3E JUMPI PUSH1 0xC8 CALLVALUE MUL CALLVALUE DUP2 DIV PUSH1 0xC8 EQ CALLVALUE ISZERO OR ISZERO PUSH2 0x481 JUMPI PUSH2 0x2710 SWAP1 DIV SWAP1 PUSH2 0xBDC PUSH2 0xBD3 DUP4 CALLVALUE PUSH2 0x147F JUMP JUMPDEST SWAP3 PUSH1 0x6 SLOAD PUSH2 0x13FF JUMP JUMPDEST PUSH1 0x6 SSTORE DUP4 ISZERO PUSH2 0xD30 JUMPI PUSH2 0xC00 DUP3 PUSH1 0x3 DUP4 ADD SLOAD JUMPDEST DUP7 ISZERO PUSH2 0xD25 JUMPI PUSH1 0x4 DUP5 ADD SLOAD SWAP1 PUSH2 0x148C JUMP JUMPDEST SWAP4 ISZERO PUSH2 0xCAE JUMPI PUSH1 0x5 SWAP2 PUSH2 0xC18 PUSH1 0x3 DUP4 ADD SWAP2 DUP3 SLOAD PUSH2 0x13FF JUMP JUMPDEST SWAP1 SSTORE ADD PUSH2 0xC26 DUP4 DUP3 SLOAD PUSH2 0x13FF JUMP JUMPDEST SWAP1 SSTORE DUP3 PUSH1 0x0 MSTORE PUSH1 0x1 DUP2 MSTORE PUSH1 0x40 PUSH1 0x0 KECCAK256 CALLER PUSH1 0x0 MSTORE DUP2 MSTORE PUSH1 0x40 PUSH1 0x0 KECCAK256 PUSH2 0xC4B DUP4 DUP3 SLOAD PUSH2 0x13FF JUMP JUMPDEST SWAP1 SSTORE DUP3 PUSH1 0x0 MSTORE PUSH1 0x1 DUP2 MSTORE PUSH1 0x40 PUSH1 0x0 KECCAK256 CALLER PUSH1 0x0 MSTORE DUP2 MSTORE PUSH1 0x2 PUSH1 0x40 PUSH1 0x0 KECCAK256 ADD PUSH2 0xC73 CALLVALUE DUP3 SLOAD PUSH2 0x13FF JUMP JUMPDEST SWAP1 SSTORE JUMPDEST PUSH1 0x40 MLOAD SWAP4 DUP5 MSTORE CALLVALUE SWAP1 DUP5 ADD MSTORE PUSH1 0x40 DUP4 ADD MSTORE PUSH32 0x52772507CB516FC74EC2A0C1CF45C731D4E9EB90979B956F47CAF17C42086880 PUSH1 0x60 CALLER SWAP4 LOG3 STOP JUMPDEST PUSH1 0x6 SWAP2 PUSH2 0xCC0 PUSH1 0x4 DUP4 ADD SWAP2 DUP3 SLOAD PUSH2 0x13FF JUMP JUMPDEST SWAP1 SSTORE ADD PUSH2 0xCCE DUP4 DUP3 SLOAD PUSH2 0x13FF JUMP JUMPDEST SWAP1 SSTORE DUP3 PUSH1 0x0 MSTORE PUSH1 0x1 DUP2 MSTORE PUSH1 0x40 PUSH1 0x0 KECCAK256 CALLER PUSH1 0x0 MSTORE DUP2 MSTORE PUSH1 0x1 PUSH1 0x40 PUSH1 0x0 KECCAK256 ADD PUSH2 0xCF6 DUP4 DUP3 SLOAD PUSH2 0x13FF JUMP JUMPDEST SWAP1 SSTORE DUP3 PUSH1 0x0 MSTORE PUSH1 0x1 DUP2 MSTORE PUSH1 0x40 PUSH1 0x0 KECCAK256 CALLER PUSH1 0x0 MSTORE DUP2 MSTORE PUSH1 0x3 PUSH1 0x40 PUSH1 0x0 KECCAK256 ADD PUSH2 0xD1E CALLVALUE DUP3 SLOAD PUSH2 0x13FF JUMP JUMPDEST SWAP1 SSTORE PUSH2 0xC76 JUMP JUMPDEST PUSH1 0x3 DUP5 ADD SLOAD SWAP1 PUSH2 0x148C JUMP JUMPDEST PUSH2 0xC00 DUP3 PUSH1 0x4 DUP4 ADD SLOAD PUSH2 0xBEF JUMP JUMPDEST PUSH1 0x40 MLOAD PUSH3 0x461BCD PUSH1 0xE5 SHL DUP2 MSTORE PUSH1 0x4 DUP2 ADD DUP4 SWAP1 MSTORE PUSH1 0x11 PUSH1 0x24 DUP3 ADD MSTORE PUSH17 0x10995B1BDDC81B5A5B9A5B5D5B4818995D PUSH1 0x7A SHL PUSH1 0x44 DUP3 ADD MSTORE PUSH1 0x64 SWAP1 REVERT JUMPDEST PUSH1 0x40 MLOAD PUSH3 0x461BCD PUSH1 0xE5 SHL DUP2 MSTORE PUSH1 0x4 DUP2 ADD DUP4 SWAP1 MSTORE PUSH1 0xC PUSH1 0x24 DUP3 ADD MSTORE PUSH12 0x13585C9AD95D08195B991959 PUSH1 0xA2 SHL PUSH1 0x44 DUP3 ADD MSTORE PUSH1 0x64 SWAP1 REVERT JUMPDEST CALLVALUE PUSH2 0x515 JUMPI PUSH1 0x20 CALLDATASIZE PUSH1 0x3 NOT ADD SLT PUSH2 0x515 JUMPI PUSH1 0x40 PUSH2 0xDC9 PUSH1 0x4 CALLDATALOAD PUSH2 0x15C4 JUMP JUMPDEST DUP3 MLOAD SWAP2 DUP3 MSTORE PUSH1 0x20 DUP3 ADD MSTORE RETURN JUMPDEST CALLVALUE PUSH2 0x515 JUMPI PUSH1 0x0 CALLDATASIZE PUSH1 0x3 NOT ADD SLT PUSH2 0x515 JUMPI PUSH1 0x20 PUSH1 0x6 SLOAD PUSH1 0x40 MLOAD SWAP1 DUP2 MSTORE RETURN JUMPDEST CALLVALUE PUSH2 0x515 JUMPI PUSH1 0x0 CALLDATASIZE PUSH1 0x3 NOT ADD SLT PUSH2 0x515 JUMPI PUSH1 0x4 SLOAD PUSH1 0x40 MLOAD PUSH1 0x1 PUSH1 0x1 PUSH1 0xA0 SHL SUB SWAP1 SWAP2 AND DUP2 MSTORE PUSH1 0x20 SWAP1 RETURN JUMPDEST CALLVALUE PUSH2 0x515 JUMPI PUSH1 0x40 CALLDATASIZE PUSH1 0x3 NOT ADD SLT PUSH2 0x515 JUMPI PUSH2 0xE35 PUSH2 0x1224 JUMP JUMPDEST PUSH1 0x4 CALLDATALOAD PUSH1 0x0 MSTORE PUSH1 0x2 PUSH1 0x20 MSTORE PUSH1 0x40 PUSH1 0x0 KECCAK256 SWAP1 PUSH1 0x1 DUP1 PUSH1 0xA0 SHL SUB AND PUSH1 0x0 MSTORE PUSH1 0x20 MSTORE PUSH1 0x20 PUSH1 0xFF PUSH1 0x40 PUSH1 0x0 KECCAK256 SLOAD AND PUSH1 0x40 MLOAD SWAP1 ISZERO ISZERO DUP2 MSTORE RETURN JUMPDEST CALLVALUE PUSH2 0x515 JUMPI PUSH1 0x0 CALLDATASIZE PUSH1 0x3 NOT ADD SLT PUSH2 0x515 JUMPI PUSH1 0x5 SLOAD PUSH1 0x40 MLOAD PUSH1 0x1 PUSH1 0x1 PUSH1 0xA0 SHL SUB SWAP1 SWAP2 AND DUP2 MSTORE PUSH1 0x20 SWAP1 RETURN JUMPDEST CALLVALUE PUSH2 0x515 JUMPI PUSH1 0x20 CALLDATASIZE PUSH1 0x3 NOT ADD SLT PUSH2 0x515 JUMPI PUSH1 0x4 CALLDATALOAD PUSH2 0xEBB PUSH1 0x1 DUP1 PUSH1 0xA0 SHL SUB PUSH1 0x4 SLOAD AND CALLER EQ PUSH2 0x158B JUMP JUMPDEST DUP1 PUSH1 0x0 MSTORE PUSH1 0x0 PUSH1 0x20 MSTORE PUSH1 0x7 PUSH1 0x40 PUSH1 0x0 KECCAK256 ADD PUSH1 0x2 DUP2 SLOAD PUSH2 0xEE0 PUSH1 0xFF DUP3 AND PUSH2 0x74C DUP2 PUSH2 0x137C JUMP JUMPDEST PUSH1 0xFF NOT AND OR SWAP1 SSTORE PUSH32 0x2CA440FB7FCA85D7F55D395A4ABD94817330B83A62F3502EFBB4770144E4CA97 PUSH1 0x0 DUP1 LOG2 STOP JUMPDEST CALLVALUE PUSH2 0x515 JUMPI PUSH1 0x20 CALLDATASIZE PUSH1 0x3 NOT ADD SLT PUSH2 0x515 JUMPI PUSH2 0xF27 PUSH2 0x120E JUMP JUMPDEST PUSH1 0x4 SLOAD PUSH1 0x1 PUSH1 0x1 PUSH1 0xA0 SHL SUB SWAP2 SWAP1 PUSH2 0xF41 SWAP1 DUP4 AND CALLER EQ PUSH2 0x158B JUMP JUMPDEST AND PUSH2 0xF4D DUP2 ISZERO ISZERO PUSH2 0x16F7 JUMP JUMPDEST PUSH12 0xFFFFFFFFFFFFFFFFFFFFFFFF PUSH1 0xA0 SHL PUSH1 0x5 SLOAD AND OR PUSH1 0x5 SSTORE PUSH1 0x0 DUP1 RETURN JUMPDEST CALLVALUE PUSH2 0x515 JUMPI PUSH1 0x0 CALLDATASIZE PUSH1 0x3 NOT ADD SLT PUSH2 0x515 JUMPI PUSH1 0x20 PUSH1 0x40 MLOAD PUSH7 0x38D7EA4C68000 DUP2 MSTORE RETURN JUMPDEST CALLVALUE PUSH2 0x515 JUMPI PUSH1 0x20 DUP1 PUSH1 0x3 NOT CALLDATASIZE ADD SLT PUSH2 0x515 JUMPI PUSH1 0x4 CALLDATALOAD DUP1 PUSH1 0x0 MSTORE PUSH1 0x0 DUP3 MSTORE PUSH1 0x2 PUSH1 0xFF PUSH1 0x7 PUSH1 0x40 PUSH1 0x0 KECCAK256 ADD SLOAD AND PUSH2 0xFC0 DUP2 PUSH2 0x137C JUMP JUMPDEST SUB PUSH2 0x10C1 JUMPI DUP1 PUSH1 0x0 MSTORE PUSH1 0x2 DUP3 MSTORE PUSH1 0x40 PUSH1 0x0 KECCAK256 CALLER PUSH1 0x0 MSTORE DUP3 MSTORE PUSH2 0xFEA PUSH1 0xFF PUSH1 0x40 PUSH1 0x0 KECCAK256 SLOAD AND ISZERO PUSH2 0x14DD JUMP JUMPDEST DUP1 PUSH1 0x0 MSTORE PUSH1 0x1 DUP3 MSTORE PUSH1 0x40 PUSH1 0x0 KECCAK256 CALLER PUSH1 0x0 MSTORE DUP3 MSTORE PUSH2 0x1015 PUSH1 0x40 PUSH1 0x0 KECCAK256 PUSH1 0x3 PUSH1 0x2 DUP3 ADD SLOAD SWAP2 ADD SLOAD SWAP1 PUSH2 0x13FF JUMP JUMPDEST SWAP1 DUP2 ISZERO PUSH2 0x1088 JUMPI PUSH1 0x0 DUP1 DUP1 SWAP4 DUP2 SWAP4 DUP3 MSTORE PUSH1 0x2 DUP7 MSTORE PUSH1 0x40 DUP3 KECCAK256 CALLER DUP4 MSTORE DUP7 MSTORE PUSH1 0x40 DUP3 KECCAK256 PUSH1 0x1 PUSH1 0xFF NOT DUP3 SLOAD AND OR SWAP1 SSTORE CALLER GAS CALL PUSH2 0x104C PUSH2 0x155B JUMP JUMPDEST POP ISZERO PUSH2 0x1054 JUMPI STOP JUMPDEST PUSH1 0x64 SWAP1 PUSH1 0x40 MLOAD SWAP1 PUSH3 0x461BCD PUSH1 0xE5 SHL DUP3 MSTORE PUSH1 0x4 DUP3 ADD MSTORE PUSH1 0xD PUSH1 0x24 DUP3 ADD MSTORE PUSH13 0x1499599D5B990819985A5B1959 PUSH1 0x9A SHL PUSH1 0x44 DUP3 ADD MSTORE REVERT JUMPDEST PUSH1 0x40 MLOAD PUSH3 0x461BCD PUSH1 0xE5 SHL DUP2 MSTORE PUSH1 0x4 DUP2 ADD DUP5 SWAP1 MSTORE PUSH1 0x11 PUSH1 0x24 DUP3 ADD MSTORE PUSH17 0x139BDD1A1A5B99C81D1BC81C99599D5B99 PUSH1 0x7A SHL PUSH1 0x44 DUP3 ADD MSTORE PUSH1 0x64 SWAP1 REVERT JUMPDEST PUSH1 0x40 MLOAD PUSH3 0x461BCD PUSH1 0xE5 SHL DUP2 MSTORE PUSH1 0x4 DUP2 ADD DUP4 SWAP1 MSTORE PUSH1 0x14 PUSH1 0x24 DUP3 ADD MSTORE PUSH20 0x13585C9AD95D081B9BDD0818D85B98D95B1B1959 PUSH1 0x62 SHL PUSH1 0x44 DUP3 ADD MSTORE PUSH1 0x64 SWAP1 REVERT JUMPDEST CALLVALUE PUSH2 0x515 JUMPI PUSH1 0x0 CALLDATASIZE PUSH1 0x3 NOT ADD SLT PUSH2 0x515 JUMPI PUSH1 0x4 SLOAD PUSH1 0x1 PUSH1 0x1 PUSH1 0xA0 SHL SUB AND PUSH2 0x1125 CALLER DUP3 EQ PUSH2 0x158B JUMP JUMPDEST PUSH1 0x6 SLOAD SWAP1 DUP2 ISZERO PUSH2 0x1183 JUMPI PUSH1 0x0 DUP1 DUP1 SWAP4 DUP2 SWAP4 DUP3 PUSH1 0x6 SSTORE GAS CALL PUSH2 0x1144 PUSH2 0x155B JUMP JUMPDEST POP ISZERO PUSH2 0x114C JUMPI STOP JUMPDEST PUSH1 0x40 MLOAD PUSH3 0x461BCD PUSH1 0xE5 SHL DUP2 MSTORE PUSH1 0x20 PUSH1 0x4 DUP3 ADD MSTORE PUSH1 0xF PUSH1 0x24 DUP3 ADD MSTORE PUSH15 0x15DA5D1A191C985DC819985A5B1959 PUSH1 0x8A SHL PUSH1 0x44 DUP3 ADD MSTORE PUSH1 0x64 SWAP1 REVERT JUMPDEST PUSH1 0x40 MLOAD PUSH3 0x461BCD PUSH1 0xE5 SHL DUP2 MSTORE PUSH1 0x20 PUSH1 0x4 DUP3 ADD MSTORE PUSH1 0x13 PUSH1 0x24 DUP3 ADD MSTORE PUSH19 0x4E6F206665657320746F207769746864726177 PUSH1 0x68 SHL PUSH1 0x44 DUP3 ADD MSTORE PUSH1 0x64 SWAP1 REVERT JUMPDEST CALLVALUE PUSH2 0x515 JUMPI PUSH1 0x60 CALLDATASIZE PUSH1 0x3 NOT ADD SLT PUSH2 0x515 JUMPI PUSH1 0x44 CALLDATALOAD DUP1 ISZERO ISZERO DUP2 SUB PUSH2 0x515 JUMPI PUSH2 0x11EC PUSH1 0x20 SWAP2 PUSH1 0x24 CALLDATALOAD PUSH1 0x4 CALLDATALOAD PUSH2 0x165F JUMP JUMPDEST PUSH1 0x40 MLOAD SWAP1 DUP2 MSTORE RETURN JUMPDEST CALLVALUE PUSH2 0x515 JUMPI PUSH1 0x0 CALLDATASIZE PUSH1 0x3 NOT ADD SLT PUSH2 0x515 JUMPI DUP1 PUSH1 0xC8 PUSH1 0x20 SWAP3 MSTORE RETURN JUMPDEST PUSH1 0x4 CALLDATALOAD SWAP1 PUSH1 0x1 PUSH1 0x1 PUSH1 0xA0 SHL SUB DUP3 AND DUP3 SUB PUSH2 0x515 JUMPI JUMP JUMPDEST PUSH1 0x24 CALLDATALOAD SWAP1 PUSH1 0x1 PUSH1 0x1 PUSH1 0xA0 SHL SUB DUP3 AND DUP3 SUB PUSH2 0x515 JUMPI JUMP JUMPDEST SWAP1 PUSH1 0x1 DUP3 DUP2 SHR SWAP3 AND DUP1 ISZERO PUSH2 0x126A JUMPI JUMPDEST PUSH1 0x20 DUP4 LT EQ PUSH2 0x1254 JUMPI JUMP JUMPDEST PUSH4 0x4E487B71 PUSH1 0xE0 SHL PUSH1 0x0 MSTORE PUSH1 0x22 PUSH1 0x4 MSTORE PUSH1 0x24 PUSH1 0x0 REVERT JUMPDEST SWAP2 PUSH1 0x7F AND SWAP2 PUSH2 0x1249 JUMP JUMPDEST SWAP1 PUSH1 0x1F DUP1 NOT SWAP2 ADD AND DUP2 ADD SWAP1 DUP2 LT PUSH8 0xFFFFFFFFFFFFFFFF DUP3 GT OR PUSH2 0x3B5 JUMPI PUSH1 0x40 MSTORE JUMP JUMPDEST SWAP1 PUSH1 0x40 MLOAD SWAP2 DUP3 PUSH1 0x0 DUP3 SLOAD SWAP3 PUSH2 0x12AA DUP5 PUSH2 0x123A JUMP JUMPDEST SWAP1 DUP2 DUP5 MSTORE PUSH1 0x1 SWAP5 DUP6 DUP2 AND SWAP1 DUP2 PUSH1 0x0 EQ PUSH2 0x1319 JUMPI POP PUSH1 0x1 EQ PUSH2 0x12D6 JUMPI JUMPDEST POP POP PUSH2 0x12D4 SWAP3 POP SUB DUP4 PUSH2 0x1274 JUMP JUMPDEST JUMP JUMPDEST SWAP1 SWAP4 SWAP2 POP PUSH1 0x0 MSTORE PUSH1 0x20 SWAP1 DUP2 PUSH1 0x0 KECCAK256 SWAP4 PUSH1 0x0 SWAP2 JUMPDEST DUP2 DUP4 LT PUSH2 0x1301 JUMPI POP POP PUSH2 0x12D4 SWAP4 POP DUP3 ADD ADD CODESIZE DUP1 PUSH2 0x12C6 JUMP JUMPDEST DUP6 SLOAD DUP9 DUP5 ADD DUP6 ADD MSTORE SWAP5 DUP6 ADD SWAP5 DUP8 SWAP5 POP SWAP2 DUP4 ADD SWAP2 PUSH2 0x12E9 JUMP JUMPDEST SWAP2 POP POP PUSH2 0x12D4 SWAP5 POP PUSH1 0x20 SWAP3 POP PUSH1 0xFF NOT AND DUP3 DUP5 ADD MSTORE ISZERO ISZERO PUSH1 0x5 SHL DUP3 ADD ADD CODESIZE DUP1 PUSH2 0x12C6 JUMP JUMPDEST SWAP2 SWAP1 DUP3 MLOAD SWAP3 DUP4 DUP3 MSTORE PUSH1 0x0 JUMPDEST DUP5 DUP2 LT PUSH2 0x1368 JUMPI POP POP DUP3 PUSH1 0x0 PUSH1 0x20 DUP1 SWAP5 SWAP6 DUP5 ADD ADD MSTORE PUSH1 0x1F DUP1 NOT SWAP2 ADD AND ADD ADD SWAP1 JUMP JUMPDEST PUSH1 0x20 DUP2 DUP4 ADD DUP2 ADD MLOAD DUP5 DUP4 ADD DUP3 ADD MSTORE ADD PUSH2 0x1347 JUMP JUMPDEST PUSH1 0x3 GT ISZERO PUSH2 0x1386 JUMPI JUMP JUMPDEST PUSH4 0x4E487B71 PUSH1 0xE0 SHL PUSH1 0x0 MSTORE PUSH1 0x21 PUSH1 0x4 MSTORE PUSH1 0x24 PUSH1 0x0 REVERT JUMPDEST PUSH8 0xFFFFFFFFFFFFFFFF DUP2 GT PUSH2 0x3B5 JUMPI PUSH1 0x1F ADD PUSH1 0x1F NOT AND PUSH1 0x20 ADD SWAP1 JUMP JUMPDEST DUP2 PUSH1 0x1F DUP3 ADD SLT ISZERO PUSH2 0x515 JUMPI DUP1 CALLDATALOAD SWAP1 PUSH2 0x13CF DUP3 PUSH2 0x139C JUMP JUMPDEST SWAP3 PUSH2 0x13DD PUSH1 0x40 MLOAD SWAP5 DUP6 PUSH2 0x1274 JUMP JUMPDEST DUP3 DUP5 MSTORE PUSH1 0x20 DUP4 DUP4 ADD ADD GT PUSH2 0x515 JUMPI DUP2 PUSH1 0x0 SWAP3 PUSH1 0x20 DUP1 SWAP4 ADD DUP4 DUP7 ADD CALLDATACOPY DUP4 ADD ADD MSTORE SWAP1 JUMP JUMPDEST SWAP2 SWAP1 DUP3 ADD DUP1 SWAP3 GT PUSH2 0x481 JUMPI JUMP JUMPDEST ISZERO PUSH2 0x1413 JUMPI JUMP JUMPDEST PUSH1 0x40 MLOAD PUSH3 0x461BCD PUSH1 0xE5 SHL DUP2 MSTORE PUSH1 0x20 PUSH1 0x4 DUP3 ADD MSTORE PUSH1 0x11 PUSH1 0x24 DUP3 ADD MSTORE PUSH17 0x4D61726B6574206E6F7420616374697665 PUSH1 0x78 SHL PUSH1 0x44 DUP3 ADD MSTORE PUSH1 0x64 SWAP1 REVERT JUMPDEST DUP2 DUP2 MUL SWAP3 SWAP2 DUP2 ISZERO SWAP2 DUP5 DIV EQ OR ISZERO PUSH2 0x481 JUMPI JUMP JUMPDEST DUP2 ISZERO PUSH2 0x1469 JUMPI DIV SWAP1 JUMP JUMPDEST PUSH4 0x4E487B71 PUSH1 0xE0 SHL PUSH1 0x0 MSTORE PUSH1 0x12 PUSH1 0x4 MSTORE PUSH1 0x24 PUSH1 0x0 REVERT JUMPDEST SWAP2 SWAP1 DUP3 SUB SWAP2 DUP3 GT PUSH2 0x481 JUMPI JUMP JUMPDEST SWAP2 SWAP1 DUP3 ISZERO DUP1 PUSH2 0x14D5 JUMPI JUMPDEST PUSH2 0x14CF JUMPI PUSH2 0x14A4 SWAP1 DUP3 PUSH2 0x144C JUMP JUMPDEST PUSH8 0xDE0B6B3A7640000 DUP4 ADD DUP1 SWAP4 GT PUSH2 0x481 JUMPI PUSH2 0x14CC SWAP3 PUSH2 0x14C3 SWAP2 PUSH2 0x145F JUMP JUMPDEST PUSH1 0x1 SHR SWAP1 PUSH2 0x13FF JUMP JUMPDEST SWAP1 JUMP JUMPDEST POP SWAP1 POP SWAP1 JUMP JUMPDEST POP DUP1 ISZERO PUSH2 0x1496 JUMP JUMPDEST ISZERO PUSH2 0x14E4 JUMPI JUMP JUMPDEST PUSH1 0x40 MLOAD PUSH3 0x461BCD PUSH1 0xE5 SHL DUP2 MSTORE PUSH1 0x20 PUSH1 0x4 DUP3 ADD MSTORE PUSH1 0xF PUSH1 0x24 DUP3 ADD MSTORE PUSH15 0x105B1C9958591E4818DB185A5B5959 PUSH1 0x8A SHL PUSH1 0x44 DUP3 ADD MSTORE PUSH1 0x64 SWAP1 REVERT JUMPDEST ISZERO PUSH2 0x1522 JUMPI JUMP JUMPDEST PUSH1 0x40 MLOAD PUSH3 0x461BCD PUSH1 0xE5 SHL DUP2 MSTORE PUSH1 0x20 PUSH1 0x4 DUP3 ADD MSTORE PUSH1 0x11 PUSH1 0x24 DUP3 ADD MSTORE PUSH17 0x4E6F2077696E6E696E6720736861726573 PUSH1 0x78 SHL PUSH1 0x44 DUP3 ADD MSTORE PUSH1 0x64 SWAP1 REVERT JUMPDEST RETURNDATASIZE ISZERO PUSH2 0x1586 JUMPI RETURNDATASIZE SWAP1 PUSH2 0x156C DUP3 PUSH2 0x139C JUMP JUMPDEST SWAP2 PUSH2 0x157A PUSH1 0x40 MLOAD SWAP4 DUP5 PUSH2 0x1274 JUMP JUMPDEST DUP3 MSTORE RETURNDATASIZE PUSH1 0x0 PUSH1 0x20 DUP5 ADD RETURNDATACOPY JUMP JUMPDEST PUSH1 0x60 SWAP1 JUMP JUMPDEST ISZERO PUSH2 0x1592 JUMPI JUMP JUMPDEST PUSH1 0x40 MLOAD PUSH3 0x461BCD PUSH1 0xE5 SHL DUP2 MSTORE PUSH1 0x20 PUSH1 0x4 DUP3 ADD MSTORE PUSH1 0xA PUSH1 0x24 DUP3 ADD MSTORE PUSH10 0x27B7363C9037BBB732B9 PUSH1 0xB1 SHL PUSH1 0x44 DUP3 ADD MSTORE PUSH1 0x64 SWAP1 REVERT JUMPDEST SWAP1 PUSH1 0x0 SWAP2 DUP3 MSTORE DUP2 PUSH1 0x20 MSTORE PUSH1 0x40 DUP3 KECCAK256 SWAP2 PUSH1 0x4 PUSH1 0x3 DUP5 ADD SLOAD SWAP4 ADD SLOAD SWAP3 PUSH2 0x15E8 DUP5 DUP3 PUSH2 0x13FF JUMP JUMPDEST SWAP2 DUP3 ISZERO PUSH2 0x1652 JUMPI PUSH2 0x2710 SWAP2 DUP3 DUP2 MUL SWAP1 DUP1 DUP3 DIV DUP5 EQ SWAP1 ISZERO OR ISZERO PUSH2 0x163E JUMPI DUP4 PUSH2 0x160E SWAP2 PUSH2 0x145F JUMP JUMPDEST SWAP5 DUP3 DUP2 MUL SWAP3 DUP2 DUP5 DIV EQ SWAP1 ISZERO OR ISZERO PUSH2 0x162A JUMPI POP SWAP1 PUSH2 0x14CC SWAP2 PUSH2 0x145F JUMP JUMPDEST PUSH4 0x4E487B71 PUSH1 0xE0 SHL DUP2 MSTORE PUSH1 0x11 PUSH1 0x4 MSTORE PUSH1 0x24 SWAP1 REVERT JUMPDEST PUSH4 0x4E487B71 PUSH1 0xE0 SHL DUP3 MSTORE PUSH1 0x11 PUSH1 0x4 MSTORE PUSH1 0x24 DUP3 REVERT JUMPDEST POP POP POP SWAP1 POP PUSH2 0x1388 SWAP1 DUP2 SWAP1 JUMP JUMPDEST PUSH1 0x0 MSTORE PUSH1 0x0 PUSH1 0x20 MSTORE PUSH1 0x40 PUSH1 0x0 KECCAK256 SWAP1 PUSH1 0xC8 DUP2 MUL SWAP1 DUP1 DUP3 DIV PUSH1 0xC8 EQ DUP2 ISZERO OR ISZERO PUSH2 0x481 JUMPI PUSH2 0x2710 PUSH2 0x168E SWAP3 DIV SWAP1 PUSH2 0x147F JUMP JUMPDEST PUSH1 0x3 DUP3 ADD SLOAD PUSH1 0x4 DUP4 ADD SLOAD SWAP1 PUSH2 0x16AC DUP4 PUSH2 0x16A7 DUP5 DUP5 PUSH2 0x13FF JUMP JUMPDEST PUSH2 0x13FF JUMP JUMPDEST SWAP5 ISZERO PUSH2 0x16DF JUMPI PUSH1 0x5 SWAP4 PUSH2 0x16CA PUSH2 0x16DA SWAP5 PUSH2 0x14CC SWAP8 SWAP5 PUSH2 0x16D4 SWAP5 PUSH2 0x148C JUMP JUMPDEST SWAP5 DUP6 SWAP2 ADD SLOAD PUSH2 0x13FF JUMP JUMPDEST SWAP3 PUSH2 0x144C JUMP JUMPDEST PUSH2 0x145F JUMP JUMPDEST PUSH1 0x6 SWAP4 PUSH2 0x16CA PUSH2 0x16DA SWAP5 PUSH2 0x16D4 SWAP4 PUSH2 0x14CC SWAP9 SWAP6 PUSH2 0x148C JUMP JUMPDEST ISZERO PUSH2 0x16FE JUMPI JUMP JUMPDEST PUSH1 0x40 MLOAD PUSH3 0x461BCD PUSH1 0xE5 SHL DUP2 MSTORE PUSH1 0x20 PUSH1 0x4 DUP3 ADD MSTORE PUSH1 0xF PUSH1 0x24 DUP3 ADD MSTORE PUSH15 0x496E76616C69642061646472657373 PUSH1 0x88 SHL PUSH1 0x44 DUP3 ADD MSTORE PUSH1 0x64 SWAP1 REVERT INVALID LOG2 PUSH5 0x6970667358 0x22 SLT KECCAK256 BYTE 0x5E 0x21 MSIZE 0xDF 0x23 MSTORE COINBASE 0xE4 0xDB DUP11 STATICCALL 0xCA 0xBE MLOAD JUMP 0xC5 0x5C 0xD3 0xAA POP PUSH17 0xBA3ACDBF8CB827FF7D8064736F6C634300 ADDMOD EQ STOP CALLER "},"methodIdentifiers":{"BASIS_POINTS()":"e1f1c4a7","MIN_BET()":"6540742f","PLATFORM_FEE()":"34fbc9a1","calculatePotentialPayout(uint256,uint256,bool)":"39160719","cancelMarket(uint256)":"7c16cd9e","claimRefund(uint256)":"5b7baf64","claimReward(uint256)":"ae169a50","collectedFees()":"9003adfe","createMarket(string,string,uint256)":"f98b7783","getMarket(uint256)":"eb44fdd3","getPosition(uint256,address)":"d29f541d","getPrices(uint256)":"91492956","hasClaimed(uint256,address)":"873f6f9e","marketCount()":"ec979082","markets(uint256)":"b1283e77","oracle()":"7dc0d1d0","owner()":"8da5cb5b","placeBet(uint256,bool)":"9ed9c74d","positions(uint256,address)":"e684d718","resolveMarket(uint256,uint8,bytes32)":"d5220b62","setOracle(address)":"7adbf973","transferOwnership(address)":"f2fde38b","withdrawFees()":"476343ee"}}}}}