{
  "_format": "hh-sol-artifact-1",
  "contractName": "TruthArenaV2",
  "sourceName": "contracts/TruthArenaV2.sol",
  "abi": [
    {
      "inputs": [],
      "stateMutability": "nonpayable",
      "type": "constructor"
    },
    {
      "anonymous": false,
      "inputs": [
        {
          "indexed": true,
          "internalType": "uint256",
          "name": "marketId",
          "type": "uint256"
        },
        {
          "indexed": true,
          "internalType": "address",
          "name": "user",
          "type": "address"
        },
        {
          "indexed": false,
          "internalType": "bool",
          "name": "prediction",
          "type": "bool"
        },
        {
          "indexed": false,
          "internalType": "uint256",
          "name": "amount",
          "type": "uint256"
        },
        {
          "indexed": false,
          "internalType": "uint256",
          "name": "shares",
          "type": "uint256"
        }
      ],
      "name": "BetPlaced",
      "type": "event"
    },
    {
      "anonymous": false,
      "inputs": [
        {
          "indexed": true,
          "internalType": "uint256",
          "name": "marketId",
          "type": "uint256"
        },
        {
          "indexed": false,
          "internalType": "string",
          "name": "question",
          "type": "string"
        },
        {
          "indexed": false,
          "internalType": "uint256",
          "name": "endTime",
          "type": "uint256"
        },
        {
          "indexed": false,
          "internalType": "bool",
          "name": "yieldEnabled",
          "type": "bool"
        }
      ],
      "name": "MarketCreated",
      "type": "event"
    },
    {
      "anonymous": false,
      "inputs": [
        {
          "indexed": true,
          "internalType": "uint256",
          "name": "marketId",
          "type": "uint256"
        },
        {
          "indexed": false,
          "internalType": "enum TruthArenaV2.Outcome",
          "name": "outcome",
          "type": "uint8"
        },
        {
          "indexed": false,
          "internalType": "bytes32",
          "name": "txHash",
          "type": "bytes32"
        }
      ],
      "name": "MarketResolved",
      "type": "event"
    },
    {
      "anonymous": false,
      "inputs": [
        {
          "indexed": true,
          "internalType": "uint256",
          "name": "marketId",
          "type": "uint256"
        },
        {
          "indexed": true,
          "internalType": "address",
          "name": "user",
          "type": "address"
        },
        {
          "indexed": false,
          "internalType": "uint256",
          "name": "amount",
          "type": "uint256"
        }
      ],
      "name": "RewardClaimed",
      "type": "event"
    },
    {
      "anonymous": false,
      "inputs": [
        {
          "indexed": true,
          "internalType": "uint256",
          "name": "marketId",
          "type": "uint256"
        },
        {
          "indexed": false,
          "internalType": "bool",
          "name": "enabled",
          "type": "bool"
        }
      ],
      "name": "YieldStrategyUpdated",
      "type": "event"
    },
    {
      "inputs": [],
      "name": "BASIS_POINTS",
      "outputs": [
        {
          "internalType": "uint256",
          "name": "",
          "type": "uint256"
        }
      ],
      "stateMutability": "view",
      "type": "function"
    },
    {
      "inputs": [],
      "name": "MIN_BET",
      "outputs": [
        {
          "internalType": "uint256",
          "name": "",
          "type": "uint256"
        }
      ],
      "stateMutability": "view",
      "type": "function"
    },
    {
      "inputs": [],
      "name": "PLATFORM_FEE",
      "outputs": [
        {
          "internalType": "uint256",
          "name": "",
          "type": "uint256"
        }
      ],
      "stateMutability": "view",
      "type": "function"
    },
    {
      "inputs": [
        {
          "internalType": "uint256",
          "name": "_marketId",
          "type": "uint256"
        },
        {
          "internalType": "uint256",
          "name": "_amount",
          "type": "uint256"
        },
        {
          "internalType": "bool",
          "name": "_isYes",
          "type": "bool"
        }
      ],
      "name": "calculatePotentialPayout",
      "outputs": [
        {
          "internalType": "uint256",
          "name": "",
          "type": "uint256"
        }
      ],
      "stateMutability": "view",
      "type": "function"
    },
    {
      "inputs": [
        {
          "internalType": "uint256",
          "name": "_marketId",
          "type": "uint256"
        }
      ],
      "name": "cancelMarket",
      "outputs": [],
      "stateMutability": "nonpayable",
      "type": "function"
    },
    {
      "inputs": [
        {
          "internalType": "uint256",
          "name": "_marketId",
          "type": "uint256"
        }
      ],
      "name": "claimRefund",
      "outputs": [],
      "stateMutability": "nonpayable",
      "type": "function"
    },
    {
      "inputs": [
        {
          "internalType": "uint256",
          "name": "_marketId",
          "type": "uint256"
        }
      ],
      "name": "claimReward",
      "outputs": [],
      "stateMutability": "nonpayable",
      "type": "function"
    },
    {
      "inputs": [],
      "name": "collectedFees",
      "outputs": [
        {
          "internalType": "uint256",
          "name": "",
          "type": "uint256"
        }
      ],
      "stateMutability": "view",
      "type": "function"
    },
    {
      "inputs": [
        {
          "internalType": "string",
          "name": "_question",
          "type": "string"
        },
        {
          "internalType": "string",
          "name": "_description",
          "type": "string"
        },
        {
          "internalType": "uint256",
          "name": "_duration",
          "type": "uint256"
        }
      ],
      "name": "createMarket",
      "outputs": [
        {
          "internalType": "uint256",
          "name": "",
          "type": "uint256"
        }
      ],
      "stateMutability": "nonpayable",
      "type": "function"
    },
    {
      "inputs": [
        {
          "internalType": "uint256",
          "name": "_marketId",
          "type": "uint256"
        }
      ],
      "name": "getMarket",
      "outputs": [
        {
          "internalType": "string",
          "name": "question",
          "type": "string"
        },
        {
          "internalType": "string",
          "name": "description",
          "type": "string"
        },
        {
          "internalType": "uint256",
          "name": "endTime",
          "type": "uint256"
        },
        {
          "internalType": "uint256",
          "name": "yesPool",
          "type": "uint256"
        },
        {
          "internalType": "uint256",
          "name": "noPool",
          "type": "uint256"
        },
        {
          "internalType": "uint256",
          "name": "totalYesShares",
          "type": "uint256"
        },
        {
          "internalType": "uint256",
          "name": "totalNoShares",
          "type": "uint256"
        },
        {
          "internalType": "enum TruthArenaV2.MarketStatus",
          "name": "status",
          "type": "uint8"
        },
        {
          "internalType": "enum TruthArenaV2.Outcome",
          "name": "outcome",
          "type": "uint8"
        },
        {
          "internalType": "bool",
          "name": "yieldEnabled",
          "type": "bool"
        }
      ],
      "stateMutability": "view",
      "type": "function"
    },
    {
      "inputs": [
        {
          "internalType": "uint256",
          "name": "_marketId",
          "type": "uint256"
        },
        {
          "internalType": "address",
          "name": "_user",
          "type": "address"
        }
      ],
      "name": "getPosition",
      "outputs": [
        {
          "internalType": "uint256",
          "name": "yesShares",
          "type": "uint256"
        },
        {
          "internalType": "uint256",
          "name": "noShares",
          "type": "uint256"
        },
        {
          "internalType": "uint256",
          "name": "yesCost",
          "type": "uint256"
        },
        {
          "internalType": "uint256",
          "name": "noCost",
          "type": "uint256"
        }
      ],
      "stateMutability": "view",
      "type": "function"
    },
    {
      "inputs": [
        {
          "internalType": "uint256",
          "name": "_marketId",
          "type": "uint256"
        }
      ],
      "name": "getPrices",
      "outputs": [
        {
          "internalType": "uint256",
          "name": "yesPrice",
          "type": "uint256"
        },
        {
          "internalType": "uint256",
          "name": "noPrice",
          "type": "uint256"
        }
      ],
      "stateMutability": "view",
      "type": "function"
    },
    {
      "inputs": [
        {
          "internalType": "uint256",
          "name": "_tierIndex",
          "type": "uint256"
        }
      ],
      "name": "getYieldTier",
      "outputs": [
        {
          "internalType": "uint256",
          "name": "duration",
          "type": "uint256"
        },
        {
          "internalType": "uint256",
          "name": "threshold",
          "type": "uint256"
        }
      ],
      "stateMutability": "view",
      "type": "function"
    },
    {
      "inputs": [
        {
          "internalType": "uint256",
          "name": "",
          "type": "uint256"
        },
        {
          "internalType": "address",
          "name": "",
          "type": "address"
        }
      ],
      "name": "hasClaimed",
      "outputs": [
        {
          "internalType": "bool",
          "name": "",
          "type": "bool"
        }
      ],
      "stateMutability": "view",
      "type": "function"
    },
    {
      "inputs": [],
      "name": "marketCount",
      "outputs": [
        {
          "internalType": "uint256",
          "name": "",
          "type": "uint256"
        }
      ],
      "stateMutability": "view",
      "type": "function"
    },
    {
      "inputs": [
        {
          "internalType": "uint256",
          "name": "",
          "type": "uint256"
        }
      ],
      "name": "markets",
      "outputs": [
        {
          "internalType": "string",
          "name": "question",
          "type": "string"
        },
        {
          "internalType": "string",
          "name": "description",
          "type": "string"
        },
        {
          "internalType": "uint256",
          "name": "endTime",
          "type": "uint256"
        },
        {
          "internalType": "uint256",
          "name": "yesPool",
          "type": "uint256"
        },
        {
          "internalType": "uint256",
          "name": "noPool",
          "type": "uint256"
        },
        {
          "internalType": "uint256",
          "name": "totalYesShares",
          "type": "uint256"
        },
        {
          "internalType": "uint256",
          "name": "totalNoShares",
          "type": "uint256"
        },
        {
          "internalType": "enum TruthArenaV2.MarketStatus",
          "name": "status",
          "type": "uint8"
        },
        {
          "internalType": "enum TruthArenaV2.Outcome",
          "name": "outcome",
          "type": "uint8"
        },
        {
          "internalType": "bytes32",
          "name": "verifiedTxHash",
          "type": "bytes32"
        },
        {
          "internalType": "uint256",
          "name": "createdAt",
          "type": "uint256"
        },
        {
          "internalType": "address",
          "name": "creator",
          "type": "address"
        },
        {
          "internalType": "bool",
          "name": "yieldEnabled",
          "type": "bool"
        }
      ],
      "stateMutability": "view",
      "type": "function"
    },
    {
      "inputs": [],
      "name": "oracle",
      "outputs": [
        {
          "internalType": "address",
          "name": "",
          "type": "address"
        }
      ],
      "stateMutability": "view",
      "type": "function"
    },
    {
      "inputs": [],
      "name": "owner",
      "outputs": [
        {
          "internalType": "address",
          "name": "",
          "type": "address"
        }
      ],
      "stateMutability": "view",
      "type": "function"
    },
    {
      "inputs": [
        {
          "internalType": "uint256",
          "name": "_marketId",
          "type": "uint256"
        },
        {
          "internalType": "bool",
          "name": "_prediction",
          "type": "bool"
        }
      ],
      "name": "placeBet",
      "outputs": [],
      "stateMutability": "payable",
      "type": "function"
    },
    {
      "inputs": [
        {
          "internalType": "uint256",
          "name": "",
          "type": "uint256"
        },
        {
          "internalType": "address",
          "name": "",
          "type": "address"
        }
      ],
      "name": "positions",
      "outputs": [
        {
          "internalType": "uint256",
          "name": "yesShares",
          "type": "uint256"
        },
        {
          "internalType": "uint256",
          "name": "noShares",
          "type": "uint256"
        },
        {
          "internalType": "uint256",
          "name": "yesCost",
          "type": "uint256"
        },
        {
          "internalType": "uint256",
          "name": "noCost",
          "type": "uint256"
        }
      ],
      "stateMutability": "view",
      "type": "function"
    },
    {
      "inputs": [
        {
          "internalType": "uint256",
          "name": "_marketId",
          "type": "uint256"
        },
        {
          "internalType": "enum TruthArenaV2.Outcome",
          "name": "_outcome",
          "type": "uint8"
        },
        {
          "internalType": "bytes32",
          "name": "_txHash",
          "type": "bytes32"
        }
      ],
      "name": "resolveMarket",
      "outputs": [],
      "stateMutability": "nonpayable",
      "type": "function"
    },
    {
      "inputs": [
        {
          "internalType": "address",
          "name": "_oracle",
          "type": "address"
        }
      ],
      "name": "setOracle",
      "outputs": [],
      "stateMutability": "nonpayable",
      "type": "function"
    },
    {
      "inputs": [
        {
          "internalType": "address",
          "name": "_newOwner",
          "type": "address"
        }
      ],
      "name": "transferOwnership",
      "outputs": [],
      "stateMutability": "nonpayable",
      "type": "function"
    },
    {
      "inputs": [
        {
          "internalType": "uint256",
          "name": "_tierIndex",
          "type": "uint256"
        },
        {
          "internalType": "uint256",
          "name": "_duration",
          "type": "uint256"
        },
        {
          "internalType": "uint256",
          "name": "_threshold",
          "type": "uint256"
        }
      ],
      "name": "updateYieldTier",
      "outputs": [],
      "stateMutability": "nonpayable",
      "type": "function"
    },
    {
      "inputs": [],
      "name": "withdrawFees",
      "outputs": [],
      "stateMutability": "nonpayable",
      "type": "function"
    },
    {
      "inputs": [
        {
          "internalType": "uint256",
          "name": "",
          "type": "uint256"
        }
      ],
      "name": "yieldTiers",
      "outputs": [
        {
          "internalType": "uint256",
          "name": "duration",
          "type": "uint256"
        },
        {
          "internalType": "uint256",
          "name": "threshold",
          "type": "uint256"
        }
      ],
      "stateMutability": "view",
      "type": "function"
    },
    {
      "stateMutability": "payable",
      "type": "receive"
    }
  ],
  "bytecode": "0x6080604052346100a55760018060a01b03193381600454161760045533906005541617600555602061002f6100aa565b62093a8090818152674563918244f40000928391015260075560085560206100556100aa565b62278d0090818152670de0b6b3a76400009283910152600955600a55602061007b6100aa565b600019908181526706f05b59d3b200009283910152600b55600c556040516119be90816100e08239f35b600080fd5b60408051919082016001600160401b038111838210176100c957604052565b634e487b7160e01b600052604160045260246000fdfe60406080815260049081361015610020575b5050361561001e57600080fd5b005b600091823560e01c806301eb66a81461126357806334fbc9a114611247578063391607191461120f578063476343ee1461115d5780635b7baf64146110035780636540742f14610fe15780637adbf97314610f8a5780637c16cd9e14610f385780637dc0d1d014610f0f578063873f6f9e14610ec95780638da5cb5b14610ea25780639003adfe14610e835780639149295614610e5957806395b563a414610e0357806396a4fb8e14610dca5780639ed9c74d14610b7c578063ae169a5014610972578063b1283e7714610872578063d29f541d1461068f578063d5220b6214610720578063e1f1c4a714610703578063e684d7181461068f578063eb44fdd3146105bc578063ec9790821461059d578063f2fde38b146105485763f98b77831461014b5750610011565b346105445760603660031901126105445767ffffffffffffffff9181358381116105405761017c90369084016114ca565b60243584811161053c5761019390369085016114ca565b946044359081156104f9578251156104c2576003918254956101b487611511565b84558683526020978389528684209486518281116104af576101d68754611336565b908b601f9283811161046d575b5050808c83821160011461040b578891610400575b508160011b9160001990851b1c19161787555b600190818801948d519485116103ed57506102268554611336565b8181116103ad575b508a9b9c879b9a9b508d809286116001146102fb5750938061029694816102de9b99958b9995600a997fcf1703a582c2d33aca5304d8715a8032f0db94e24a996a016453b343ea02d26b9f9d956102f0575b50501b92600019911b1c19161790555b42611536565b6002840181905560078401805461ffff19169055426009850155920180546001600160a81b0319163360ff60a01b19161790558651606080825290948594909185019061144e565b9189840152868301520390a251908152f35b015193503880610280565b9294939190601f198516878a52848a20948a905b82821061037c575050937fcf1703a582c2d33aca5304d8715a8032f0db94e24a996a016453b343ea02d26b9b999793600a97938793610296986102de9e9c9810610362575b50505050811b019055610290565b01519060f884600019921b161c1916905538808080610354565b888598999a9b9c9d9e9f50819394959782939798870151815501970194018f9d9c9b9a99989796959493929161030f565b8588528c882085830160051c81019183908f88106103e4575b0160051c01905b8181106103da575061022e565b88815583016103cd565b925081926103c6565b634e487b7160e01b885260419052602487fd5b9050890151386101f8565b8989528d89209150601f198316898f5b8d83831061045757505050908360019493921061043f575b5050811b01875561020b565b8b015160001983871b60f8161c191690553880610433565b840151855560019094019392830192018f61041b565b89895283828a209181850160051c83019385106104a6575b0160051c01905b81811061049b578d91506101e3565b88815560010161048c565b92508192610485565b634e487b7160e01b865260418452602486fd5b835162461bcd60e51b81526020818701526011602482015270145d595cdd1a5bdb881c995c5d5a5c9959607a1b6044820152606490fd5b835162461bcd60e51b8152602081870152601960248201527f4475726174696f6e206d75737420626520706f736974697665000000000000006044820152606490fd5b8580fd5b8480fd5b8280fd5b83823461059957602036600319011261059957610563611305565b8154906001600160a01b039061057c338385161461179d565b169061058982151561194a565b6001600160a01b03191617905580f35b5080fd5b5050346105995781600319360112610599576020906003549051908152f35b5090346105445760203660031901126105445760ff8161063c9484358152806020522080936002820154906003830154908301546005840154600685015491600786015493878086169560081c169561064a6106286001610621600a8c01549b6113a8565b9d016113a8565b8b519d8e9d8e61014090818152019061144e565b8d810360208f01529061144e565b998b015260608a0152608089015260a088015260c087015261066b8161148e565b60e08601526106798161148e565b61010085015260a01c1615156101208301520390f35b50346105445781600319360112610544579181926106ab611320565b9035825260016020528282209060018060a01b0316825260205220906106ff825491600184015493600360028201549101549151948594859094939260609260808301968352602083015260408201520152565b0390f35b505034610599578160031936011261059957602090516127108152f35b5091903461059957606036600319011261059957823590602435600381101561086e5760055460443590336001600160a01b0391821614908115610861575b5015610830578385528460205282852095600787019081549061078e60ff83166107888161148e565b15611543565b6107978561148e565b84156107fb57507f3369929723e45f72d9ba8ea5e21eace474887d4e706445ad162994ef978709a8959697839260016008936107d28861148e565b61ffff191687851b61ff00161717905501558251916107f08161148e565b82526020820152a280f35b606490602087519162461bcd60e51b8352820152600f60248201526e496e76616c6964206f7574636f6d6560881b6044820152fd5b825162461bcd60e51b8152602081880152600b60248201526a4f6e6c79206f7261636c6560a81b6044820152606490fd5b905086541633143861075f565b8380fd5b50823461096f57602036600319011261096f5782908235815280602052209161089a836113a8565b916108a7600185016113a8565b936002810154916003820154908201546005830154600684015460078501549160ff83169260081c60ff1693600887015495600988015497600a0154988a519c8d9c8d6101a090818152016108fb9161144e565b8d810360208f015261090c9161144e565b9a8c015260608b015260808a015260a089015260c088015261092d8161148e565b60e087015261093b8161148e565b6101008601526101208501526101408401526001600160a01b03811661016084015260a01c60ff1615156101808301520390f35b80fd5b5090346105445760208060031936011261086e578235918285528482528085206007810154600160ff82166109a68161148e565b03610b43578487526002845282872033885284526109ca60ff8489205416156116ef565b8487526001845282872033885284528287208760ff6109f160038601548a87015490611536565b9360081c166109ff8161148e565b60018103610afe575050610a25610a2e939260059254610a2081151561172d565b611583565b91015490611596565b935b8415610aca57838652600283528186203387528352818620600160ff198254161790558580808088335af1610a6361176d565b5015610a975750907f24b5efa61dd1cfc659205a97fb8ed868f3cb8c81922bab2b96423e5de1de2cb791519384523393a380f35b82606492519162461bcd60e51b8352820152600f60248201526e151c985b9cd9995c8819985a5b1959608a1b6044820152fd5b82606492519162461bcd60e51b8352820152601060248201526f4e6f7468696e6720746f20636c61696d60801b6044820152fd5b80610b106002929a969594939a61148e565b14610b1e575b505050610a30565b610b3a9397506006916001610a25920154610a2081151561172d565b93388080610b16565b825162461bcd60e51b8152808701859052601360248201527213585c9ad95d081b9bdd081c995cdbdb1d9959606a1b6044820152606490fd5b50908060031936011261054457813590602435908115159384830361053c57838652602090868252828720610bbb60ff6007830154166107888161148e565b6002810154421015610d995766038d7ea4c680003410610d635760c8340234810460c81434151715610d50576127109004610c02610bf982346115b6565b91600654611536565b6006558515610d4357610c258160038401545b8815610d3857858501549061169e565b9515610ccf5760059250610c3e60038301918254611536565b905501610c4c848254611536565b9055838652600181528186203387528152818620610c6b848254611536565b9055838652600181528186203387528152600282872001610c8d348254611536565b90555b610c99846115c3565b815194855234908501528301527f52772507cb516fc74ec2a0c1cf45c731d4e9eb90979b956f47caf17c4208688060603393a380f35b610cdf6006938301918254611536565b905501610ced848254611536565b9055838652600181528186203387528152600182872001610d0f848254611536565b9055838652600181528186203387528152600382872001610d31348254611536565b9055610c90565b60038501549061169e565b610c258184840154610c15565b634e487b7160e01b895260118352602489fd5b50915162461bcd60e51b815291820152601160248201527010995b1bddc81b5a5b9a5b5d5b4818995d607a1b6044820152606490fd5b50915162461bcd60e51b815291820152600c60248201526b13585c9ad95d08195b99195960a21b6044820152606490fd5b50829034610599576020366003190112610599573590600382101561096f575060011b6008816007015491015482519182526020820152f35b50823461096f57602036600319011261096f5781359160038310610e2681611909565b15610e4657505060011b6008816007015491015482519182526020820152f35b634e487b7160e01b825260329052602490fd5b50823461096f57602036600319011261096f5750610e7790356117d6565b82519182526020820152f35b5050346105995781600319360112610599576020906006549051908152f35b50346105445782600319360112610544575490516001600160a01b03909116815260209150f35b50346105445781600319360112610544578160209360ff92610ee9611320565b90358252600286528282206001600160a01b039091168252855220549151911615158152f35b50503461059957816003193601126105995760055490516001600160a01b039091168152602090f35b50903461054457602036600319011261054457600791610f6260018060a01b03825416331461179d565b3583528260205282200160028154610f8060ff82166107888161148e565b60ff191617905580f35b83823461059957602036600319011261059957610fa5611305565b610fba60018060a01b0380935416331461179d565b16610fc681151561194a565b6bffffffffffffffffffffffff60a01b600554161760055580f35b5050346105995781600319360112610599576020905166038d7ea4c680008152f35b509034610544576020908160031936011261086e578235808552848352600260ff60078488200154166110358161148e565b036111245780855260028352818520338652835261105960ff8387205416156116ef565b80855260018352818520338652835261107e8286206003600282015491015490611536565b9081156110ed578580809381938252600287528582203383528752858220600160ff19825416179055335af16110b261176d565b50156110bc578380f35b5162461bcd60e51b815291820152600d60248201526c1499599d5b990819985a5b1959609a1b604482015260649150fd5b50505162461bcd60e51b8152918201526011602482015270139bdd1a1a5b99c81d1bc81c99599d5b99607a1b604482015260649150fd5b505162461bcd60e51b815291820152601460248201527313585c9ad95d081b9bdd0818d85b98d95b1b195960621b604482015260649150fd5b50903461054457826003193601126105445781546001600160a01b031661118533821461179d565b6006549081156111e257848080938193826006555af16111a361176d565b50156111ad578280f35b906020606492519162461bcd60e51b8352820152600f60248201526e15da5d1a191c985dc819985a5b1959608a1b6044820152fd5b825162461bcd60e51b815260208186015260076024820152664e6f206665657360c81b6044820152606490fd5b50346105445760603660031901126105445760443592831515840361096f5750602092611240916024359035611871565b9051908152f35b5050346105995781600319360112610599576020905160c88152f35b5091903461059957606036600319011261059957823561128d60018060a01b03855416331461179d565b600381109061129b82611909565b8251928084019084821067ffffffffffffffff8311176112f25752602435835260208301916044358352156112df579060089160011b925183600701555191015580f35b634e487b7160e01b845260328552602484fd5b634e487b7160e01b865260418752602486fd5b600435906001600160a01b038216820361131b57565b600080fd5b602435906001600160a01b038216820361131b57565b90600182811c92168015611366575b602083101461135057565b634e487b7160e01b600052602260045260246000fd5b91607f1691611345565b90601f8019910116810190811067ffffffffffffffff82111761139257604052565b634e487b7160e01b600052604160045260246000fd5b90604051918260008254926113bc84611336565b90818452600194858116908160001461142b57506001146113e8575b50506113e692500383611370565b565b9093915060005260209081600020936000915b8183106114135750506113e6935082010138806113d8565b855488840185015294850194879450918301916113fb565b9150506113e694506020925060ff191682840152151560051b82010138806113d8565b919082519283825260005b84811061147a575050826000602080949584010152601f8019910116010190565b602081830181015184830182015201611459565b6003111561149857565b634e487b7160e01b600052602160045260246000fd5b67ffffffffffffffff811161139257601f01601f191660200190565b81601f8201121561131b578035906114e1826114ae565b926114ef6040519485611370565b8284526020838301011161131b57816000926020809301838601378301015290565b60001981146115205760010190565b634e487b7160e01b600052601160045260246000fd5b9190820180921161152057565b1561154a57565b60405162461bcd60e51b81526020600482015260116024820152704d61726b6574206e6f742061637469766560781b6044820152606490fd5b8181029291811591840414171561152057565b81156115a0570490565b634e487b7160e01b600052601260045260246000fd5b9190820391821161152057565b8060005260006020526040600020600a81019081549060ff8260a01c1661165c5761161361160e6115fd6003840154600485015490611536565b9260096002820154910154906115b6565b611662565b111561161e57505050565b60ff60a01b1916600160a01b179055604051600181527fd1f7278cdb0c7a91dfd7a4fad8a8724490ba2ecace8d2cdb726c0a15d62e358e90602090a2565b50505050565b60005b60038110611675575050600c5490565b8060011b8060070154831115611694575061168f90611511565b611665565b6008015492915050565b91908215806116e7575b6116e1576116b69082611583565b670de0b6b3a76400008301809311611520576116de926116d591611596565b60011c90611536565b90565b50905090565b5080156116a8565b156116f657565b60405162461bcd60e51b815260206004820152600f60248201526e105b1c9958591e4818db185a5b5959608a1b6044820152606490fd5b1561173457565b60405162461bcd60e51b81526020600482015260116024820152704e6f2077696e6e696e672073686172657360781b6044820152606490fd5b3d15611798573d9061177e826114ae565b9161178c6040519384611370565b82523d6000602084013e565b606090565b156117a457565b60405162461bcd60e51b815260206004820152600a60248201526927b7363c9037bbb732b960b11b6044820152606490fd5b90600091825281602052604082209160046003840154930154926117fa8482611536565b918215611864576127109182810290808204841490151715611850578361182091611596565b9482810292818404149015171561183c5750906116de91611596565b634e487b7160e01b81526011600452602490fd5b634e487b7160e01b82526011600452602482fd5b5050509050611388908190565b600052600060205260406000209060c881029080820460c81481151715611520576127106118a09204906115b6565b60038201546004830154906118be836118b98484611536565b611536565b94156118f1576005936118dc6118ec946116de97946118e69461169e565b9485910154611536565b92611583565b611596565b6006936118dc6118ec946118e6936116de989561169e565b1561191057565b60405162461bcd60e51b8152602060048201526012602482015271092dcecc2d8d2c840e8d2cae440d2dcc8caf60731b6044820152606490fd5b1561195157565b60405162461bcd60e51b815260206004820152600f60248201526e496e76616c6964206164647265737360881b6044820152606490fdfea2646970667358221220972850b9f85b99ca42ebfd743aa42a0778da24207bc4b16e051746fd4c2e831c64736f6c63430008140033",
  "linkReferences": {},
  "deployedLinkReferences": {}
}